{"contracts/FootballBetting1155.sol":{"FootballBetting1155":{"abi":[{"inputs":[{"internalType":"string","name":"uri","type":"string"},{"internalType":"address","name":"usdcAddress","type":"address"}],"stateMutability":"nonpayable","type":"constructor"},{"inputs":[{"internalType":"address","name":"sender","type":"address"},{"internalType":"uint256","name":"balance","type":"uint256"},{"internalType":"uint256","name":"needed","type":"uint256"},{"internalType":"uint256","name":"tokenId","type":"uint256"}],"name":"ERC1155InsufficientBalance","type":"error"},{"inputs":[{"internalType":"address","name":"approver","type":"address"}],"name":"ERC1155InvalidApprover","type":"error"},{"inputs":[{"internalType":"uint256","name":"idsLength","type":"uint256"},{"internalType":"uint256","name":"valuesLength","type":"uint256"}],"name":"ERC1155InvalidArrayLength","type":"error"},{"inputs":[{"internalType":"address","name":"operator","type":"address"}],"name":"ERC1155InvalidOperator","type":"error"},{"inputs":[{"internalType":"address","name":"receiver","type":"address"}],"name":"ERC1155InvalidReceiver","type":"error"},{"inputs":[{"internalType":"address","name":"sender","type":"address"}],"name":"ERC1155InvalidSender","type":"error"},{"inputs":[{"internalType":"address","name":"operator","type":"address"},{"internalType":"address","name":"owner","type":"address"}],"name":"ERC1155MissingApprovalForAll","type":"error"},{"inputs":[{"internalType":"address","name":"owner","type":"address"}],"name":"OwnableInvalidOwner","type":"error"},{"inputs":[{"internalType":"address","name":"account","type":"address"}],"name":"OwnableUnauthorizedAccount","type":"error"},{"anonymous":false,"inputs":[{"indexed":true,"internalType":"address","name":"account","type":"address"},{"indexed":true,"internalType":"address","name":"operator","type":"address"},{"indexed":false,"internalType":"bool","name":"approved","type":"bool"}],"name":"ApprovalForAll","type":"event"},{"anonymous":false,"inputs":[{"indexed":false,"internalType":"uint256","name":"newFeeRate","type":"uint256"}],"name":"FeeRateChanged","type":"event"},{"anonymous":false,"inputs":[{"indexed":true,"internalType":"address","name":"to","type":"address"},{"indexed":false,"internalType":"uint256","name":"amount","type":"uint256"}],"name":"FeeWithdrawn","type":"event"},{"anonymous":false,"inputs":[{"indexed":true,"internalType":"address","name":"user","type":"address"},{"indexed":true,"internalType":"uint256","name":"tokenId","type":"uint256"},{"indexed":false,"internalType":"uint256","name":"amount","type":"uint256"}],"name":"Mint","type":"event"},{"anonymous":false,"inputs":[{"indexed":true,"internalType":"uint256","name":"orderId","type":"uint256"}],"name":"OrderCancelled","type":"event"},{"anonymous":false,"inputs":[{"indexed":true,"internalType":"uint256","name":"orderId","type":"uint256"},{"indexed":true,"internalType":"address","name":"seller","type":"address"},{"indexed":false,"internalType":"uint256","name":"tokenId","type":"uint256"},{"indexed":false,"internalType":"uint256","name":"amount","type":"uint256"},{"indexed":false,"internalType":"uint256","name":"pricePerNFT","type":"uint256"}],"name":"OrderCreated","type":"event"},{"anonymous":false,"inputs":[{"indexed":true,"internalType":"uint256","name":"orderId","type":"uint256"},{"indexed":true,"internalType":"address","name":"buyer","type":"address"},{"indexed":false,"internalType":"uint256","name":"amount","type":"uint256"},{"indexed":false,"internalType":"uint256","name":"totalPrice","type":"uint256"},{"indexed":false,"internalType":"uint256","name":"fee","type":"uint256"}],"name":"OrderFilled","type":"event"},{"anonymous":false,"inputs":[{"indexed":true,"internalType":"address","name":"previousOwner","type":"address"},{"indexed":true,"internalType":"address","name":"newOwner","type":"address"}],"name":"OwnershipTransferred","type":"event"},{"anonymous":false,"inputs":[{"indexed":true,"internalType":"uint256","name":"tokenId","type":"uint256"},{"indexed":false,"internalType":"uint256","name":"matchId","type":"uint256"},{"indexed":false,"internalType":"string","name":"score","type":"string"},{"indexed":false,"internalType":"uint256","name":"odds","type":"uint256"},{"indexed":false,"internalType":"uint256","name":"saleEndTime","type":"uint256"}],"name":"ScoreNFTAdded","type":"event"},{"anonymous":false,"inputs":[{"indexed":true,"internalType":"address","name":"operator","type":"address"},{"indexed":true,"internalType":"address","name":"from","type":"address"},{"indexed":true,"internalType":"address","name":"to","type":"address"},{"indexed":false,"internalType":"uint256[]","name":"ids","type":"uint256[]"},{"indexed":false,"internalType":"uint256[]","name":"values","type":"uint256[]"}],"name":"TransferBatch","type":"event"},{"anonymous":false,"inputs":[{"indexed":true,"internalType":"address","name":"operator","type":"address"},{"indexed":true,"internalType":"address","name":"from","type":"address"},{"indexed":true,"internalType":"address","name":"to","type":"address"},{"indexed":false,"internalType":"uint256","name":"id","type":"uint256"},{"indexed":false,"internalType":"uint256","name":"value","type":"uint256"}],"name":"TransferSingle","type":"event"},{"anonymous":false,"inputs":[{"indexed":false,"internalType":"string","name":"value","type":"string"},{"indexed":true,"internalType":"uint256","name":"id","type":"uint256"}],"name":"URI","type":"event"},{"anonymous":false,"inputs":[{"indexed":true,"internalType":"address","name":"to","type":"address"},{"indexed":false,"internalType":"uint256","name":"amount","type":"uint256"}],"name":"USDCWithdrawn","type":"event"},{"inputs":[],"name":"FEE_DENOMINATOR","outputs":[{"internalType":"uint256","name":"","type":"uint256"}],"stateMutability":"view","type":"function"},{"inputs":[],"name":"NFT_PRICE","outputs":[{"internalType":"uint256","name":"","type":"uint256"}],"stateMutability":"view","type":"function"},{"inputs":[{"internalType":"uint256","name":"tokenId","type":"uint256"},{"internalType":"uint256","name":"matchId","type":"uint256"},{"internalType":"string","name":"score","type":"string"},{"internalType":"uint256","name":"odds","type":"uint256"},{"internalType":"uint256","name":"saleEndTime","type":"uint256"}],"name":"addScoreNFT","outputs":[],"stateMutability":"nonpayable","type":"function"},{"inputs":[{"internalType":"address","name":"account","type":"address"},{"internalType":"uint256","name":"id","type":"uint256"}],"name":"balanceOf","outputs":[{"internalType":"uint256","name":"","type":"uint256"}],"stateMutability":"view","type":"function"},{"inputs":[{"internalType":"address[]","name":"accounts","type":"address[]"},{"internalType":"uint256[]","name":"ids","type":"uint256[]"}],"name":"balanceOfBatch","outputs":[{"internalType":"uint256[]","name":"","type":"uint256[]"}],"stateMutability":"view","type":"function"},{"inputs":[{"internalType":"uint256","name":"orderId","type":"uint256"},{"internalType":"uint256","name":"amount","type":"uint256"}],"name":"buyOrder","outputs":[],"stateMutability":"nonpayable","type":"function"},{"inputs":[{"internalType":"uint256","name":"orderId","type":"uint256"}],"name":"cancelOrder","outputs":[],"stateMutability":"nonpayable","type":"function"},{"inputs":[{"internalType":"uint256","name":"tokenId","type":"uint256"}],"name":"closeMint","outputs":[],"stateMutability":"nonpayable","type":"function"},{"inputs":[{"internalType":"uint256","name":"tokenId","type":"uint256"},{"internalType":"uint256","name":"amount","type":"uint256"},{"internalType":"uint256","name":"pricePerNFT","type":"uint256"}],"name":"createOrder","outputs":[],"stateMutability":"nonpayable","type":"function"},{"inputs":[],"name":"feeBalance","outputs":[{"internalType":"uint256","name":"","type":"uint256"}],"stateMutability":"view","type":"function"},{"inputs":[],"name":"feeRate","outputs":[{"internalType":"uint256","name":"","type":"uint256"}],"stateMutability":"view","type":"function"},{"inputs":[{"internalType":"address","name":"account","type":"address"},{"internalType":"address","name":"operator","type":"address"}],"name":"isApprovedForAll","outputs":[{"internalType":"bool","name":"","type":"bool"}],"stateMutability":"view","type":"function"},{"inputs":[{"internalType":"uint256","name":"","type":"uint256"}],"name":"isMintable","outputs":[{"internalType":"bool","name":"","type":"bool"}],"stateMutability":"view","type":"function"},{"inputs":[{"internalType":"uint256","name":"tokenId","type":"uint256"},{"internalType":"uint256","name":"amount","type":"uint256"}],"name":"mint","outputs":[],"stateMutability":"nonpayable","type":"function"},{"inputs":[],"name":"nextOrderId","outputs":[{"internalType":"uint256","name":"","type":"uint256"}],"stateMutability":"view","type":"function"},{"inputs":[{"internalType":"address","name":"","type":"address"},{"internalType":"address","name":"","type":"address"},{"internalType":"uint256[]","name":"","type":"uint256[]"},{"internalType":"uint256[]","name":"","type":"uint256[]"},{"internalType":"bytes","name":"","type":"bytes"}],"name":"onERC1155BatchReceived","outputs":[{"internalType":"bytes4","name":"","type":"bytes4"}],"stateMutability":"pure","type":"function"},{"inputs":[{"internalType":"address","name":"","type":"address"},{"internalType":"address","name":"","type":"address"},{"internalType":"uint256","name":"","type":"uint256"},{"internalType":"uint256","name":"","type":"uint256"},{"internalType":"bytes","name":"","type":"bytes"}],"name":"onERC1155Received","outputs":[{"internalType":"bytes4","name":"","type":"bytes4"}],"stateMutability":"pure","type":"function"},{"inputs":[{"internalType":"uint256","name":"","type":"uint256"}],"name":"orders","outputs":[{"internalType":"address","name":"seller","type":"address"},{"internalType":"uint256","name":"tokenId","type":"uint256"},{"internalType":"uint256","name":"amount","type":"uint256"},{"internalType":"uint256","name":"pricePerNFT","type":"uint256"},{"internalType":"uint256","name":"remaining","type":"uint256"},{"internalType":"bool","name":"active","type":"bool"}],"stateMutability":"view","type":"function"},{"inputs":[],"name":"owner","outputs":[{"internalType":"address","name":"","type":"address"}],"stateMutability":"view","type":"function"},{"inputs":[],"name":"renounceOwnership","outputs":[],"stateMutability":"nonpayable","type":"function"},{"inputs":[{"internalType":"address","name":"from","type":"address"},{"internalType":"address","name":"to","type":"address"},{"internalType":"uint256[]","name":"ids","type":"uint256[]"},{"internalType":"uint256[]","name":"values","type":"uint256[]"},{"internalType":"bytes","name":"data","type":"bytes"}],"name":"safeBatchTransferFrom","outputs":[],"stateMutability":"nonpayable","type":"function"},{"inputs":[{"internalType":"address","name":"from","type":"address"},{"internalType":"address","name":"to","type":"address"},{"internalType":"uint256","name":"id","type":"uint256"},{"internalType":"uint256","name":"value","type":"uint256"},{"internalType":"bytes","name":"data","type":"bytes"}],"name":"safeTransferFrom","outputs":[],"stateMutability":"nonpayable","type":"function"},{"inputs":[{"internalType":"uint256","name":"","type":"uint256"}],"name":"scoreInfos","outputs":[{"internalType":"uint256","name":"matchId","type":"uint256"},{"internalType":"string","name":"score","type":"string"},{"internalType":"uint256","name":"odds","type":"uint256"},{"internalType":"uint256","name":"saleEndTime","type":"uint256"},{"internalType":"bool","name":"exists","type":"bool"}],"stateMutability":"view","type":"function"},{"inputs":[{"internalType":"address","name":"operator","type":"address"},{"internalType":"bool","name":"approved","type":"bool"}],"name":"setApprovalForAll","outputs":[],"stateMutability":"nonpayable","type":"function"},{"inputs":[{"internalType":"uint256","name":"newFeeRate","type":"uint256"}],"name":"setFeeRate","outputs":[],"stateMutability":"nonpayable","type":"function"},{"inputs":[{"internalType":"bytes4","name":"interfaceId","type":"bytes4"}],"name":"supportsInterface","outputs":[{"internalType":"bool","name":"","type":"bool"}],"stateMutability":"view","type":"function"},{"inputs":[{"internalType":"address","name":"newOwner","type":"address"}],"name":"transferOwnership","outputs":[],"stateMutability":"nonpayable","type":"function"},{"inputs":[{"internalType":"uint256","name":"","type":"uint256"}],"name":"uri","outputs":[{"internalType":"string","name":"","type":"string"}],"stateMutability":"view","type":"function"},{"inputs":[],"name":"usdc","outputs":[{"internalType":"contract IERC20","name":"","type":"address"}],"stateMutability":"view","type":"function"},{"inputs":[{"internalType":"address","name":"to","type":"address"}],"name":"withdrawFee","outputs":[],"stateMutability":"nonpayable","type":"function"},{"inputs":[{"internalType":"address","name":"to","type":"address"},{"internalType":"uint256","name":"amount","type":"uint256"}],"name":"withdrawUSDC","outputs":[],"stateMutability":"nonpayable","type":"function"}],"devdoc":{"errors":{"ERC1155InsufficientBalance(address,uint256,uint256,uint256)":[{"details":"Indicates an error related to the current `balance` of a `sender`. Used in transfers.","params":{"balance":"Current balance for the interacting account.","needed":"Minimum amount required to perform a transfer.","sender":"Address whose tokens are being transferred.","tokenId":"Identifier number of a token."}}],"ERC1155InvalidApprover(address)":[{"details":"Indicates a failure with the `approver` of a token to be approved. Used in approvals.","params":{"approver":"Address initiating an approval operation."}}],"ERC1155InvalidArrayLength(uint256,uint256)":[{"details":"Indicates an array length mismatch between ids and values in a safeBatchTransferFrom operation. Used in batch transfers.","params":{"idsLength":"Length of the array of token identifiers","valuesLength":"Length of the array of token amounts"}}],"ERC1155InvalidOperator(address)":[{"details":"Indicates a failure with the `operator` to be approved. Used in approvals.","params":{"operator":"Address that may be allowed to operate on tokens without being their owner."}}],"ERC1155InvalidReceiver(address)":[{"details":"Indicates a failure with the token `receiver`. Used in transfers.","params":{"receiver":"Address to which tokens are being transferred."}}],"ERC1155InvalidSender(address)":[{"details":"Indicates a failure with the token `sender`. Used in transfers.","params":{"sender":"Address whose tokens are being transferred."}}],"ERC1155MissingApprovalForAll(address,address)":[{"details":"Indicates a failure with the `operator`’s approval. Used in transfers.","params":{"operator":"Address that may be allowed to operate on tokens without being their owner.","owner":"Address of the current owner of a token."}}],"OwnableInvalidOwner(address)":[{"details":"The owner is not a valid owner account. (eg. `address(0)`)"}],"OwnableUnauthorizedAccount(address)":[{"details":"The caller account is not authorized to perform an operation."}]},"events":{"ApprovalForAll(address,address,bool)":{"details":"Emitted when `account` grants or revokes permission to `operator` to transfer their tokens, according to `approved`."},"TransferBatch(address,address,address,uint256[],uint256[])":{"details":"Equivalent to multiple {TransferSingle} events, where `operator`, `from` and `to` are the same for all transfers."},"TransferSingle(address,address,address,uint256,uint256)":{"details":"Emitted when `value` amount of tokens of type `id` are transferred from `from` to `to` by `operator`."},"URI(string,uint256)":{"details":"Emitted when the URI for token type `id` changes to `value`, if it is a non-programmatic URI. If an {URI} event was emitted for `id`, the standard https://eips.ethereum.org/EIPS/eip-1155#metadata-extensions[guarantees] that `value` will equal the value returned by {IERC1155MetadataURI-uri}."}},"kind":"dev","methods":{"balanceOf(address,uint256)":{"details":"Returns the value of tokens of token type `id` owned by `account`."},"balanceOfBatch(address[],uint256[])":{"details":"See {IERC1155-balanceOfBatch}. Requirements: - `accounts` and `ids` must have the same length."},"isApprovedForAll(address,address)":{"details":"Returns true if `operator` is approved to transfer ``account``'s tokens. See {setApprovalForAll}."},"owner()":{"details":"Returns the address of the current owner."},"renounceOwnership()":{"details":"Leaves the contract without owner. It will not be possible to call `onlyOwner` functions. Can only be called by the current owner. NOTE: Renouncing ownership will leave the contract without an owner, thereby disabling any functionality that is only available to the owner."},"safeBatchTransferFrom(address,address,uint256[],uint256[],bytes)":{"details":"xref:ROOT:erc1155.adoc#batch-operations[Batched] version of {safeTransferFrom}. WARNING: This function can potentially allow a reentrancy attack when transferring tokens to an untrusted contract, when invoking {IERC1155Receiver-onERC1155BatchReceived} on the receiver. Ensure to follow the checks-effects-interactions pattern and consider employing reentrancy guards when interacting with untrusted contracts. Emits either a {TransferSingle} or a {TransferBatch} event, depending on the length of the array arguments. Requirements: - `ids` and `values` must have the same length. - If `to` refers to a smart contract, it must implement {IERC1155Receiver-onERC1155BatchReceived} and return the acceptance magic value."},"safeTransferFrom(address,address,uint256,uint256,bytes)":{"details":"Transfers a `value` amount of tokens of type `id` from `from` to `to`. WARNING: This function can potentially allow a reentrancy attack when transferring tokens to an untrusted contract, when invoking {IERC1155Receiver-onERC1155Received} on the receiver. Ensure to follow the checks-effects-interactions pattern and consider employing reentrancy guards when interacting with untrusted contracts. Emits a {TransferSingle} event. Requirements: - `to` cannot be the zero address. - If the caller is not `from`, it must have been approved to spend ``from``'s tokens via {setApprovalForAll}. - `from` must have a balance of tokens of type `id` of at least `value` amount. - If `to` refers to a smart contract, it must implement {IERC1155Receiver-onERC1155Received} and return the acceptance magic value."},"setApprovalForAll(address,bool)":{"details":"Grants or revokes permission to `operator` to transfer the caller's tokens, according to `approved`, Emits an {ApprovalForAll} event. Requirements: - `operator` cannot be the zero address."},"supportsInterface(bytes4)":{"details":"Returns true if this contract implements the interface defined by `interfaceId`. See the corresponding https://eips.ethereum.org/EIPS/eip-165#how-interfaces-are-identified[ERC section] to learn more about how these ids are created. This function call must use less than 30 000 gas."},"transferOwnership(address)":{"details":"Transfers ownership of the contract to a new account (`newOwner`). Can only be called by the current owner."},"uri(uint256)":{"details":"See {IERC1155MetadataURI-uri}. This implementation returns the same URI for *all* token types. It relies on the token type ID substitution mechanism https://eips.ethereum.org/EIPS/eip-1155#metadata[defined in the ERC]. Clients calling this function must replace the `\\{id\\}` substring with the actual token type ID."}},"version":1},"evm":{"bytecode":{"linkReferences":{},"object":"608060405260646005553480156200001657600080fd5b5060405162002b3738038062002b37833981016040819052620000399162000140565b33826200004681620000a9565b506001600160a01b0381166200007657604051631e4fbdf760e01b81526000600482015260240160405180910390fd5b6200008181620000bb565b50600480546001600160a01b0319166001600160a01b03929092169190911790555062000383565b6002620000b78282620002b7565b5050565b600380546001600160a01b038381166001600160a01b0319831681179093556040519116919082907f8be0079c531659141344cd1fd0a4f28419497f9722a3daafe3b4186f6b6457e090600090a35050565b634e487b7160e01b600052604160045260246000fd5b80516001600160a01b03811681146200013b57600080fd5b919050565b600080604083850312156200015457600080fd5b82516001600160401b03808211156200016c57600080fd5b818501915085601f8301126200018157600080fd5b8151818111156200019657620001966200010d565b604051601f8201601f19908116603f01168101908382118183101715620001c157620001c16200010d565b81604052828152602093508884848701011115620001de57600080fd5b600091505b82821015620002025784820184015181830185015290830190620001e3565b60008484830101528096505050506200021d81860162000123565b925050509250929050565b600181811c908216806200023d57607f821691505b6020821081036200025e57634e487b7160e01b600052602260045260246000fd5b50919050565b601f821115620002b257600081815260208120601f850160051c810160208610156200028d5750805b601f850160051c820191505b81811015620002ae5782815560010162000299565b5050505b505050565b81516001600160401b03811115620002d357620002d36200010d565b620002eb81620002e4845462000228565b8462000264565b602080601f8311600181146200032357600084156200030a5750858301515b600019600386901b1c1916600185901b178555620002ae565b600085815260208120601f198616915b82811015620003545788860151825594840194600190910190840162000333565b5085821015620003735787850151600019600388901b60f8161c191681555b5050505050600190811b01905550565b6127a480620003936000396000f3fe608060405234801561001057600080fd5b50600436106101e45760003560e01c806360b71d4e1161010f578063a85c38ef116100a2578063e985e9c511610071578063e985e9c5146104c2578063f23a6e61146104d5578063f242432a146104f5578063f2fde38b1461050857600080fd5b8063a85c38ef146103e2578063bc197c811461046b578063c68ac6b0146104a6578063d73792a9146104b957600080fd5b80638da5cb5b116100de5780638da5cb5b146103a2578063978bbdb9146103b3578063a1ba444d146103bc578063a22cb465146103cf57600080fd5b806360b71d4e146103635780636646300e1461036c578063676dd56314610390578063715018a61461039a57600080fd5b80632c9751fb1161018757806345596e2e1161015657806345596e2e146102fa5780634e1273f41461030d578063514fcac71461032d5780635b31cb361461034057600080fd5b80632c9751fb146102965780632eb2c2d6146102a95780633e413bee146102bc57806344471fd9146102e757600080fd5b8063142ee8d8116101c3578063142ee8d8146102525780631ac3ddeb146102675780631b2ef1ca1461027a5780632a58b3301461028d57600080fd5b8062fdd58e146101e957806301ffc9a71461020f5780630e89341c14610232575b600080fd5b6101fc6101f7366004611c82565b61051b565b6040519081526020015b60405180910390f35b61022261021d366004611cc2565b610543565b6040519015158152602001610206565b610245610240366004611ce6565b610593565b6040516102069190611d45565b610265610260366004611d58565b610627565b005b610265610275366004611d7a565b610922565b610265610288366004611d58565b610a4b565b6101fc600a5481565b6102656102a4366004611e32565b610be9565b6102656102b7366004611f55565b610d20565b6004546102cf906001600160a01b031681565b6040516001600160a01b039091168152602001610206565b6102656102f5366004611c82565b610d87565b610265610308366004611ce6565b610f2a565b61032061031b366004611ffe565b610fae565b60405161020691906120f8565b61026561033b366004611ce6565b611082565b61022261034e366004611ce6565b60086020526000908152604090205460ff1681565b6101fc60065481565b61037f61037a366004611ce6565b6111ca565b60405161020695949392919061210b565b6101fc620186a081565b610265611286565b6003546001600160a01b03166102cf565b6101fc60055481565b6102656103ca366004612143565b61129a565b6102656103dd36600461217d565b611486565b6104326103f0366004611ce6565b6009602052600090815260409020805460018201546002830154600384015460048501546005909501546001600160a01b039094169492939192909160ff1686565b604080516001600160a01b03909716875260208701959095529385019290925260608401526080830152151560a082015260c001610206565b61048d610479366004612240565b63bc197c8160e01b98975050505050505050565b6040516001600160e01b03199091168152602001610206565b6102656104b4366004611ce6565b611494565b6101fc61271081565b6102226104d03660046122fa565b6114b4565b61048d6104e336600461232d565b63f23a6e6160e01b9695505050505050565b6102656105033660046123a4565b6114e2565b610265610516366004611d7a565b611541565b6000818152602081815260408083206001600160a01b03861684529091529020545b92915050565b60006001600160e01b03198216636cdb3d1360e11b148061057457506001600160e01b031982166303a24d0760e21b145b8061053d57506301ffc9a760e01b6001600160e01b031983161461053d565b6060600280546105a290612408565b80601f01602080910402602001604051908101604052809291908181526020018280546105ce90612408565b801561061b5780601f106105f05761010080835404028352916020019161061b565b820191906000526020600020905b8154815290600101906020018083116105fe57829003601f168201915b50505050509050919050565b6000828152600960205260409020600581015460ff1661067f5760405162461bcd60e51b815260206004820152600e60248201526d4f7264657220696e61637469766560901b60448201526064015b60405180910390fd5b600082118015610693575080600401548211155b6106d05760405162461bcd60e51b815260206004820152600e60248201526d125b9d985b1a5908185b5bdd5b9d60921b6044820152606401610676565b60008282600301546106e29190612458565b90506000612710600554836106f79190612458565b610701919061246f565b9050600061070f8284612491565b600480546040516323b872dd60e01b81523392810192909252306024830152604482018690529192506001600160a01b03909116906323b872dd906064016020604051808303816000875af115801561076c573d6000803e3d6000fd5b505050506040513d601f19601f8201168201806040525081019061079091906124a4565b6107ac5760405162461bcd60e51b8152600401610676906124c1565b60048054855460405163a9059cbb60e01b81526001600160a01b039182169381019390935260248301849052169063a9059cbb906044016020604051808303816000875af1158015610802573d6000803e3d6000fd5b505050506040513d601f19601f8201168201806040525081019061082691906124a4565b61086a5760405162461bcd60e51b81526020600482015260156024820152741554d110c81d1bc81cd95b1b195c8819985a5b1959605a1b6044820152606401610676565b816006600082825461087c91906124ef565b925050819055506108a330338660010154886040518060200160405280600081525061157f565b848460040160008282546108b79190612491565b909155505060048401546000036108d55760058401805460ff191690555b6040805186815260208101859052908101839052339087907fa8f65fd2b9fdbcd24985d57d69c219e28bdb4d78ce4e83a5049ee8237d09310a9060600160405180910390a3505050505050565b61092a61160d565b6000600654116109655760405162461bcd60e51b81526020600482015260066024820152654e6f2066656560d01b6044820152606401610676565b6004805460065460405163a9059cbb60e01b81526001600160a01b0385811694820194909452602481019190915291169063a9059cbb906044016020604051808303816000875af11580156109be573d6000803e3d6000fd5b505050506040513d601f19601f820116820180604052508101906109e291906124a4565b6109fe5760405162461bcd60e51b8152600401610676906124c1565b806001600160a01b03167f78473f3f373f7673597f4f0fa5873cb4d375fea6d4339ad6b56dbd411513cb3f600654604051610a3b91815260200190565b60405180910390a2506000600655565b60008281526008602052604090205460ff16610a985760405162461bcd60e51b815260206004820152600c60248201526b4e6f74206d696e7461626c6560a01b6044820152606401610676565b6000828152600760205260409020600301544210610ae55760405162461bcd60e51b815260206004820152600a60248201526914d85b1948195b99195960b21b6044820152606401610676565b6000610af482620186a0612458565b600480546040516323b872dd60e01b81523392810192909252306024830152604482018390529192506001600160a01b03909116906323b872dd906064016020604051808303816000875af1158015610b51573d6000803e3d6000fd5b505050506040513d601f19601f82011682018060405250810190610b7591906124a4565b610b915760405162461bcd60e51b8152600401610676906124c1565b610bac3384846040518060200160405280600081525061163a565b604051828152839033907f4c209b5fc8ad50758f13e2e1088ba56a560dff690a1c6fef26394f4c03821c4f906020015b60405180910390a3505050565b610bf161160d565b60008581526007602052604090206004015460ff1615610c445760405162461bcd60e51b815260206004820152600e60248201526d546f6b656e49642065786973747360901b6044820152606401610676565b6040805160a08101825285815260208082018681528284018690526060830185905260016080840181905260008a81526007909352939091208251815590519192909190820190610c95908261254d565b506040828101516002830155606083015160038301556080909201516004909101805491151560ff1992831617905560008781526008602052829020805490911660011790555185907fd11f67d1dfcca01e5d22ed70e5b82c1dd51aeb7202dbdea1d476d15efc67981a90610d1190879087908790879061260c565b60405180910390a25050505050565b336001600160a01b0386168114801590610d415750610d3f86826114b4565b155b15610d725760405163711bec9160e11b81526001600160a01b03808316600483015287166024820152604401610676565b610d7f8686868686611697565b505050505050565b610d8f61160d565b600654610d9c90826124ef565b600480546040516370a0823160e01b815230928101929092526001600160a01b0316906370a0823190602401602060405180830381865afa158015610de5573d6000803e3d6000fd5b505050506040513d601f19601f82011682018060405250810190610e099190612638565b1015610e4e5760405162461bcd60e51b8152602060048201526014602482015273496e73756666696369656e742062616c616e636560601b6044820152606401610676565b6004805460405163a9059cbb60e01b81526001600160a01b03858116938201939093526024810184905291169063a9059cbb906044016020604051808303816000875af1158015610ea3573d6000803e3d6000fd5b505050506040513d601f19601f82011682018060405250810190610ec791906124a4565b610ee35760405162461bcd60e51b8152600401610676906124c1565b816001600160a01b03167f2aa7fb97600ea702b454359fc3d02ae9fa48367e7155505d38cee896e5b5aae782604051610f1e91815260200190565b60405180910390a25050565b610f3261160d565b6103e8811115610f735760405162461bcd60e51b815260206004820152600c60248201526b08ccaca40e8dede40d0d2ced60a31b6044820152606401610676565b60058190556040518181527fdd72d2879718489eb363ba6099239f89d49542612862c71545503d35cfddda469060200160405180910390a150565b60608151835114610fdf5781518351604051635b05999160e01b815260048101929092526024820152604401610676565b600083516001600160401b03811115610ffa57610ffa611d95565b604051908082528060200260200182016040528015611023578160200160208202803683370190505b50905060005b845181101561107a5760208082028601015161104d9060208084028701015161051b565b82828151811061105f5761105f612651565b602090810291909101015261107381612667565b9050611029565b509392505050565b6000818152600960205260409020600581015460ff166110d55760405162461bcd60e51b815260206004820152600e60248201526d4f7264657220696e61637469766560901b6044820152606401610676565b80546001600160a01b0316331461111b5760405162461bcd60e51b815260206004820152600a6024820152692737ba1039b2b63632b960b11b6044820152606401610676565b600081600401541161115d5760405162461bcd60e51b815260206004820152600b60248201526a4f7264657220656d70747960a81b6044820152606401610676565b60048101805460058301805460ff1916905560009182905560018301546040805160208101909152928352909161119a913091339190859061157f565b60405183907f61b9399f2f0f32ca39ce8d7be32caed5ec22fe07a6daba3a467ed479ec60658290600090a2505050565b600760205260009081526040902080546001820180549192916111ec90612408565b80601f016020809104026020016040519081016040528092919081815260200182805461121890612408565b80156112655780601f1061123a57610100808354040283529160200191611265565b820191906000526020600020905b81548152906001019060200180831161124857829003601f168201915b50505050600283015460038401546004909401549293909290915060ff1685565b61128e61160d565b61129860006116fe565b565b816112a5338561051b565b10156112f35760405162461bcd60e51b815260206004820152601860248201527f496e73756666696369656e74204e46542062616c616e636500000000000000006044820152606401610676565b600082116113385760405162461bcd60e51b81526020600482015260126024820152710416d6f756e74206d757374206265203e20360741b6044820152606401610676565b6000811161137c5760405162461bcd60e51b815260206004820152601160248201527005072696365206d757374206265203e203607c1b6044820152606401610676565b61139833308585604051806020016040528060008152506114e2565b6040805160c0810182523380825260208083018781528385018781526060808601888152608087018a8152600160a08901818152600a8054600090815260098a528c90209a518b546001600160a01b0319166001600160a01b03909116178b559651918a0191909155935160028901559051600388015551600487015590516005909501805460ff1916951515959095179094555484518881529182018790529381018590529092917f92669f7499828c9972b3a5b6c0b107ca011f143600fd7b32517024d4a3d7ab28910160405180910390a3600a805490600061147c83612667565b9190505550505050565b6114908282611750565b5050565b61149c61160d565b6000908152600860205260409020805460ff19169055565b6001600160a01b03918216600090815260016020908152604080832093909416825291909152205460ff1690565b336001600160a01b0386168114801590611503575061150186826114b4565b155b156115345760405163711bec9160e11b81526001600160a01b03808316600483015287166024820152604401610676565b610d7f868686868661157f565b61154961160d565b6001600160a01b03811661157357604051631e4fbdf760e01b815260006004820152602401610676565b61157c816116fe565b50565b6001600160a01b0384166115a957604051632bfa23e760e11b815260006004820152602401610676565b6001600160a01b0385166115d257604051626a0d4560e21b815260006004820152602401610676565b60408051600180825260208201869052818301908152606082018590526080820190925290611604878784848761175b565b50505050505050565b6003546001600160a01b031633146112985760405163118cdaa760e01b8152336004820152602401610676565b6001600160a01b03841661166457604051632bfa23e760e11b815260006004820152602401610676565b60408051600180825260208201869052818301908152606082018590526080820190925290610d7f60008784848761175b565b6001600160a01b0384166116c157604051632bfa23e760e11b815260006004820152602401610676565b6001600160a01b0385166116ea57604051626a0d4560e21b815260006004820152602401610676565b6116f7858585858561175b565b5050505050565b600380546001600160a01b038381166001600160a01b0319831681179093556040519116919082907f8be0079c531659141344cd1fd0a4f28419497f9722a3daafe3b4186f6b6457e090600090a35050565b6114903383836117ae565b6117678585858561183c565b6001600160a01b038416156116f757825133906001036117a05760208481015190840151611799838989858589611a59565b5050610d7f565b610d7f818787878787611b7d565b6001600160a01b0382166117d75760405162ced3e160e81b815260006004820152602401610676565b6001600160a01b03838116600081815260016020908152604080832094871680845294825291829020805460ff191686151590811790915591519182527f17307eab39ab6107e8899845ad3d59bd9653f200f220920489ca2b5937696c319101610bdc565b805182511461186b5781518151604051635b05999160e01b815260048101929092526024820152604401610676565b3360005b835181101561197a576020818102858101820151908501909101516001600160a01b03881615611922576000828152602081815260408083206001600160a01b038c168452909152902054818110156118fb576040516303dee4c560e01b81526001600160a01b038a166004820152602481018290526044810183905260648101849052608401610676565b6000838152602081815260408083206001600160a01b038d16845290915290209082900390555b6001600160a01b03871615611967576000828152602081815260408083206001600160a01b038b168452909152812080548392906119619084906124ef565b90915550505b50508061197390612667565b905061186f565b5082516001036119fb5760208301516000906020840151909150856001600160a01b0316876001600160a01b0316846001600160a01b03167fc3d58168c5ae7397731d063d5bbf3d657854427343f4c083240f7aacaa2d0f6285856040516119ec929190918252602082015260400190565b60405180910390a450506116f7565b836001600160a01b0316856001600160a01b0316826001600160a01b03167f4a39dc06d4c0dbc64b70af90fd698a233a518aa5d07e595d983b8c0526c8f7fb8686604051611a4a929190612680565b60405180910390a45050505050565b6001600160a01b0384163b15610d7f5760405163f23a6e6160e01b81526001600160a01b0385169063f23a6e6190611a9d90899089908890889088906004016126ae565b6020604051808303816000875af1925050508015611ad8575060408051601f3d908101601f19168201909252611ad5918101906126f3565b60015b611b41573d808015611b06576040519150601f19603f3d011682016040523d82523d6000602084013e611b0b565b606091505b508051600003611b3957604051632bfa23e760e11b81526001600160a01b0386166004820152602401610676565b805160208201fd5b6001600160e01b0319811663f23a6e6160e01b1461160457604051632bfa23e760e11b81526001600160a01b0386166004820152602401610676565b6001600160a01b0384163b15610d7f5760405163bc197c8160e01b81526001600160a01b0385169063bc197c8190611bc19089908990889088908890600401612710565b6020604051808303816000875af1925050508015611bfc575060408051601f3d908101601f19168201909252611bf9918101906126f3565b60015b611c2a573d808015611b06576040519150601f19603f3d011682016040523d82523d6000602084013e611b0b565b6001600160e01b0319811663bc197c8160e01b1461160457604051632bfa23e760e11b81526001600160a01b0386166004820152602401610676565b80356001600160a01b0381168114611c7d57600080fd5b919050565b60008060408385031215611c9557600080fd5b611c9e83611c66565b946020939093013593505050565b6001600160e01b03198116811461157c57600080fd5b600060208284031215611cd457600080fd5b8135611cdf81611cac565b9392505050565b600060208284031215611cf857600080fd5b5035919050565b6000815180845260005b81811015611d2557602081850181015186830182015201611d09565b506000602082860101526020601f19601f83011685010191505092915050565b602081526000611cdf6020830184611cff565b60008060408385031215611d6b57600080fd5b50508035926020909101359150565b600060208284031215611d8c57600080fd5b611cdf82611c66565b634e487b7160e01b600052604160045260246000fd5b604051601f8201601f191681016001600160401b0381118282101715611dd357611dd3611d95565b604052919050565b60006001600160401b03831115611df457611df4611d95565b611e07601f8401601f1916602001611dab565b9050828152838383011115611e1b57600080fd5b828260208301376000602084830101529392505050565b600080600080600060a08688031215611e4a57600080fd5b853594506020860135935060408601356001600160401b03811115611e6e57600080fd5b8601601f81018813611e7f57600080fd5b611e8e88823560208401611ddb565b9598949750949560608101359550608001359392505050565b60006001600160401b03821115611ec057611ec0611d95565b5060051b60200190565b600082601f830112611edb57600080fd5b81356020611ef0611eeb83611ea7565b611dab565b82815260059290921b84018101918181019086841115611f0f57600080fd5b8286015b84811015611f2a5780358352918301918301611f13565b509695505050505050565b600082601f830112611f4657600080fd5b611cdf83833560208501611ddb565b600080600080600060a08688031215611f6d57600080fd5b611f7686611c66565b9450611f8460208701611c66565b935060408601356001600160401b0380821115611fa057600080fd5b611fac89838a01611eca565b94506060880135915080821115611fc257600080fd5b611fce89838a01611eca565b93506080880135915080821115611fe457600080fd5b50611ff188828901611f35565b9150509295509295909350565b6000806040838503121561201157600080fd5b82356001600160401b038082111561202857600080fd5b818501915085601f83011261203c57600080fd5b8135602061204c611eeb83611ea7565b82815260059290921b8401810191818101908984111561206b57600080fd5b948201945b838610156120905761208186611c66565b82529482019490820190612070565b965050860135925050808211156120a657600080fd5b506120b385828601611eca565b9150509250929050565b600081518084526020808501945080840160005b838110156120ed578151875295820195908201906001016120d1565b509495945050505050565b602081526000611cdf60208301846120bd565b85815260a06020820152600061212460a0830187611cff565b6040830195909552506060810192909252151560809091015292915050565b60008060006060848603121561215857600080fd5b505081359360208301359350604090920135919050565b801515811461157c57600080fd5b6000806040838503121561219057600080fd5b61219983611c66565b915060208301356121a98161216f565b809150509250929050565b60008083601f8401126121c657600080fd5b5081356001600160401b038111156121dd57600080fd5b6020830191508360208260051b85010111156121f857600080fd5b9250929050565b60008083601f84011261221157600080fd5b5081356001600160401b0381111561222857600080fd5b6020830191508360208285010111156121f857600080fd5b60008060008060008060008060a0898b03121561225c57600080fd5b61226589611c66565b975061227360208a01611c66565b965060408901356001600160401b038082111561228f57600080fd5b61229b8c838d016121b4565b909850965060608b01359150808211156122b457600080fd5b6122c08c838d016121b4565b909650945060808b01359150808211156122d957600080fd5b506122e68b828c016121ff565b999c989b5096995094979396929594505050565b6000806040838503121561230d57600080fd5b61231683611c66565b915061232460208401611c66565b90509250929050565b60008060008060008060a0878903121561234657600080fd5b61234f87611c66565b955061235d60208801611c66565b9450604087013593506060870135925060808701356001600160401b0381111561238657600080fd5b61239289828a016121ff565b979a9699509497509295939492505050565b600080600080600060a086880312156123bc57600080fd5b6123c586611c66565b94506123d360208701611c66565b9350604086013592506060860135915060808601356001600160401b038111156123fc57600080fd5b611ff188828901611f35565b600181811c9082168061241c57607f821691505b60208210810361243c57634e487b7160e01b600052602260045260246000fd5b50919050565b634e487b7160e01b600052601160045260246000fd5b808202811582820484141761053d5761053d612442565b60008261248c57634e487b7160e01b600052601260045260246000fd5b500490565b8181038181111561053d5761053d612442565b6000602082840312156124b657600080fd5b8151611cdf8161216f565b6020808252601490820152731554d110c81d1c985b9cd9995c8819985a5b195960621b604082015260600190565b8082018082111561053d5761053d612442565b601f82111561254857600081815260208120601f850160051c810160208610156125295750805b601f850160051c820191505b81811015610d7f57828155600101612535565b505050565b81516001600160401b0381111561256657612566611d95565b61257a816125748454612408565b84612502565b602080601f8311600181146125af57600084156125975750858301515b600019600386901b1c1916600185901b178555610d7f565b600085815260208120601f198616915b828110156125de578886015182559484019460019091019084016125bf565b50858210156125fc5787850151600019600388901b60f8161c191681555b5050505050600190811b01905550565b8481526080602082015260006126256080830186611cff565b6040830194909452506060015292915050565b60006020828403121561264a57600080fd5b5051919050565b634e487b7160e01b600052603260045260246000fd5b60006001820161267957612679612442565b5060010190565b60408152600061269360408301856120bd565b82810360208401526126a581856120bd565b95945050505050565b6001600160a01b03868116825285166020820152604081018490526060810183905260a0608082018190526000906126e890830184611cff565b979650505050505050565b60006020828403121561270557600080fd5b8151611cdf81611cac565b6001600160a01b0386811682528516602082015260a06040820181905260009061273c908301866120bd565b828103606084015261274e81866120bd565b905082810360808401526127628185611cff565b9897505050505050505056fea2646970667358221220205cbd4666c379d11dcb6f64677720e80f6e56370026f52b53785ba827e2958764736f6c63430008140033","opcodes":"PUSH1 0x80 PUSH1 0x40 MSTORE PUSH1 0x64 PUSH1 0x5 SSTORE CALLVALUE DUP1 ISZERO PUSH3 0x16 JUMPI PUSH1 0x0 DUP1 REVERT JUMPDEST POP PUSH1 0x40 MLOAD PUSH3 0x2B37 CODESIZE SUB DUP1 PUSH3 0x2B37 DUP4 CODECOPY DUP2 ADD PUSH1 0x40 DUP2 SWAP1 MSTORE PUSH3 0x39 SWAP2 PUSH3 0x140 JUMP JUMPDEST CALLER DUP3 PUSH3 0x46 DUP2 PUSH3 0xA9 JUMP JUMPDEST POP PUSH1 0x1 PUSH1 0x1 PUSH1 0xA0 SHL SUB DUP2 AND PUSH3 0x76 JUMPI PUSH1 0x40 MLOAD PUSH4 0x1E4FBDF7 PUSH1 0xE0 SHL DUP2 MSTORE PUSH1 0x0 PUSH1 0x4 DUP3 ADD MSTORE PUSH1 0x24 ADD PUSH1 0x40 MLOAD DUP1 SWAP2 SUB SWAP1 REVERT JUMPDEST PUSH3 0x81 DUP2 PUSH3 0xBB JUMP JUMPDEST POP PUSH1 0x4 DUP1 SLOAD PUSH1 0x1 PUSH1 0x1 PUSH1 0xA0 SHL SUB NOT AND PUSH1 0x1 PUSH1 0x1 PUSH1 0xA0 SHL SUB SWAP3 SWAP1 SWAP3 AND SWAP2 SWAP1 SWAP2 OR SWAP1 SSTORE POP PUSH3 0x383 JUMP JUMPDEST PUSH1 0x2 PUSH3 0xB7 DUP3 DUP3 PUSH3 0x2B7 JUMP JUMPDEST POP POP JUMP JUMPDEST PUSH1 0x3 DUP1 SLOAD PUSH1 0x1 PUSH1 0x1 PUSH1 0xA0 SHL SUB DUP4 DUP2 AND PUSH1 0x1 PUSH1 0x1 PUSH1 0xA0 SHL SUB NOT DUP4 AND DUP2 OR SWAP1 SWAP4 SSTORE PUSH1 0x40 MLOAD SWAP2 AND SWAP2 SWAP1 DUP3 SWAP1 PUSH32 0x8BE0079C531659141344CD1FD0A4F28419497F9722A3DAAFE3B4186F6B6457E0 SWAP1 PUSH1 0x0 SWAP1 LOG3 POP POP JUMP JUMPDEST PUSH4 0x4E487B71 PUSH1 0xE0 SHL PUSH1 0x0 MSTORE PUSH1 0x41 PUSH1 0x4 MSTORE PUSH1 0x24 PUSH1 0x0 REVERT JUMPDEST DUP1 MLOAD PUSH1 0x1 PUSH1 0x1 PUSH1 0xA0 SHL SUB DUP2 AND DUP2 EQ PUSH3 0x13B JUMPI PUSH1 0x0 DUP1 REVERT JUMPDEST SWAP2 SWAP1 POP JUMP JUMPDEST PUSH1 0x0 DUP1 PUSH1 0x40 DUP4 DUP6 SUB SLT ISZERO PUSH3 0x154 JUMPI PUSH1 0x0 DUP1 REVERT JUMPDEST DUP3 MLOAD PUSH1 0x1 PUSH1 0x1 PUSH1 0x40 SHL SUB DUP1 DUP3 GT ISZERO PUSH3 0x16C JUMPI PUSH1 0x0 DUP1 REVERT JUMPDEST DUP2 DUP6 ADD SWAP2 POP DUP6 PUSH1 0x1F DUP4 ADD SLT PUSH3 0x181 JUMPI PUSH1 0x0 DUP1 REVERT JUMPDEST DUP2 MLOAD DUP2 DUP2 GT ISZERO PUSH3 0x196 JUMPI PUSH3 0x196 PUSH3 0x10D JUMP JUMPDEST PUSH1 0x40 MLOAD PUSH1 0x1F DUP3 ADD PUSH1 0x1F NOT SWAP1 DUP2 AND PUSH1 0x3F ADD AND DUP2 ADD SWAP1 DUP4 DUP3 GT DUP2 DUP4 LT OR ISZERO PUSH3 0x1C1 JUMPI PUSH3 0x1C1 PUSH3 0x10D JUMP JUMPDEST DUP2 PUSH1 0x40 MSTORE DUP3 DUP2 MSTORE PUSH1 0x20 SWAP4 POP DUP9 DUP5 DUP5 DUP8 ADD ADD GT ISZERO PUSH3 0x1DE JUMPI PUSH1 0x0 DUP1 REVERT JUMPDEST PUSH1 0x0 SWAP2 POP JUMPDEST DUP3 DUP3 LT ISZERO PUSH3 0x202 JUMPI DUP5 DUP3 ADD DUP5 ADD MLOAD DUP2 DUP4 ADD DUP6 ADD MSTORE SWAP1 DUP4 ADD SWAP1 PUSH3 0x1E3 JUMP JUMPDEST PUSH1 0x0 DUP5 DUP5 DUP4 ADD ADD MSTORE DUP1 SWAP7 POP POP POP POP PUSH3 0x21D DUP2 DUP7 ADD PUSH3 0x123 JUMP JUMPDEST SWAP3 POP POP POP SWAP3 POP SWAP3 SWAP1 POP JUMP JUMPDEST PUSH1 0x1 DUP2 DUP2 SHR SWAP1 DUP3 AND DUP1 PUSH3 0x23D JUMPI PUSH1 0x7F DUP3 AND SWAP2 POP JUMPDEST PUSH1 0x20 DUP3 LT DUP2 SUB PUSH3 0x25E JUMPI PUSH4 0x4E487B71 PUSH1 0xE0 SHL PUSH1 0x0 MSTORE PUSH1 0x22 PUSH1 0x4 MSTORE PUSH1 0x24 PUSH1 0x0 REVERT JUMPDEST POP SWAP2 SWAP1 POP JUMP JUMPDEST PUSH1 0x1F DUP3 GT ISZERO PUSH3 0x2B2 JUMPI PUSH1 0x0 DUP2 DUP2 MSTORE PUSH1 0x20 DUP2 KECCAK256 PUSH1 0x1F DUP6 ADD PUSH1 0x5 SHR DUP2 ADD PUSH1 0x20 DUP7 LT ISZERO PUSH3 0x28D JUMPI POP DUP1 JUMPDEST PUSH1 0x1F DUP6 ADD PUSH1 0x5 SHR DUP3 ADD SWAP2 POP JUMPDEST DUP2 DUP2 LT ISZERO PUSH3 0x2AE JUMPI DUP3 DUP2 SSTORE PUSH1 0x1 ADD PUSH3 0x299 JUMP JUMPDEST POP POP POP JUMPDEST POP POP POP JUMP JUMPDEST DUP2 MLOAD PUSH1 0x1 PUSH1 0x1 PUSH1 0x40 SHL SUB DUP2 GT ISZERO PUSH3 0x2D3 JUMPI PUSH3 0x2D3 PUSH3 0x10D JUMP JUMPDEST PUSH3 0x2EB DUP2 PUSH3 0x2E4 DUP5 SLOAD PUSH3 0x228 JUMP JUMPDEST DUP5 PUSH3 0x264 JUMP JUMPDEST PUSH1 0x20 DUP1 PUSH1 0x1F DUP4 GT PUSH1 0x1 DUP2 EQ PUSH3 0x323 JUMPI PUSH1 0x0 DUP5 ISZERO PUSH3 0x30A JUMPI POP DUP6 DUP4 ADD MLOAD JUMPDEST PUSH1 0x0 NOT PUSH1 0x3 DUP7 SWAP1 SHL SHR NOT AND PUSH1 0x1 DUP6 SWAP1 SHL OR DUP6 SSTORE PUSH3 0x2AE JUMP JUMPDEST PUSH1 0x0 DUP6 DUP2 MSTORE PUSH1 0x20 DUP2 KECCAK256 PUSH1 0x1F NOT DUP7 AND SWAP2 JUMPDEST DUP3 DUP2 LT ISZERO PUSH3 0x354 JUMPI DUP9 DUP7 ADD MLOAD DUP3 SSTORE SWAP5 DUP5 ADD SWAP5 PUSH1 0x1 SWAP1 SWAP2 ADD SWAP1 DUP5 ADD PUSH3 0x333 JUMP JUMPDEST POP DUP6 DUP3 LT ISZERO PUSH3 0x373 JUMPI DUP8 DUP6 ADD MLOAD PUSH1 0x0 NOT PUSH1 0x3 DUP9 SWAP1 SHL PUSH1 0xF8 AND SHR NOT AND DUP2 SSTORE JUMPDEST POP POP POP POP POP PUSH1 0x1 SWAP1 DUP2 SHL ADD SWAP1 SSTORE POP JUMP JUMPDEST PUSH2 0x27A4 DUP1 PUSH3 0x393 PUSH1 0x0 CODECOPY PUSH1 0x0 RETURN INVALID PUSH1 0x80 PUSH1 0x40 MSTORE CALLVALUE DUP1 ISZERO PUSH2 0x10 JUMPI PUSH1 0x0 DUP1 REVERT JUMPDEST POP PUSH1 0x4 CALLDATASIZE LT PUSH2 0x1E4 JUMPI PUSH1 0x0 CALLDATALOAD PUSH1 0xE0 SHR DUP1 PUSH4 0x60B71D4E GT PUSH2 0x10F JUMPI DUP1 PUSH4 0xA85C38EF GT PUSH2 0xA2 JUMPI DUP1 PUSH4 0xE985E9C5 GT PUSH2 0x71 JUMPI DUP1 PUSH4 0xE985E9C5 EQ PUSH2 0x4C2 JUMPI DUP1 PUSH4 0xF23A6E61 EQ PUSH2 0x4D5 JUMPI DUP1 PUSH4 0xF242432A EQ PUSH2 0x4F5 JUMPI DUP1 PUSH4 0xF2FDE38B EQ PUSH2 0x508 JUMPI PUSH1 0x0 DUP1 REVERT JUMPDEST DUP1 PUSH4 0xA85C38EF EQ PUSH2 0x3E2 JUMPI DUP1 PUSH4 0xBC197C81 EQ PUSH2 0x46B JUMPI DUP1 PUSH4 0xC68AC6B0 EQ PUSH2 0x4A6 JUMPI DUP1 PUSH4 0xD73792A9 EQ PUSH2 0x4B9 JUMPI PUSH1 0x0 DUP1 REVERT JUMPDEST DUP1 PUSH4 0x8DA5CB5B GT PUSH2 0xDE JUMPI DUP1 PUSH4 0x8DA5CB5B EQ PUSH2 0x3A2 JUMPI DUP1 PUSH4 0x978BBDB9 EQ PUSH2 0x3B3 JUMPI DUP1 PUSH4 0xA1BA444D EQ PUSH2 0x3BC JUMPI DUP1 PUSH4 0xA22CB465 EQ PUSH2 0x3CF JUMPI PUSH1 0x0 DUP1 REVERT JUMPDEST DUP1 PUSH4 0x60B71D4E EQ PUSH2 0x363 JUMPI DUP1 PUSH4 0x6646300E EQ PUSH2 0x36C JUMPI DUP1 PUSH4 0x676DD563 EQ PUSH2 0x390 JUMPI DUP1 PUSH4 0x715018A6 EQ PUSH2 0x39A JUMPI PUSH1 0x0 DUP1 REVERT JUMPDEST DUP1 PUSH4 0x2C9751FB GT PUSH2 0x187 JUMPI DUP1 PUSH4 0x45596E2E GT PUSH2 0x156 JUMPI DUP1 PUSH4 0x45596E2E EQ PUSH2 0x2FA JUMPI DUP1 PUSH4 0x4E1273F4 EQ PUSH2 0x30D JUMPI DUP1 PUSH4 0x514FCAC7 EQ PUSH2 0x32D JUMPI DUP1 PUSH4 0x5B31CB36 EQ PUSH2 0x340 JUMPI PUSH1 0x0 DUP1 REVERT JUMPDEST DUP1 PUSH4 0x2C9751FB EQ PUSH2 0x296 JUMPI DUP1 PUSH4 0x2EB2C2D6 EQ PUSH2 0x2A9 JUMPI DUP1 PUSH4 0x3E413BEE EQ PUSH2 0x2BC JUMPI DUP1 PUSH4 0x44471FD9 EQ PUSH2 0x2E7 JUMPI PUSH1 0x0 DUP1 REVERT JUMPDEST DUP1 PUSH4 0x142EE8D8 GT PUSH2 0x1C3 JUMPI DUP1 PUSH4 0x142EE8D8 EQ PUSH2 0x252 JUMPI DUP1 PUSH4 0x1AC3DDEB EQ PUSH2 0x267 JUMPI DUP1 PUSH4 0x1B2EF1CA EQ PUSH2 0x27A JUMPI DUP1 PUSH4 0x2A58B330 EQ PUSH2 0x28D JUMPI PUSH1 0x0 DUP1 REVERT JUMPDEST DUP1 PUSH3 0xFDD58E EQ PUSH2 0x1E9 JUMPI DUP1 PUSH4 0x1FFC9A7 EQ PUSH2 0x20F JUMPI DUP1 PUSH4 0xE89341C EQ PUSH2 0x232 JUMPI JUMPDEST PUSH1 0x0 DUP1 REVERT JUMPDEST PUSH2 0x1FC PUSH2 0x1F7 CALLDATASIZE PUSH1 0x4 PUSH2 0x1C82 JUMP JUMPDEST PUSH2 0x51B JUMP JUMPDEST PUSH1 0x40 MLOAD SWAP1 DUP2 MSTORE PUSH1 0x20 ADD JUMPDEST PUSH1 0x40 MLOAD DUP1 SWAP2 SUB SWAP1 RETURN JUMPDEST PUSH2 0x222 PUSH2 0x21D CALLDATASIZE PUSH1 0x4 PUSH2 0x1CC2 JUMP JUMPDEST PUSH2 0x543 JUMP JUMPDEST PUSH1 0x40 MLOAD SWAP1 ISZERO ISZERO DUP2 MSTORE PUSH1 0x20 ADD PUSH2 0x206 JUMP JUMPDEST PUSH2 0x245 PUSH2 0x240 CALLDATASIZE PUSH1 0x4 PUSH2 0x1CE6 JUMP JUMPDEST PUSH2 0x593 JUMP JUMPDEST PUSH1 0x40 MLOAD PUSH2 0x206 SWAP2 SWAP1 PUSH2 0x1D45 JUMP JUMPDEST PUSH2 0x265 PUSH2 0x260 CALLDATASIZE PUSH1 0x4 PUSH2 0x1D58 JUMP JUMPDEST PUSH2 0x627 JUMP JUMPDEST STOP JUMPDEST PUSH2 0x265 PUSH2 0x275 CALLDATASIZE PUSH1 0x4 PUSH2 0x1D7A JUMP JUMPDEST PUSH2 0x922 JUMP JUMPDEST PUSH2 0x265 PUSH2 0x288 CALLDATASIZE PUSH1 0x4 PUSH2 0x1D58 JUMP JUMPDEST PUSH2 0xA4B JUMP JUMPDEST PUSH2 0x1FC PUSH1 0xA SLOAD DUP2 JUMP JUMPDEST PUSH2 0x265 PUSH2 0x2A4 CALLDATASIZE PUSH1 0x4 PUSH2 0x1E32 JUMP JUMPDEST PUSH2 0xBE9 JUMP JUMPDEST PUSH2 0x265 PUSH2 0x2B7 CALLDATASIZE PUSH1 0x4 PUSH2 0x1F55 JUMP JUMPDEST PUSH2 0xD20 JUMP JUMPDEST PUSH1 0x4 SLOAD PUSH2 0x2CF SWAP1 PUSH1 0x1 PUSH1 0x1 PUSH1 0xA0 SHL SUB AND DUP2 JUMP JUMPDEST PUSH1 0x40 MLOAD PUSH1 0x1 PUSH1 0x1 PUSH1 0xA0 SHL SUB SWAP1 SWAP2 AND DUP2 MSTORE PUSH1 0x20 ADD PUSH2 0x206 JUMP JUMPDEST PUSH2 0x265 PUSH2 0x2F5 CALLDATASIZE PUSH1 0x4 PUSH2 0x1C82 JUMP JUMPDEST PUSH2 0xD87 JUMP JUMPDEST PUSH2 0x265 PUSH2 0x308 CALLDATASIZE PUSH1 0x4 PUSH2 0x1CE6 JUMP JUMPDEST PUSH2 0xF2A JUMP JUMPDEST PUSH2 0x320 PUSH2 0x31B CALLDATASIZE PUSH1 0x4 PUSH2 0x1FFE JUMP JUMPDEST PUSH2 0xFAE JUMP JUMPDEST PUSH1 0x40 MLOAD PUSH2 0x206 SWAP2 SWAP1 PUSH2 0x20F8 JUMP JUMPDEST PUSH2 0x265 PUSH2 0x33B CALLDATASIZE PUSH1 0x4 PUSH2 0x1CE6 JUMP JUMPDEST PUSH2 0x1082 JUMP JUMPDEST PUSH2 0x222 PUSH2 0x34E CALLDATASIZE PUSH1 0x4 PUSH2 0x1CE6 JUMP JUMPDEST PUSH1 0x8 PUSH1 0x20 MSTORE PUSH1 0x0 SWAP1 DUP2 MSTORE PUSH1 0x40 SWAP1 KECCAK256 SLOAD PUSH1 0xFF AND DUP2 JUMP JUMPDEST PUSH2 0x1FC PUSH1 0x6 SLOAD DUP2 JUMP JUMPDEST PUSH2 0x37F PUSH2 0x37A CALLDATASIZE PUSH1 0x4 PUSH2 0x1CE6 JUMP JUMPDEST PUSH2 0x11CA JUMP JUMPDEST PUSH1 0x40 MLOAD PUSH2 0x206 SWAP6 SWAP5 SWAP4 SWAP3 SWAP2 SWAP1 PUSH2 0x210B JUMP JUMPDEST PUSH2 0x1FC PUSH3 0x186A0 DUP2 JUMP JUMPDEST PUSH2 0x265 PUSH2 0x1286 JUMP JUMPDEST PUSH1 0x3 SLOAD PUSH1 0x1 PUSH1 0x1 PUSH1 0xA0 SHL SUB AND PUSH2 0x2CF JUMP JUMPDEST PUSH2 0x1FC PUSH1 0x5 SLOAD DUP2 JUMP JUMPDEST PUSH2 0x265 PUSH2 0x3CA CALLDATASIZE PUSH1 0x4 PUSH2 0x2143 JUMP JUMPDEST PUSH2 0x129A JUMP JUMPDEST PUSH2 0x265 PUSH2 0x3DD CALLDATASIZE PUSH1 0x4 PUSH2 0x217D JUMP JUMPDEST PUSH2 0x1486 JUMP JUMPDEST PUSH2 0x432 PUSH2 0x3F0 CALLDATASIZE PUSH1 0x4 PUSH2 0x1CE6 JUMP JUMPDEST PUSH1 0x9 PUSH1 0x20 MSTORE PUSH1 0x0 SWAP1 DUP2 MSTORE PUSH1 0x40 SWAP1 KECCAK256 DUP1 SLOAD PUSH1 0x1 DUP3 ADD SLOAD PUSH1 0x2 DUP4 ADD SLOAD PUSH1 0x3 DUP5 ADD SLOAD PUSH1 0x4 DUP6 ADD SLOAD PUSH1 0x5 SWAP1 SWAP6 ADD SLOAD PUSH1 0x1 PUSH1 0x1 PUSH1 0xA0 SHL SUB SWAP1 SWAP5 AND SWAP5 SWAP3 SWAP4 SWAP2 SWAP3 SWAP1 SWAP2 PUSH1 0xFF AND DUP7 JUMP JUMPDEST PUSH1 0x40 DUP1 MLOAD PUSH1 0x1 PUSH1 0x1 PUSH1 0xA0 SHL SUB SWAP1 SWAP8 AND DUP8 MSTORE PUSH1 0x20 DUP8 ADD SWAP6 SWAP1 SWAP6 MSTORE SWAP4 DUP6 ADD SWAP3 SWAP1 SWAP3 MSTORE PUSH1 0x60 DUP5 ADD MSTORE PUSH1 0x80 DUP4 ADD MSTORE ISZERO ISZERO PUSH1 0xA0 DUP3 ADD MSTORE PUSH1 0xC0 ADD PUSH2 0x206 JUMP JUMPDEST PUSH2 0x48D PUSH2 0x479 CALLDATASIZE PUSH1 0x4 PUSH2 0x2240 JUMP JUMPDEST PUSH4 0xBC197C81 PUSH1 0xE0 SHL SWAP9 SWAP8 POP POP POP POP POP POP POP POP JUMP JUMPDEST PUSH1 0x40 MLOAD PUSH1 0x1 PUSH1 0x1 PUSH1 0xE0 SHL SUB NOT SWAP1 SWAP2 AND DUP2 MSTORE PUSH1 0x20 ADD PUSH2 0x206 JUMP JUMPDEST PUSH2 0x265 PUSH2 0x4B4 CALLDATASIZE PUSH1 0x4 PUSH2 0x1CE6 JUMP JUMPDEST PUSH2 0x1494 JUMP JUMPDEST PUSH2 0x1FC PUSH2 0x2710 DUP2 JUMP JUMPDEST PUSH2 0x222 PUSH2 0x4D0 CALLDATASIZE PUSH1 0x4 PUSH2 0x22FA JUMP JUMPDEST PUSH2 0x14B4 JUMP JUMPDEST PUSH2 0x48D PUSH2 0x4E3 CALLDATASIZE PUSH1 0x4 PUSH2 0x232D JUMP JUMPDEST PUSH4 0xF23A6E61 PUSH1 0xE0 SHL SWAP7 SWAP6 POP POP POP POP POP POP JUMP JUMPDEST PUSH2 0x265 PUSH2 0x503 CALLDATASIZE PUSH1 0x4 PUSH2 0x23A4 JUMP JUMPDEST PUSH2 0x14E2 JUMP JUMPDEST PUSH2 0x265 PUSH2 0x516 CALLDATASIZE PUSH1 0x4 PUSH2 0x1D7A JUMP JUMPDEST PUSH2 0x1541 JUMP JUMPDEST PUSH1 0x0 DUP2 DUP2 MSTORE PUSH1 0x20 DUP2 DUP2 MSTORE PUSH1 0x40 DUP1 DUP4 KECCAK256 PUSH1 0x1 PUSH1 0x1 PUSH1 0xA0 SHL SUB DUP7 AND DUP5 MSTORE SWAP1 SWAP2 MSTORE SWAP1 KECCAK256 SLOAD JUMPDEST SWAP3 SWAP2 POP POP JUMP JUMPDEST PUSH1 0x0 PUSH1 0x1 PUSH1 0x1 PUSH1 0xE0 SHL SUB NOT DUP3 AND PUSH4 0x6CDB3D13 PUSH1 0xE1 SHL EQ DUP1 PUSH2 0x574 JUMPI POP PUSH1 0x1 PUSH1 0x1 PUSH1 0xE0 SHL SUB NOT DUP3 AND PUSH4 0x3A24D07 PUSH1 0xE2 SHL EQ JUMPDEST DUP1 PUSH2 0x53D JUMPI POP PUSH4 0x1FFC9A7 PUSH1 0xE0 SHL PUSH1 0x1 PUSH1 0x1 PUSH1 0xE0 SHL SUB NOT DUP4 AND EQ PUSH2 0x53D JUMP JUMPDEST PUSH1 0x60 PUSH1 0x2 DUP1 SLOAD PUSH2 0x5A2 SWAP1 PUSH2 0x2408 JUMP JUMPDEST DUP1 PUSH1 0x1F ADD PUSH1 0x20 DUP1 SWAP2 DIV MUL PUSH1 0x20 ADD PUSH1 0x40 MLOAD SWAP1 DUP2 ADD PUSH1 0x40 MSTORE DUP1 SWAP3 SWAP2 SWAP1 DUP2 DUP2 MSTORE PUSH1 0x20 ADD DUP3 DUP1 SLOAD PUSH2 0x5CE SWAP1 PUSH2 0x2408 JUMP JUMPDEST DUP1 ISZERO PUSH2 0x61B JUMPI DUP1 PUSH1 0x1F LT PUSH2 0x5F0 JUMPI PUSH2 0x100 DUP1 DUP4 SLOAD DIV MUL DUP4 MSTORE SWAP2 PUSH1 0x20 ADD SWAP2 PUSH2 0x61B JUMP JUMPDEST DUP3 ADD SWAP2 SWAP1 PUSH1 0x0 MSTORE PUSH1 0x20 PUSH1 0x0 KECCAK256 SWAP1 JUMPDEST DUP2 SLOAD DUP2 MSTORE SWAP1 PUSH1 0x1 ADD SWAP1 PUSH1 0x20 ADD DUP1 DUP4 GT PUSH2 0x5FE JUMPI DUP3 SWAP1 SUB PUSH1 0x1F AND DUP3 ADD SWAP2 JUMPDEST POP POP POP POP POP SWAP1 POP SWAP2 SWAP1 POP JUMP JUMPDEST PUSH1 0x0 DUP3 DUP2 MSTORE PUSH1 0x9 PUSH1 0x20 MSTORE PUSH1 0x40 SWAP1 KECCAK256 PUSH1 0x5 DUP2 ADD SLOAD PUSH1 0xFF AND PUSH2 0x67F JUMPI PUSH1 0x40 MLOAD PUSH3 0x461BCD PUSH1 0xE5 SHL DUP2 MSTORE PUSH1 0x20 PUSH1 0x4 DUP3 ADD MSTORE PUSH1 0xE PUSH1 0x24 DUP3 ADD MSTORE PUSH14 0x4F7264657220696E616374697665 PUSH1 0x90 SHL PUSH1 0x44 DUP3 ADD MSTORE PUSH1 0x64 ADD JUMPDEST PUSH1 0x40 MLOAD DUP1 SWAP2 SUB SWAP1 REVERT JUMPDEST PUSH1 0x0 DUP3 GT DUP1 ISZERO PUSH2 0x693 JUMPI POP DUP1 PUSH1 0x4 ADD SLOAD DUP3 GT ISZERO JUMPDEST PUSH2 0x6D0 JUMPI PUSH1 0x40 MLOAD PUSH3 0x461BCD PUSH1 0xE5 SHL DUP2 MSTORE PUSH1 0x20 PUSH1 0x4 DUP3 ADD MSTORE PUSH1 0xE PUSH1 0x24 DUP3 ADD MSTORE PUSH14 0x125B9D985B1A5908185B5BDD5B9D PUSH1 0x92 SHL PUSH1 0x44 DUP3 ADD MSTORE PUSH1 0x64 ADD PUSH2 0x676 JUMP JUMPDEST PUSH1 0x0 DUP3 DUP3 PUSH1 0x3 ADD SLOAD PUSH2 0x6E2 SWAP2 SWAP1 PUSH2 0x2458 JUMP JUMPDEST SWAP1 POP PUSH1 0x0 PUSH2 0x2710 PUSH1 0x5 SLOAD DUP4 PUSH2 0x6F7 SWAP2 SWAP1 PUSH2 0x2458 JUMP JUMPDEST PUSH2 0x701 SWAP2 SWAP1 PUSH2 0x246F JUMP JUMPDEST SWAP1 POP PUSH1 0x0 PUSH2 0x70F DUP3 DUP5 PUSH2 0x2491 JUMP JUMPDEST PUSH1 0x4 DUP1 SLOAD PUSH1 0x40 MLOAD PUSH4 0x23B872DD PUSH1 0xE0 SHL DUP2 MSTORE CALLER SWAP3 DUP2 ADD SWAP3 SWAP1 SWAP3 MSTORE ADDRESS PUSH1 0x24 DUP4 ADD MSTORE PUSH1 0x44 DUP3 ADD DUP7 SWAP1 MSTORE SWAP2 SWAP3 POP PUSH1 0x1 PUSH1 0x1 PUSH1 0xA0 SHL SUB SWAP1 SWAP2 AND SWAP1 PUSH4 0x23B872DD SWAP1 PUSH1 0x64 ADD PUSH1 0x20 PUSH1 0x40 MLOAD DUP1 DUP4 SUB DUP2 PUSH1 0x0 DUP8 GAS CALL ISZERO DUP1 ISZERO PUSH2 0x76C JUMPI RETURNDATASIZE PUSH1 0x0 DUP1 RETURNDATACOPY RETURNDATASIZE PUSH1 0x0 REVERT JUMPDEST POP POP POP POP PUSH1 0x40 MLOAD RETURNDATASIZE PUSH1 0x1F NOT PUSH1 0x1F DUP3 ADD AND DUP3 ADD DUP1 PUSH1 0x40 MSTORE POP DUP2 ADD SWAP1 PUSH2 0x790 SWAP2 SWAP1 PUSH2 0x24A4 JUMP JUMPDEST PUSH2 0x7AC JUMPI PUSH1 0x40 MLOAD PUSH3 0x461BCD PUSH1 0xE5 SHL DUP2 MSTORE PUSH1 0x4 ADD PUSH2 0x676 SWAP1 PUSH2 0x24C1 JUMP JUMPDEST PUSH1 0x4 DUP1 SLOAD DUP6 SLOAD PUSH1 0x40 MLOAD PUSH4 0xA9059CBB PUSH1 0xE0 SHL DUP2 MSTORE PUSH1 0x1 PUSH1 0x1 PUSH1 0xA0 SHL SUB SWAP2 DUP3 AND SWAP4 DUP2 ADD SWAP4 SWAP1 SWAP4 MSTORE PUSH1 0x24 DUP4 ADD DUP5 SWAP1 MSTORE AND SWAP1 PUSH4 0xA9059CBB SWAP1 PUSH1 0x44 ADD PUSH1 0x20 PUSH1 0x40 MLOAD DUP1 DUP4 SUB DUP2 PUSH1 0x0 DUP8 GAS CALL ISZERO DUP1 ISZERO PUSH2 0x802 JUMPI RETURNDATASIZE PUSH1 0x0 DUP1 RETURNDATACOPY RETURNDATASIZE PUSH1 0x0 REVERT JUMPDEST POP POP POP POP PUSH1 0x40 MLOAD RETURNDATASIZE PUSH1 0x1F NOT PUSH1 0x1F DUP3 ADD AND DUP3 ADD DUP1 PUSH1 0x40 MSTORE POP DUP2 ADD SWAP1 PUSH2 0x826 SWAP2 SWAP1 PUSH2 0x24A4 JUMP JUMPDEST PUSH2 0x86A JUMPI PUSH1 0x40 MLOAD PUSH3 0x461BCD PUSH1 0xE5 SHL DUP2 MSTORE PUSH1 0x20 PUSH1 0x4 DUP3 ADD MSTORE PUSH1 0x15 PUSH1 0x24 DUP3 ADD MSTORE PUSH21 0x1554D110C81D1BC81CD95B1B195C8819985A5B1959 PUSH1 0x5A SHL PUSH1 0x44 DUP3 ADD MSTORE PUSH1 0x64 ADD PUSH2 0x676 JUMP JUMPDEST DUP2 PUSH1 0x6 PUSH1 0x0 DUP3 DUP3 SLOAD PUSH2 0x87C SWAP2 SWAP1 PUSH2 0x24EF JUMP JUMPDEST SWAP3 POP POP DUP2 SWAP1 SSTORE POP PUSH2 0x8A3 ADDRESS CALLER DUP7 PUSH1 0x1 ADD SLOAD DUP9 PUSH1 0x40 MLOAD DUP1 PUSH1 0x20 ADD PUSH1 0x40 MSTORE DUP1 PUSH1 0x0 DUP2 MSTORE POP PUSH2 0x157F JUMP JUMPDEST DUP5 DUP5 PUSH1 0x4 ADD PUSH1 0x0 DUP3 DUP3 SLOAD PUSH2 0x8B7 SWAP2 SWAP1 PUSH2 0x2491 JUMP JUMPDEST SWAP1 SWAP2 SSTORE POP POP PUSH1 0x4 DUP5 ADD SLOAD PUSH1 0x0 SUB PUSH2 0x8D5 JUMPI PUSH1 0x5 DUP5 ADD DUP1 SLOAD PUSH1 0xFF NOT AND SWAP1 SSTORE JUMPDEST PUSH1 0x40 DUP1 MLOAD DUP7 DUP2 MSTORE PUSH1 0x20 DUP2 ADD DUP6 SWAP1 MSTORE SWAP1 DUP2 ADD DUP4 SWAP1 MSTORE CALLER SWAP1 DUP8 SWAP1 PUSH32 0xA8F65FD2B9FDBCD24985D57D69C219E28BDB4D78CE4E83A5049EE8237D09310A SWAP1 PUSH1 0x60 ADD PUSH1 0x40 MLOAD DUP1 SWAP2 SUB SWAP1 LOG3 POP POP POP POP POP POP JUMP JUMPDEST PUSH2 0x92A PUSH2 0x160D JUMP JUMPDEST PUSH1 0x0 PUSH1 0x6 SLOAD GT PUSH2 0x965 JUMPI PUSH1 0x40 MLOAD PUSH3 0x461BCD PUSH1 0xE5 SHL DUP2 MSTORE PUSH1 0x20 PUSH1 0x4 DUP3 ADD MSTORE PUSH1 0x6 PUSH1 0x24 DUP3 ADD MSTORE PUSH6 0x4E6F20666565 PUSH1 0xD0 SHL PUSH1 0x44 DUP3 ADD MSTORE PUSH1 0x64 ADD PUSH2 0x676 JUMP JUMPDEST PUSH1 0x4 DUP1 SLOAD PUSH1 0x6 SLOAD PUSH1 0x40 MLOAD PUSH4 0xA9059CBB PUSH1 0xE0 SHL DUP2 MSTORE PUSH1 0x1 PUSH1 0x1 PUSH1 0xA0 SHL SUB DUP6 DUP2 AND SWAP5 DUP3 ADD SWAP5 SWAP1 SWAP5 MSTORE PUSH1 0x24 DUP2 ADD SWAP2 SWAP1 SWAP2 MSTORE SWAP2 AND SWAP1 PUSH4 0xA9059CBB SWAP1 PUSH1 0x44 ADD PUSH1 0x20 PUSH1 0x40 MLOAD DUP1 DUP4 SUB DUP2 PUSH1 0x0 DUP8 GAS CALL ISZERO DUP1 ISZERO PUSH2 0x9BE JUMPI RETURNDATASIZE PUSH1 0x0 DUP1 RETURNDATACOPY RETURNDATASIZE PUSH1 0x0 REVERT JUMPDEST POP POP POP POP PUSH1 0x40 MLOAD RETURNDATASIZE PUSH1 0x1F NOT PUSH1 0x1F DUP3 ADD AND DUP3 ADD DUP1 PUSH1 0x40 MSTORE POP DUP2 ADD SWAP1 PUSH2 0x9E2 SWAP2 SWAP1 PUSH2 0x24A4 JUMP JUMPDEST PUSH2 0x9FE JUMPI PUSH1 0x40 MLOAD PUSH3 0x461BCD PUSH1 0xE5 SHL DUP2 MSTORE PUSH1 0x4 ADD PUSH2 0x676 SWAP1 PUSH2 0x24C1 JUMP JUMPDEST DUP1 PUSH1 0x1 PUSH1 0x1 PUSH1 0xA0 SHL SUB AND PUSH32 0x78473F3F373F7673597F4F0FA5873CB4D375FEA6D4339AD6B56DBD411513CB3F PUSH1 0x6 SLOAD PUSH1 0x40 MLOAD PUSH2 0xA3B SWAP2 DUP2 MSTORE PUSH1 0x20 ADD SWAP1 JUMP JUMPDEST PUSH1 0x40 MLOAD DUP1 SWAP2 SUB SWAP1 LOG2 POP PUSH1 0x0 PUSH1 0x6 SSTORE JUMP JUMPDEST PUSH1 0x0 DUP3 DUP2 MSTORE PUSH1 0x8 PUSH1 0x20 MSTORE PUSH1 0x40 SWAP1 KECCAK256 SLOAD PUSH1 0xFF AND PUSH2 0xA98 JUMPI PUSH1 0x40 MLOAD PUSH3 0x461BCD PUSH1 0xE5 SHL DUP2 MSTORE PUSH1 0x20 PUSH1 0x4 DUP3 ADD MSTORE PUSH1 0xC PUSH1 0x24 DUP3 ADD MSTORE PUSH12 0x4E6F74206D696E7461626C65 PUSH1 0xA0 SHL PUSH1 0x44 DUP3 ADD MSTORE PUSH1 0x64 ADD PUSH2 0x676 JUMP JUMPDEST PUSH1 0x0 DUP3 DUP2 MSTORE PUSH1 0x7 PUSH1 0x20 MSTORE PUSH1 0x40 SWAP1 KECCAK256 PUSH1 0x3 ADD SLOAD TIMESTAMP LT PUSH2 0xAE5 JUMPI PUSH1 0x40 MLOAD PUSH3 0x461BCD PUSH1 0xE5 SHL DUP2 MSTORE PUSH1 0x20 PUSH1 0x4 DUP3 ADD MSTORE PUSH1 0xA PUSH1 0x24 DUP3 ADD MSTORE PUSH10 0x14D85B1948195B991959 PUSH1 0xB2 SHL PUSH1 0x44 DUP3 ADD MSTORE PUSH1 0x64 ADD PUSH2 0x676 JUMP JUMPDEST PUSH1 0x0 PUSH2 0xAF4 DUP3 PUSH3 0x186A0 PUSH2 0x2458 JUMP JUMPDEST PUSH1 0x4 DUP1 SLOAD PUSH1 0x40 MLOAD PUSH4 0x23B872DD PUSH1 0xE0 SHL DUP2 MSTORE CALLER SWAP3 DUP2 ADD SWAP3 SWAP1 SWAP3 MSTORE ADDRESS PUSH1 0x24 DUP4 ADD MSTORE PUSH1 0x44 DUP3 ADD DUP4 SWAP1 MSTORE SWAP2 SWAP3 POP PUSH1 0x1 PUSH1 0x1 PUSH1 0xA0 SHL SUB SWAP1 SWAP2 AND SWAP1 PUSH4 0x23B872DD SWAP1 PUSH1 0x64 ADD PUSH1 0x20 PUSH1 0x40 MLOAD DUP1 DUP4 SUB DUP2 PUSH1 0x0 DUP8 GAS CALL ISZERO DUP1 ISZERO PUSH2 0xB51 JUMPI RETURNDATASIZE PUSH1 0x0 DUP1 RETURNDATACOPY RETURNDATASIZE PUSH1 0x0 REVERT JUMPDEST POP POP POP POP PUSH1 0x40 MLOAD RETURNDATASIZE PUSH1 0x1F NOT PUSH1 0x1F DUP3 ADD AND DUP3 ADD DUP1 PUSH1 0x40 MSTORE POP DUP2 ADD SWAP1 PUSH2 0xB75 SWAP2 SWAP1 PUSH2 0x24A4 JUMP JUMPDEST PUSH2 0xB91 JUMPI PUSH1 0x40 MLOAD PUSH3 0x461BCD PUSH1 0xE5 SHL DUP2 MSTORE PUSH1 0x4 ADD PUSH2 0x676 SWAP1 PUSH2 0x24C1 JUMP JUMPDEST PUSH2 0xBAC CALLER DUP5 DUP5 PUSH1 0x40 MLOAD DUP1 PUSH1 0x20 ADD PUSH1 0x40 MSTORE DUP1 PUSH1 0x0 DUP2 MSTORE POP PUSH2 0x163A JUMP JUMPDEST PUSH1 0x40 MLOAD DUP3 DUP2 MSTORE DUP4 SWAP1 CALLER SWAP1 PUSH32 0x4C209B5FC8AD50758F13E2E1088BA56A560DFF690A1C6FEF26394F4C03821C4F SWAP1 PUSH1 0x20 ADD JUMPDEST PUSH1 0x40 MLOAD DUP1 SWAP2 SUB SWAP1 LOG3 POP POP POP JUMP JUMPDEST PUSH2 0xBF1 PUSH2 0x160D JUMP JUMPDEST PUSH1 0x0 DUP6 DUP2 MSTORE PUSH1 0x7 PUSH1 0x20 MSTORE PUSH1 0x40 SWAP1 KECCAK256 PUSH1 0x4 ADD SLOAD PUSH1 0xFF AND ISZERO PUSH2 0xC44 JUMPI PUSH1 0x40 MLOAD PUSH3 0x461BCD PUSH1 0xE5 SHL DUP2 MSTORE PUSH1 0x20 PUSH1 0x4 DUP3 ADD MSTORE PUSH1 0xE PUSH1 0x24 DUP3 ADD MSTORE PUSH14 0x546F6B656E496420657869737473 PUSH1 0x90 SHL PUSH1 0x44 DUP3 ADD MSTORE PUSH1 0x64 ADD PUSH2 0x676 JUMP JUMPDEST PUSH1 0x40 DUP1 MLOAD PUSH1 0xA0 DUP2 ADD DUP3 MSTORE DUP6 DUP2 MSTORE PUSH1 0x20 DUP1 DUP3 ADD DUP7 DUP2 MSTORE DUP3 DUP5 ADD DUP7 SWAP1 MSTORE PUSH1 0x60 DUP4 ADD DUP6 SWAP1 MSTORE PUSH1 0x1 PUSH1 0x80 DUP5 ADD DUP2 SWAP1 MSTORE PUSH1 0x0 DUP11 DUP2 MSTORE PUSH1 0x7 SWAP1 SWAP4 MSTORE SWAP4 SWAP1 SWAP2 KECCAK256 DUP3 MLOAD DUP2 SSTORE SWAP1 MLOAD SWAP2 SWAP3 SWAP1 SWAP2 SWAP1 DUP3 ADD SWAP1 PUSH2 0xC95 SWAP1 DUP3 PUSH2 0x254D JUMP JUMPDEST POP PUSH1 0x40 DUP3 DUP2 ADD MLOAD PUSH1 0x2 DUP4 ADD SSTORE PUSH1 0x60 DUP4 ADD MLOAD PUSH1 0x3 DUP4 ADD SSTORE PUSH1 0x80 SWAP1 SWAP3 ADD MLOAD PUSH1 0x4 SWAP1 SWAP2 ADD DUP1 SLOAD SWAP2 ISZERO ISZERO PUSH1 0xFF NOT SWAP3 DUP4 AND OR SWAP1 SSTORE PUSH1 0x0 DUP8 DUP2 MSTORE PUSH1 0x8 PUSH1 0x20 MSTORE DUP3 SWAP1 KECCAK256 DUP1 SLOAD SWAP1 SWAP2 AND PUSH1 0x1 OR SWAP1 SSTORE MLOAD DUP6 SWAP1 PUSH32 0xD11F67D1DFCCA01E5D22ED70E5B82C1DD51AEB7202DBDEA1D476D15EFC67981A SWAP1 PUSH2 0xD11 SWAP1 DUP8 SWAP1 DUP8 SWAP1 DUP8 SWAP1 DUP8 SWAP1 PUSH2 0x260C JUMP JUMPDEST PUSH1 0x40 MLOAD DUP1 SWAP2 SUB SWAP1 LOG2 POP POP POP POP POP JUMP JUMPDEST CALLER PUSH1 0x1 PUSH1 0x1 PUSH1 0xA0 SHL SUB DUP7 AND DUP2 EQ DUP1 ISZERO SWAP1 PUSH2 0xD41 JUMPI POP PUSH2 0xD3F DUP7 DUP3 PUSH2 0x14B4 JUMP JUMPDEST ISZERO JUMPDEST ISZERO PUSH2 0xD72 JUMPI PUSH1 0x40 MLOAD PUSH4 0x711BEC91 PUSH1 0xE1 SHL DUP2 MSTORE PUSH1 0x1 PUSH1 0x1 PUSH1 0xA0 SHL SUB DUP1 DUP4 AND PUSH1 0x4 DUP4 ADD MSTORE DUP8 AND PUSH1 0x24 DUP3 ADD MSTORE PUSH1 0x44 ADD PUSH2 0x676 JUMP JUMPDEST PUSH2 0xD7F DUP7 DUP7 DUP7 DUP7 DUP7 PUSH2 0x1697 JUMP JUMPDEST POP POP POP POP POP POP JUMP JUMPDEST PUSH2 0xD8F PUSH2 0x160D JUMP JUMPDEST PUSH1 0x6 SLOAD PUSH2 0xD9C SWAP1 DUP3 PUSH2 0x24EF JUMP JUMPDEST PUSH1 0x4 DUP1 SLOAD PUSH1 0x40 MLOAD PUSH4 0x70A08231 PUSH1 0xE0 SHL DUP2 MSTORE ADDRESS SWAP3 DUP2 ADD SWAP3 SWAP1 SWAP3 MSTORE PUSH1 0x1 PUSH1 0x1 PUSH1 0xA0 SHL SUB AND SWAP1 PUSH4 0x70A08231 SWAP1 PUSH1 0x24 ADD PUSH1 0x20 PUSH1 0x40 MLOAD DUP1 DUP4 SUB DUP2 DUP7 GAS STATICCALL ISZERO DUP1 ISZERO PUSH2 0xDE5 JUMPI RETURNDATASIZE PUSH1 0x0 DUP1 RETURNDATACOPY RETURNDATASIZE PUSH1 0x0 REVERT JUMPDEST POP POP POP POP PUSH1 0x40 MLOAD RETURNDATASIZE PUSH1 0x1F NOT PUSH1 0x1F DUP3 ADD AND DUP3 ADD DUP1 PUSH1 0x40 MSTORE POP DUP2 ADD SWAP1 PUSH2 0xE09 SWAP2 SWAP1 PUSH2 0x2638 JUMP JUMPDEST LT ISZERO PUSH2 0xE4E JUMPI PUSH1 0x40 MLOAD PUSH3 0x461BCD PUSH1 0xE5 SHL DUP2 MSTORE PUSH1 0x20 PUSH1 0x4 DUP3 ADD MSTORE PUSH1 0x14 PUSH1 0x24 DUP3 ADD MSTORE PUSH20 0x496E73756666696369656E742062616C616E6365 PUSH1 0x60 SHL PUSH1 0x44 DUP3 ADD MSTORE PUSH1 0x64 ADD PUSH2 0x676 JUMP JUMPDEST PUSH1 0x4 DUP1 SLOAD PUSH1 0x40 MLOAD PUSH4 0xA9059CBB PUSH1 0xE0 SHL DUP2 MSTORE PUSH1 0x1 PUSH1 0x1 PUSH1 0xA0 SHL SUB DUP6 DUP2 AND SWAP4 DUP3 ADD SWAP4 SWAP1 SWAP4 MSTORE PUSH1 0x24 DUP2 ADD DUP5 SWAP1 MSTORE SWAP2 AND SWAP1 PUSH4 0xA9059CBB SWAP1 PUSH1 0x44 ADD PUSH1 0x20 PUSH1 0x40 MLOAD DUP1 DUP4 SUB DUP2 PUSH1 0x0 DUP8 GAS CALL ISZERO DUP1 ISZERO PUSH2 0xEA3 JUMPI RETURNDATASIZE PUSH1 0x0 DUP1 RETURNDATACOPY RETURNDATASIZE PUSH1 0x0 REVERT JUMPDEST POP POP POP POP PUSH1 0x40 MLOAD RETURNDATASIZE PUSH1 0x1F NOT PUSH1 0x1F DUP3 ADD AND DUP3 ADD DUP1 PUSH1 0x40 MSTORE POP DUP2 ADD SWAP1 PUSH2 0xEC7 SWAP2 SWAP1 PUSH2 0x24A4 JUMP JUMPDEST PUSH2 0xEE3 JUMPI PUSH1 0x40 MLOAD PUSH3 0x461BCD PUSH1 0xE5 SHL DUP2 MSTORE PUSH1 0x4 ADD PUSH2 0x676 SWAP1 PUSH2 0x24C1 JUMP JUMPDEST DUP2 PUSH1 0x1 PUSH1 0x1 PUSH1 0xA0 SHL SUB AND PUSH32 0x2AA7FB97600EA702B454359FC3D02AE9FA48367E7155505D38CEE896E5B5AAE7 DUP3 PUSH1 0x40 MLOAD PUSH2 0xF1E SWAP2 DUP2 MSTORE PUSH1 0x20 ADD SWAP1 JUMP JUMPDEST PUSH1 0x40 MLOAD DUP1 SWAP2 SUB SWAP1 LOG2 POP POP JUMP JUMPDEST PUSH2 0xF32 PUSH2 0x160D JUMP JUMPDEST PUSH2 0x3E8 DUP2 GT ISZERO PUSH2 0xF73 JUMPI PUSH1 0x40 MLOAD PUSH3 0x461BCD PUSH1 0xE5 SHL DUP2 MSTORE PUSH1 0x20 PUSH1 0x4 DUP3 ADD MSTORE PUSH1 0xC PUSH1 0x24 DUP3 ADD MSTORE PUSH12 0x8CCACA40E8DEDE40D0D2CED PUSH1 0xA3 SHL PUSH1 0x44 DUP3 ADD MSTORE PUSH1 0x64 ADD PUSH2 0x676 JUMP JUMPDEST PUSH1 0x5 DUP2 SWAP1 SSTORE PUSH1 0x40 MLOAD DUP2 DUP2 MSTORE PUSH32 0xDD72D2879718489EB363BA6099239F89D49542612862C71545503D35CFDDDA46 SWAP1 PUSH1 0x20 ADD PUSH1 0x40 MLOAD DUP1 SWAP2 SUB SWAP1 LOG1 POP JUMP JUMPDEST PUSH1 0x60 DUP2 MLOAD DUP4 MLOAD EQ PUSH2 0xFDF JUMPI DUP2 MLOAD DUP4 MLOAD PUSH1 0x40 MLOAD PUSH4 0x5B059991 PUSH1 0xE0 SHL DUP2 MSTORE PUSH1 0x4 DUP2 ADD SWAP3 SWAP1 SWAP3 MSTORE PUSH1 0x24 DUP3 ADD MSTORE PUSH1 0x44 ADD PUSH2 0x676 JUMP JUMPDEST PUSH1 0x0 DUP4 MLOAD PUSH1 0x1 PUSH1 0x1 PUSH1 0x40 SHL SUB DUP2 GT ISZERO PUSH2 0xFFA JUMPI PUSH2 0xFFA PUSH2 0x1D95 JUMP JUMPDEST PUSH1 0x40 MLOAD SWAP1 DUP1 DUP3 MSTORE DUP1 PUSH1 0x20 MUL PUSH1 0x20 ADD DUP3 ADD PUSH1 0x40 MSTORE DUP1 ISZERO PUSH2 0x1023 JUMPI DUP2 PUSH1 0x20 ADD PUSH1 0x20 DUP3 MUL DUP1 CALLDATASIZE DUP4 CALLDATACOPY ADD SWAP1 POP JUMPDEST POP SWAP1 POP PUSH1 0x0 JUMPDEST DUP5 MLOAD DUP2 LT ISZERO PUSH2 0x107A JUMPI PUSH1 0x20 DUP1 DUP3 MUL DUP7 ADD ADD MLOAD PUSH2 0x104D SWAP1 PUSH1 0x20 DUP1 DUP5 MUL DUP8 ADD ADD MLOAD PUSH2 0x51B JUMP JUMPDEST DUP3 DUP3 DUP2 MLOAD DUP2 LT PUSH2 0x105F JUMPI PUSH2 0x105F PUSH2 0x2651 JUMP JUMPDEST PUSH1 0x20 SWAP1 DUP2 MUL SWAP2 SWAP1 SWAP2 ADD ADD MSTORE PUSH2 0x1073 DUP2 PUSH2 0x2667 JUMP JUMPDEST SWAP1 POP PUSH2 0x1029 JUMP JUMPDEST POP SWAP4 SWAP3 POP POP POP JUMP JUMPDEST PUSH1 0x0 DUP2 DUP2 MSTORE PUSH1 0x9 PUSH1 0x20 MSTORE PUSH1 0x40 SWAP1 KECCAK256 PUSH1 0x5 DUP2 ADD SLOAD PUSH1 0xFF AND PUSH2 0x10D5 JUMPI PUSH1 0x40 MLOAD PUSH3 0x461BCD PUSH1 0xE5 SHL DUP2 MSTORE PUSH1 0x20 PUSH1 0x4 DUP3 ADD MSTORE PUSH1 0xE PUSH1 0x24 DUP3 ADD MSTORE PUSH14 0x4F7264657220696E616374697665 PUSH1 0x90 SHL PUSH1 0x44 DUP3 ADD MSTORE PUSH1 0x64 ADD PUSH2 0x676 JUMP JUMPDEST DUP1 SLOAD PUSH1 0x1 PUSH1 0x1 PUSH1 0xA0 SHL SUB AND CALLER EQ PUSH2 0x111B JUMPI PUSH1 0x40 MLOAD PUSH3 0x461BCD PUSH1 0xE5 SHL DUP2 MSTORE PUSH1 0x20 PUSH1 0x4 DUP3 ADD MSTORE PUSH1 0xA PUSH1 0x24 DUP3 ADD MSTORE PUSH10 0x2737BA1039B2B63632B9 PUSH1 0xB1 SHL PUSH1 0x44 DUP3 ADD MSTORE PUSH1 0x64 ADD PUSH2 0x676 JUMP JUMPDEST PUSH1 0x0 DUP2 PUSH1 0x4 ADD SLOAD GT PUSH2 0x115D JUMPI PUSH1 0x40 MLOAD PUSH3 0x461BCD PUSH1 0xE5 SHL DUP2 MSTORE PUSH1 0x20 PUSH1 0x4 DUP3 ADD MSTORE PUSH1 0xB PUSH1 0x24 DUP3 ADD MSTORE PUSH11 0x4F7264657220656D707479 PUSH1 0xA8 SHL PUSH1 0x44 DUP3 ADD MSTORE PUSH1 0x64 ADD PUSH2 0x676 JUMP JUMPDEST PUSH1 0x4 DUP2 ADD DUP1 SLOAD PUSH1 0x5 DUP4 ADD DUP1 SLOAD PUSH1 0xFF NOT AND SWAP1 SSTORE PUSH1 0x0 SWAP2 DUP3 SWAP1 SSTORE PUSH1 0x1 DUP4 ADD SLOAD PUSH1 0x40 DUP1 MLOAD PUSH1 0x20 DUP2 ADD SWAP1 SWAP2 MSTORE SWAP3 DUP4 MSTORE SWAP1 SWAP2 PUSH2 0x119A SWAP2 ADDRESS SWAP2 CALLER SWAP2 SWAP1 DUP6 SWAP1 PUSH2 0x157F JUMP JUMPDEST PUSH1 0x40 MLOAD DUP4 SWAP1 PUSH32 0x61B9399F2F0F32CA39CE8D7BE32CAED5EC22FE07A6DABA3A467ED479EC606582 SWAP1 PUSH1 0x0 SWAP1 LOG2 POP POP POP JUMP JUMPDEST PUSH1 0x7 PUSH1 0x20 MSTORE PUSH1 0x0 SWAP1 DUP2 MSTORE PUSH1 0x40 SWAP1 KECCAK256 DUP1 SLOAD PUSH1 0x1 DUP3 ADD DUP1 SLOAD SWAP2 SWAP3 SWAP2 PUSH2 0x11EC SWAP1 PUSH2 0x2408 JUMP JUMPDEST DUP1 PUSH1 0x1F ADD PUSH1 0x20 DUP1 SWAP2 DIV MUL PUSH1 0x20 ADD PUSH1 0x40 MLOAD SWAP1 DUP2 ADD PUSH1 0x40 MSTORE DUP1 SWAP3 SWAP2 SWAP1 DUP2 DUP2 MSTORE PUSH1 0x20 ADD DUP3 DUP1 SLOAD PUSH2 0x1218 SWAP1 PUSH2 0x2408 JUMP JUMPDEST DUP1 ISZERO PUSH2 0x1265 JUMPI DUP1 PUSH1 0x1F LT PUSH2 0x123A JUMPI PUSH2 0x100 DUP1 DUP4 SLOAD DIV MUL DUP4 MSTORE SWAP2 PUSH1 0x20 ADD SWAP2 PUSH2 0x1265 JUMP JUMPDEST DUP3 ADD SWAP2 SWAP1 PUSH1 0x0 MSTORE PUSH1 0x20 PUSH1 0x0 KECCAK256 SWAP1 JUMPDEST DUP2 SLOAD DUP2 MSTORE SWAP1 PUSH1 0x1 ADD SWAP1 PUSH1 0x20 ADD DUP1 DUP4 GT PUSH2 0x1248 JUMPI DUP3 SWAP1 SUB PUSH1 0x1F AND DUP3 ADD SWAP2 JUMPDEST POP POP POP POP PUSH1 0x2 DUP4 ADD SLOAD PUSH1 0x3 DUP5 ADD SLOAD PUSH1 0x4 SWAP1 SWAP5 ADD SLOAD SWAP3 SWAP4 SWAP1 SWAP3 SWAP1 SWAP2 POP PUSH1 0xFF AND DUP6 JUMP JUMPDEST PUSH2 0x128E PUSH2 0x160D JUMP JUMPDEST PUSH2 0x1298 PUSH1 0x0 PUSH2 0x16FE JUMP JUMPDEST JUMP JUMPDEST DUP2 PUSH2 0x12A5 CALLER DUP6 PUSH2 0x51B JUMP JUMPDEST LT ISZERO PUSH2 0x12F3 JUMPI PUSH1 0x40 MLOAD PUSH3 0x461BCD PUSH1 0xE5 SHL DUP2 MSTORE PUSH1 0x20 PUSH1 0x4 DUP3 ADD MSTORE PUSH1 0x18 PUSH1 0x24 DUP3 ADD MSTORE PUSH32 0x496E73756666696369656E74204E46542062616C616E63650000000000000000 PUSH1 0x44 DUP3 ADD MSTORE PUSH1 0x64 ADD PUSH2 0x676 JUMP JUMPDEST PUSH1 0x0 DUP3 GT PUSH2 0x1338 JUMPI PUSH1 0x40 MLOAD PUSH3 0x461BCD PUSH1 0xE5 SHL DUP2 MSTORE PUSH1 0x20 PUSH1 0x4 DUP3 ADD MSTORE PUSH1 0x12 PUSH1 0x24 DUP3 ADD MSTORE PUSH18 0x416D6F756E74206D757374206265203E203 PUSH1 0x74 SHL PUSH1 0x44 DUP3 ADD MSTORE PUSH1 0x64 ADD PUSH2 0x676 JUMP JUMPDEST PUSH1 0x0 DUP2 GT PUSH2 0x137C JUMPI PUSH1 0x40 MLOAD PUSH3 0x461BCD PUSH1 0xE5 SHL DUP2 MSTORE PUSH1 0x20 PUSH1 0x4 DUP3 ADD MSTORE PUSH1 0x11 PUSH1 0x24 DUP3 ADD MSTORE PUSH17 0x5072696365206D757374206265203E203 PUSH1 0x7C SHL PUSH1 0x44 DUP3 ADD MSTORE PUSH1 0x64 ADD PUSH2 0x676 JUMP JUMPDEST PUSH2 0x1398 CALLER ADDRESS DUP6 DUP6 PUSH1 0x40 MLOAD DUP1 PUSH1 0x20 ADD PUSH1 0x40 MSTORE DUP1 PUSH1 0x0 DUP2 MSTORE POP PUSH2 0x14E2 JUMP JUMPDEST PUSH1 0x40 DUP1 MLOAD PUSH1 0xC0 DUP2 ADD DUP3 MSTORE CALLER DUP1 DUP3 MSTORE PUSH1 0x20 DUP1 DUP4 ADD DUP8 DUP2 MSTORE DUP4 DUP6 ADD DUP8 DUP2 MSTORE PUSH1 0x60 DUP1 DUP7 ADD DUP9 DUP2 MSTORE PUSH1 0x80 DUP8 ADD DUP11 DUP2 MSTORE PUSH1 0x1 PUSH1 0xA0 DUP10 ADD DUP2 DUP2 MSTORE PUSH1 0xA DUP1 SLOAD PUSH1 0x0 SWAP1 DUP2 MSTORE PUSH1 0x9 DUP11 MSTORE DUP13 SWAP1 KECCAK256 SWAP11 MLOAD DUP12 SLOAD PUSH1 0x1 PUSH1 0x1 PUSH1 0xA0 SHL SUB NOT AND PUSH1 0x1 PUSH1 0x1 PUSH1 0xA0 SHL SUB SWAP1 SWAP2 AND OR DUP12 SSTORE SWAP7 MLOAD SWAP2 DUP11 ADD SWAP2 SWAP1 SWAP2 SSTORE SWAP4 MLOAD PUSH1 0x2 DUP10 ADD SSTORE SWAP1 MLOAD PUSH1 0x3 DUP9 ADD SSTORE MLOAD PUSH1 0x4 DUP8 ADD SSTORE SWAP1 MLOAD PUSH1 0x5 SWAP1 SWAP6 ADD DUP1 SLOAD PUSH1 0xFF NOT AND SWAP6 ISZERO ISZERO SWAP6 SWAP1 SWAP6 OR SWAP1 SWAP5 SSTORE SLOAD DUP5 MLOAD DUP9 DUP2 MSTORE SWAP2 DUP3 ADD DUP8 SWAP1 MSTORE SWAP4 DUP2 ADD DUP6 SWAP1 MSTORE SWAP1 SWAP3 SWAP2 PUSH32 0x92669F7499828C9972B3A5B6C0B107CA011F143600FD7B32517024D4A3D7AB28 SWAP2 ADD PUSH1 0x40 MLOAD DUP1 SWAP2 SUB SWAP1 LOG3 PUSH1 0xA DUP1 SLOAD SWAP1 PUSH1 0x0 PUSH2 0x147C DUP4 PUSH2 0x2667 JUMP JUMPDEST SWAP2 SWAP1 POP SSTORE POP POP POP POP JUMP JUMPDEST PUSH2 0x1490 DUP3 DUP3 PUSH2 0x1750 JUMP JUMPDEST POP POP JUMP JUMPDEST PUSH2 0x149C PUSH2 0x160D JUMP JUMPDEST PUSH1 0x0 SWAP1 DUP2 MSTORE PUSH1 0x8 PUSH1 0x20 MSTORE PUSH1 0x40 SWAP1 KECCAK256 DUP1 SLOAD PUSH1 0xFF NOT AND SWAP1 SSTORE JUMP JUMPDEST PUSH1 0x1 PUSH1 0x1 PUSH1 0xA0 SHL SUB SWAP2 DUP3 AND PUSH1 0x0 SWAP1 DUP2 MSTORE PUSH1 0x1 PUSH1 0x20 SWAP1 DUP2 MSTORE PUSH1 0x40 DUP1 DUP4 KECCAK256 SWAP4 SWAP1 SWAP5 AND DUP3 MSTORE SWAP2 SWAP1 SWAP2 MSTORE KECCAK256 SLOAD PUSH1 0xFF AND SWAP1 JUMP JUMPDEST CALLER PUSH1 0x1 PUSH1 0x1 PUSH1 0xA0 SHL SUB DUP7 AND DUP2 EQ DUP1 ISZERO SWAP1 PUSH2 0x1503 JUMPI POP PUSH2 0x1501 DUP7 DUP3 PUSH2 0x14B4 JUMP JUMPDEST ISZERO JUMPDEST ISZERO PUSH2 0x1534 JUMPI PUSH1 0x40 MLOAD PUSH4 0x711BEC91 PUSH1 0xE1 SHL DUP2 MSTORE PUSH1 0x1 PUSH1 0x1 PUSH1 0xA0 SHL SUB DUP1 DUP4 AND PUSH1 0x4 DUP4 ADD MSTORE DUP8 AND PUSH1 0x24 DUP3 ADD MSTORE PUSH1 0x44 ADD PUSH2 0x676 JUMP JUMPDEST PUSH2 0xD7F DUP7 DUP7 DUP7 DUP7 DUP7 PUSH2 0x157F JUMP JUMPDEST PUSH2 0x1549 PUSH2 0x160D JUMP JUMPDEST PUSH1 0x1 PUSH1 0x1 PUSH1 0xA0 SHL SUB DUP2 AND PUSH2 0x1573 JUMPI PUSH1 0x40 MLOAD PUSH4 0x1E4FBDF7 PUSH1 0xE0 SHL DUP2 MSTORE PUSH1 0x0 PUSH1 0x4 DUP3 ADD MSTORE PUSH1 0x24 ADD PUSH2 0x676 JUMP JUMPDEST PUSH2 0x157C DUP2 PUSH2 0x16FE JUMP JUMPDEST POP JUMP JUMPDEST PUSH1 0x1 PUSH1 0x1 PUSH1 0xA0 SHL SUB DUP5 AND PUSH2 0x15A9 JUMPI PUSH1 0x40 MLOAD PUSH4 0x2BFA23E7 PUSH1 0xE1 SHL DUP2 MSTORE PUSH1 0x0 PUSH1 0x4 DUP3 ADD MSTORE PUSH1 0x24 ADD PUSH2 0x676 JUMP JUMPDEST PUSH1 0x1 PUSH1 0x1 PUSH1 0xA0 SHL SUB DUP6 AND PUSH2 0x15D2 JUMPI PUSH1 0x40 MLOAD PUSH3 0x6A0D45 PUSH1 0xE2 SHL DUP2 MSTORE PUSH1 0x0 PUSH1 0x4 DUP3 ADD MSTORE PUSH1 0x24 ADD PUSH2 0x676 JUMP JUMPDEST PUSH1 0x40 DUP1 MLOAD PUSH1 0x1 DUP1 DUP3 MSTORE PUSH1 0x20 DUP3 ADD DUP7 SWAP1 MSTORE DUP2 DUP4 ADD SWAP1 DUP2 MSTORE PUSH1 0x60 DUP3 ADD DUP6 SWAP1 MSTORE PUSH1 0x80 DUP3 ADD SWAP1 SWAP3 MSTORE SWAP1 PUSH2 0x1604 DUP8 DUP8 DUP5 DUP5 DUP8 PUSH2 0x175B JUMP JUMPDEST POP POP POP POP POP POP POP JUMP JUMPDEST PUSH1 0x3 SLOAD PUSH1 0x1 PUSH1 0x1 PUSH1 0xA0 SHL SUB AND CALLER EQ PUSH2 0x1298 JUMPI PUSH1 0x40 MLOAD PUSH4 0x118CDAA7 PUSH1 0xE0 SHL DUP2 MSTORE CALLER PUSH1 0x4 DUP3 ADD MSTORE PUSH1 0x24 ADD PUSH2 0x676 JUMP JUMPDEST PUSH1 0x1 PUSH1 0x1 PUSH1 0xA0 SHL SUB DUP5 AND PUSH2 0x1664 JUMPI PUSH1 0x40 MLOAD PUSH4 0x2BFA23E7 PUSH1 0xE1 SHL DUP2 MSTORE PUSH1 0x0 PUSH1 0x4 DUP3 ADD MSTORE PUSH1 0x24 ADD PUSH2 0x676 JUMP JUMPDEST PUSH1 0x40 DUP1 MLOAD PUSH1 0x1 DUP1 DUP3 MSTORE PUSH1 0x20 DUP3 ADD DUP7 SWAP1 MSTORE DUP2 DUP4 ADD SWAP1 DUP2 MSTORE PUSH1 0x60 DUP3 ADD DUP6 SWAP1 MSTORE PUSH1 0x80 DUP3 ADD SWAP1 SWAP3 MSTORE SWAP1 PUSH2 0xD7F PUSH1 0x0 DUP8 DUP5 DUP5 DUP8 PUSH2 0x175B JUMP JUMPDEST PUSH1 0x1 PUSH1 0x1 PUSH1 0xA0 SHL SUB DUP5 AND PUSH2 0x16C1 JUMPI PUSH1 0x40 MLOAD PUSH4 0x2BFA23E7 PUSH1 0xE1 SHL DUP2 MSTORE PUSH1 0x0 PUSH1 0x4 DUP3 ADD MSTORE PUSH1 0x24 ADD PUSH2 0x676 JUMP JUMPDEST PUSH1 0x1 PUSH1 0x1 PUSH1 0xA0 SHL SUB DUP6 AND PUSH2 0x16EA JUMPI PUSH1 0x40 MLOAD PUSH3 0x6A0D45 PUSH1 0xE2 SHL DUP2 MSTORE PUSH1 0x0 PUSH1 0x4 DUP3 ADD MSTORE PUSH1 0x24 ADD PUSH2 0x676 JUMP JUMPDEST PUSH2 0x16F7 DUP6 DUP6 DUP6 DUP6 DUP6 PUSH2 0x175B JUMP JUMPDEST POP POP POP POP POP JUMP JUMPDEST PUSH1 0x3 DUP1 SLOAD PUSH1 0x1 PUSH1 0x1 PUSH1 0xA0 SHL SUB DUP4 DUP2 AND PUSH1 0x1 PUSH1 0x1 PUSH1 0xA0 SHL SUB NOT DUP4 AND DUP2 OR SWAP1 SWAP4 SSTORE PUSH1 0x40 MLOAD SWAP2 AND SWAP2 SWAP1 DUP3 SWAP1 PUSH32 0x8BE0079C531659141344CD1FD0A4F28419497F9722A3DAAFE3B4186F6B6457E0 SWAP1 PUSH1 0x0 SWAP1 LOG3 POP POP JUMP JUMPDEST PUSH2 0x1490 CALLER DUP4 DUP4 PUSH2 0x17AE JUMP JUMPDEST PUSH2 0x1767 DUP6 DUP6 DUP6 DUP6 PUSH2 0x183C JUMP JUMPDEST PUSH1 0x1 PUSH1 0x1 PUSH1 0xA0 SHL SUB DUP5 AND ISZERO PUSH2 0x16F7 JUMPI DUP3 MLOAD CALLER SWAP1 PUSH1 0x1 SUB PUSH2 0x17A0 JUMPI PUSH1 0x20 DUP5 DUP2 ADD MLOAD SWAP1 DUP5 ADD MLOAD PUSH2 0x1799 DUP4 DUP10 DUP10 DUP6 DUP6 DUP10 PUSH2 0x1A59 JUMP JUMPDEST POP POP PUSH2 0xD7F JUMP JUMPDEST PUSH2 0xD7F DUP2 DUP8 DUP8 DUP8 DUP8 DUP8 PUSH2 0x1B7D JUMP JUMPDEST PUSH1 0x1 PUSH1 0x1 PUSH1 0xA0 SHL SUB DUP3 AND PUSH2 0x17D7 JUMPI PUSH1 0x40 MLOAD PUSH3 0xCED3E1 PUSH1 0xE8 SHL DUP2 MSTORE PUSH1 0x0 PUSH1 0x4 DUP3 ADD MSTORE PUSH1 0x24 ADD PUSH2 0x676 JUMP JUMPDEST PUSH1 0x1 PUSH1 0x1 PUSH1 0xA0 SHL SUB DUP4 DUP2 AND PUSH1 0x0 DUP2 DUP2 MSTORE PUSH1 0x1 PUSH1 0x20 SWAP1 DUP2 MSTORE PUSH1 0x40 DUP1 DUP4 KECCAK256 SWAP5 DUP8 AND DUP1 DUP5 MSTORE SWAP5 DUP3 MSTORE SWAP2 DUP3 SWAP1 KECCAK256 DUP1 SLOAD PUSH1 0xFF NOT AND DUP7 ISZERO ISZERO SWAP1 DUP2 OR SWAP1 SWAP2 SSTORE SWAP2 MLOAD SWAP2 DUP3 MSTORE PUSH32 0x17307EAB39AB6107E8899845AD3D59BD9653F200F220920489CA2B5937696C31 SWAP2 ADD PUSH2 0xBDC JUMP JUMPDEST DUP1 MLOAD DUP3 MLOAD EQ PUSH2 0x186B JUMPI DUP2 MLOAD DUP2 MLOAD PUSH1 0x40 MLOAD PUSH4 0x5B059991 PUSH1 0xE0 SHL DUP2 MSTORE PUSH1 0x4 DUP2 ADD SWAP3 SWAP1 SWAP3 MSTORE PUSH1 0x24 DUP3 ADD MSTORE PUSH1 0x44 ADD PUSH2 0x676 JUMP JUMPDEST CALLER PUSH1 0x0 JUMPDEST DUP4 MLOAD DUP2 LT ISZERO PUSH2 0x197A JUMPI PUSH1 0x20 DUP2 DUP2 MUL DUP6 DUP2 ADD DUP3 ADD MLOAD SWAP1 DUP6 ADD SWAP1 SWAP2 ADD MLOAD PUSH1 0x1 PUSH1 0x1 PUSH1 0xA0 SHL SUB DUP9 AND ISZERO PUSH2 0x1922 JUMPI PUSH1 0x0 DUP3 DUP2 MSTORE PUSH1 0x20 DUP2 DUP2 MSTORE PUSH1 0x40 DUP1 DUP4 KECCAK256 PUSH1 0x1 PUSH1 0x1 PUSH1 0xA0 SHL SUB DUP13 AND DUP5 MSTORE SWAP1 SWAP2 MSTORE SWAP1 KECCAK256 SLOAD DUP2 DUP2 LT ISZERO PUSH2 0x18FB JUMPI PUSH1 0x40 MLOAD PUSH4 0x3DEE4C5 PUSH1 0xE0 SHL DUP2 MSTORE PUSH1 0x1 PUSH1 0x1 PUSH1 0xA0 SHL SUB DUP11 AND PUSH1 0x4 DUP3 ADD MSTORE PUSH1 0x24 DUP2 ADD DUP3 SWAP1 MSTORE PUSH1 0x44 DUP2 ADD DUP4 SWAP1 MSTORE PUSH1 0x64 DUP2 ADD DUP5 SWAP1 MSTORE PUSH1 0x84 ADD PUSH2 0x676 JUMP JUMPDEST PUSH1 0x0 DUP4 DUP2 MSTORE PUSH1 0x20 DUP2 DUP2 MSTORE PUSH1 0x40 DUP1 DUP4 KECCAK256 PUSH1 0x1 PUSH1 0x1 PUSH1 0xA0 SHL SUB DUP14 AND DUP5 MSTORE SWAP1 SWAP2 MSTORE SWAP1 KECCAK256 SWAP1 DUP3 SWAP1 SUB SWAP1 SSTORE JUMPDEST PUSH1 0x1 PUSH1 0x1 PUSH1 0xA0 SHL SUB DUP8 AND ISZERO PUSH2 0x1967 JUMPI PUSH1 0x0 DUP3 DUP2 MSTORE PUSH1 0x20 DUP2 DUP2 MSTORE PUSH1 0x40 DUP1 DUP4 KECCAK256 PUSH1 0x1 PUSH1 0x1 PUSH1 0xA0 SHL SUB DUP12 AND DUP5 MSTORE SWAP1 SWAP2 MSTORE DUP2 KECCAK256 DUP1 SLOAD DUP4 SWAP3 SWAP1 PUSH2 0x1961 SWAP1 DUP5 SWAP1 PUSH2 0x24EF JUMP JUMPDEST SWAP1 SWAP2 SSTORE POP POP JUMPDEST POP POP DUP1 PUSH2 0x1973 SWAP1 PUSH2 0x2667 JUMP JUMPDEST SWAP1 POP PUSH2 0x186F JUMP JUMPDEST POP DUP3 MLOAD PUSH1 0x1 SUB PUSH2 0x19FB JUMPI PUSH1 0x20 DUP4 ADD MLOAD PUSH1 0x0 SWAP1 PUSH1 0x20 DUP5 ADD MLOAD SWAP1 SWAP2 POP DUP6 PUSH1 0x1 PUSH1 0x1 PUSH1 0xA0 SHL SUB AND DUP8 PUSH1 0x1 PUSH1 0x1 PUSH1 0xA0 SHL SUB AND DUP5 PUSH1 0x1 PUSH1 0x1 PUSH1 0xA0 SHL SUB AND PUSH32 0xC3D58168C5AE7397731D063D5BBF3D657854427343F4C083240F7AACAA2D0F62 DUP6 DUP6 PUSH1 0x40 MLOAD PUSH2 0x19EC SWAP3 SWAP2 SWAP1 SWAP2 DUP3 MSTORE PUSH1 0x20 DUP3 ADD MSTORE PUSH1 0x40 ADD SWAP1 JUMP JUMPDEST PUSH1 0x40 MLOAD DUP1 SWAP2 SUB SWAP1 LOG4 POP POP PUSH2 0x16F7 JUMP JUMPDEST DUP4 PUSH1 0x1 PUSH1 0x1 PUSH1 0xA0 SHL SUB AND DUP6 PUSH1 0x1 PUSH1 0x1 PUSH1 0xA0 SHL SUB AND DUP3 PUSH1 0x1 PUSH1 0x1 PUSH1 0xA0 SHL SUB AND PUSH32 0x4A39DC06D4C0DBC64B70AF90FD698A233A518AA5D07E595D983B8C0526C8F7FB DUP7 DUP7 PUSH1 0x40 MLOAD PUSH2 0x1A4A SWAP3 SWAP2 SWAP1 PUSH2 0x2680 JUMP JUMPDEST PUSH1 0x40 MLOAD DUP1 SWAP2 SUB SWAP1 LOG4 POP POP POP POP POP JUMP JUMPDEST PUSH1 0x1 PUSH1 0x1 PUSH1 0xA0 SHL SUB DUP5 AND EXTCODESIZE ISZERO PUSH2 0xD7F JUMPI PUSH1 0x40 MLOAD PUSH4 0xF23A6E61 PUSH1 0xE0 SHL DUP2 MSTORE PUSH1 0x1 PUSH1 0x1 PUSH1 0xA0 SHL SUB DUP6 AND SWAP1 PUSH4 0xF23A6E61 SWAP1 PUSH2 0x1A9D SWAP1 DUP10 SWAP1 DUP10 SWAP1 DUP9 SWAP1 DUP9 SWAP1 DUP9 SWAP1 PUSH1 0x4 ADD PUSH2 0x26AE JUMP JUMPDEST PUSH1 0x20 PUSH1 0x40 MLOAD DUP1 DUP4 SUB DUP2 PUSH1 0x0 DUP8 GAS CALL SWAP3 POP POP POP DUP1 ISZERO PUSH2 0x1AD8 JUMPI POP PUSH1 0x40 DUP1 MLOAD PUSH1 0x1F RETURNDATASIZE SWAP1 DUP2 ADD PUSH1 0x1F NOT AND DUP3 ADD SWAP1 SWAP3 MSTORE PUSH2 0x1AD5 SWAP2 DUP2 ADD SWAP1 PUSH2 0x26F3 JUMP JUMPDEST PUSH1 0x1 JUMPDEST PUSH2 0x1B41 JUMPI RETURNDATASIZE DUP1 DUP1 ISZERO PUSH2 0x1B06 JUMPI PUSH1 0x40 MLOAD SWAP2 POP PUSH1 0x1F NOT PUSH1 0x3F RETURNDATASIZE ADD AND DUP3 ADD PUSH1 0x40 MSTORE RETURNDATASIZE DUP3 MSTORE RETURNDATASIZE PUSH1 0x0 PUSH1 0x20 DUP5 ADD RETURNDATACOPY PUSH2 0x1B0B JUMP JUMPDEST PUSH1 0x60 SWAP2 POP JUMPDEST POP DUP1 MLOAD PUSH1 0x0 SUB PUSH2 0x1B39 JUMPI PUSH1 0x40 MLOAD PUSH4 0x2BFA23E7 PUSH1 0xE1 SHL DUP2 MSTORE PUSH1 0x1 PUSH1 0x1 PUSH1 0xA0 SHL SUB DUP7 AND PUSH1 0x4 DUP3 ADD MSTORE PUSH1 0x24 ADD PUSH2 0x676 JUMP JUMPDEST DUP1 MLOAD PUSH1 0x20 DUP3 ADD REVERT JUMPDEST PUSH1 0x1 PUSH1 0x1 PUSH1 0xE0 SHL SUB NOT DUP2 AND PUSH4 0xF23A6E61 PUSH1 0xE0 SHL EQ PUSH2 0x1604 JUMPI PUSH1 0x40 MLOAD PUSH4 0x2BFA23E7 PUSH1 0xE1 SHL DUP2 MSTORE PUSH1 0x1 PUSH1 0x1 PUSH1 0xA0 SHL SUB DUP7 AND PUSH1 0x4 DUP3 ADD MSTORE PUSH1 0x24 ADD PUSH2 0x676 JUMP JUMPDEST PUSH1 0x1 PUSH1 0x1 PUSH1 0xA0 SHL SUB DUP5 AND EXTCODESIZE ISZERO PUSH2 0xD7F JUMPI PUSH1 0x40 MLOAD PUSH4 0xBC197C81 PUSH1 0xE0 SHL DUP2 MSTORE PUSH1 0x1 PUSH1 0x1 PUSH1 0xA0 SHL SUB DUP6 AND SWAP1 PUSH4 0xBC197C81 SWAP1 PUSH2 0x1BC1 SWAP1 DUP10 SWAP1 DUP10 SWAP1 DUP9 SWAP1 DUP9 SWAP1 DUP9 SWAP1 PUSH1 0x4 ADD PUSH2 0x2710 JUMP JUMPDEST PUSH1 0x20 PUSH1 0x40 MLOAD DUP1 DUP4 SUB DUP2 PUSH1 0x0 DUP8 GAS CALL SWAP3 POP POP POP DUP1 ISZERO PUSH2 0x1BFC JUMPI POP PUSH1 0x40 DUP1 MLOAD PUSH1 0x1F RETURNDATASIZE SWAP1 DUP2 ADD PUSH1 0x1F NOT AND DUP3 ADD SWAP1 SWAP3 MSTORE PUSH2 0x1BF9 SWAP2 DUP2 ADD SWAP1 PUSH2 0x26F3 JUMP JUMPDEST PUSH1 0x1 JUMPDEST PUSH2 0x1C2A JUMPI RETURNDATASIZE DUP1 DUP1 ISZERO PUSH2 0x1B06 JUMPI PUSH1 0x40 MLOAD SWAP2 POP PUSH1 0x1F NOT PUSH1 0x3F RETURNDATASIZE ADD AND DUP3 ADD PUSH1 0x40 MSTORE RETURNDATASIZE DUP3 MSTORE RETURNDATASIZE PUSH1 0x0 PUSH1 0x20 DUP5 ADD RETURNDATACOPY PUSH2 0x1B0B JUMP JUMPDEST PUSH1 0x1 PUSH1 0x1 PUSH1 0xE0 SHL SUB NOT DUP2 AND PUSH4 0xBC197C81 PUSH1 0xE0 SHL EQ PUSH2 0x1604 JUMPI PUSH1 0x40 MLOAD PUSH4 0x2BFA23E7 PUSH1 0xE1 SHL DUP2 MSTORE PUSH1 0x1 PUSH1 0x1 PUSH1 0xA0 SHL SUB DUP7 AND PUSH1 0x4 DUP3 ADD MSTORE PUSH1 0x24 ADD PUSH2 0x676 JUMP JUMPDEST DUP1 CALLDATALOAD PUSH1 0x1 PUSH1 0x1 PUSH1 0xA0 SHL SUB DUP2 AND DUP2 EQ PUSH2 0x1C7D JUMPI PUSH1 0x0 DUP1 REVERT JUMPDEST SWAP2 SWAP1 POP JUMP JUMPDEST PUSH1 0x0 DUP1 PUSH1 0x40 DUP4 DUP6 SUB SLT ISZERO PUSH2 0x1C95 JUMPI PUSH1 0x0 DUP1 REVERT JUMPDEST PUSH2 0x1C9E DUP4 PUSH2 0x1C66 JUMP JUMPDEST SWAP5 PUSH1 0x20 SWAP4 SWAP1 SWAP4 ADD CALLDATALOAD SWAP4 POP POP POP JUMP JUMPDEST PUSH1 0x1 PUSH1 0x1 PUSH1 0xE0 SHL SUB NOT DUP2 AND DUP2 EQ PUSH2 0x157C JUMPI PUSH1 0x0 DUP1 REVERT JUMPDEST PUSH1 0x0 PUSH1 0x20 DUP3 DUP5 SUB SLT ISZERO PUSH2 0x1CD4 JUMPI PUSH1 0x0 DUP1 REVERT JUMPDEST DUP2 CALLDATALOAD PUSH2 0x1CDF DUP2 PUSH2 0x1CAC JUMP JUMPDEST SWAP4 SWAP3 POP POP POP JUMP JUMPDEST PUSH1 0x0 PUSH1 0x20 DUP3 DUP5 SUB SLT ISZERO PUSH2 0x1CF8 JUMPI PUSH1 0x0 DUP1 REVERT JUMPDEST POP CALLDATALOAD SWAP2 SWAP1 POP JUMP JUMPDEST PUSH1 0x0 DUP2 MLOAD DUP1 DUP5 MSTORE PUSH1 0x0 JUMPDEST DUP2 DUP2 LT ISZERO PUSH2 0x1D25 JUMPI PUSH1 0x20 DUP2 DUP6 ADD DUP2 ADD MLOAD DUP7 DUP4 ADD DUP3 ADD MSTORE ADD PUSH2 0x1D09 JUMP JUMPDEST POP PUSH1 0x0 PUSH1 0x20 DUP3 DUP7 ADD ADD MSTORE PUSH1 0x20 PUSH1 0x1F NOT PUSH1 0x1F DUP4 ADD AND DUP6 ADD ADD SWAP2 POP POP SWAP3 SWAP2 POP POP JUMP JUMPDEST PUSH1 0x20 DUP2 MSTORE PUSH1 0x0 PUSH2 0x1CDF PUSH1 0x20 DUP4 ADD DUP5 PUSH2 0x1CFF JUMP JUMPDEST PUSH1 0x0 DUP1 PUSH1 0x40 DUP4 DUP6 SUB SLT ISZERO PUSH2 0x1D6B JUMPI PUSH1 0x0 DUP1 REVERT JUMPDEST POP POP DUP1 CALLDATALOAD SWAP3 PUSH1 0x20 SWAP1 SWAP2 ADD CALLDATALOAD SWAP2 POP JUMP JUMPDEST PUSH1 0x0 PUSH1 0x20 DUP3 DUP5 SUB SLT ISZERO PUSH2 0x1D8C JUMPI PUSH1 0x0 DUP1 REVERT JUMPDEST PUSH2 0x1CDF DUP3 PUSH2 0x1C66 JUMP JUMPDEST PUSH4 0x4E487B71 PUSH1 0xE0 SHL PUSH1 0x0 MSTORE PUSH1 0x41 PUSH1 0x4 MSTORE PUSH1 0x24 PUSH1 0x0 REVERT JUMPDEST PUSH1 0x40 MLOAD PUSH1 0x1F DUP3 ADD PUSH1 0x1F NOT AND DUP2 ADD PUSH1 0x1 PUSH1 0x1 PUSH1 0x40 SHL SUB DUP2 GT DUP3 DUP3 LT OR ISZERO PUSH2 0x1DD3 JUMPI PUSH2 0x1DD3 PUSH2 0x1D95 JUMP JUMPDEST PUSH1 0x40 MSTORE SWAP2 SWAP1 POP JUMP JUMPDEST PUSH1 0x0 PUSH1 0x1 PUSH1 0x1 PUSH1 0x40 SHL SUB DUP4 GT ISZERO PUSH2 0x1DF4 JUMPI PUSH2 0x1DF4 PUSH2 0x1D95 JUMP JUMPDEST PUSH2 0x1E07 PUSH1 0x1F DUP5 ADD PUSH1 0x1F NOT AND PUSH1 0x20 ADD PUSH2 0x1DAB JUMP JUMPDEST SWAP1 POP DUP3 DUP2 MSTORE DUP4 DUP4 DUP4 ADD GT ISZERO PUSH2 0x1E1B JUMPI PUSH1 0x0 DUP1 REVERT JUMPDEST DUP3 DUP3 PUSH1 0x20 DUP4 ADD CALLDATACOPY PUSH1 0x0 PUSH1 0x20 DUP5 DUP4 ADD ADD MSTORE SWAP4 SWAP3 POP POP POP JUMP JUMPDEST PUSH1 0x0 DUP1 PUSH1 0x0 DUP1 PUSH1 0x0 PUSH1 0xA0 DUP7 DUP9 SUB SLT ISZERO PUSH2 0x1E4A JUMPI PUSH1 0x0 DUP1 REVERT JUMPDEST DUP6 CALLDATALOAD SWAP5 POP PUSH1 0x20 DUP7 ADD CALLDATALOAD SWAP4 POP PUSH1 0x40 DUP7 ADD CALLDATALOAD PUSH1 0x1 PUSH1 0x1 PUSH1 0x40 SHL SUB DUP2 GT ISZERO PUSH2 0x1E6E JUMPI PUSH1 0x0 DUP1 REVERT JUMPDEST DUP7 ADD PUSH1 0x1F DUP2 ADD DUP9 SGT PUSH2 0x1E7F JUMPI PUSH1 0x0 DUP1 REVERT JUMPDEST PUSH2 0x1E8E DUP9 DUP3 CALLDATALOAD PUSH1 0x20 DUP5 ADD PUSH2 0x1DDB JUMP JUMPDEST SWAP6 SWAP9 SWAP5 SWAP8 POP SWAP5 SWAP6 PUSH1 0x60 DUP2 ADD CALLDATALOAD SWAP6 POP PUSH1 0x80 ADD CALLDATALOAD SWAP4 SWAP3 POP POP POP JUMP JUMPDEST PUSH1 0x0 PUSH1 0x1 PUSH1 0x1 PUSH1 0x40 SHL SUB DUP3 GT ISZERO PUSH2 0x1EC0 JUMPI PUSH2 0x1EC0 PUSH2 0x1D95 JUMP JUMPDEST POP PUSH1 0x5 SHL PUSH1 0x20 ADD SWAP1 JUMP JUMPDEST PUSH1 0x0 DUP3 PUSH1 0x1F DUP4 ADD SLT PUSH2 0x1EDB JUMPI PUSH1 0x0 DUP1 REVERT JUMPDEST DUP2 CALLDATALOAD PUSH1 0x20 PUSH2 0x1EF0 PUSH2 0x1EEB DUP4 PUSH2 0x1EA7 JUMP JUMPDEST PUSH2 0x1DAB JUMP JUMPDEST DUP3 DUP2 MSTORE PUSH1 0x5 SWAP3 SWAP1 SWAP3 SHL DUP5 ADD DUP2 ADD SWAP2 DUP2 DUP2 ADD SWAP1 DUP7 DUP5 GT ISZERO PUSH2 0x1F0F JUMPI PUSH1 0x0 DUP1 REVERT JUMPDEST DUP3 DUP7 ADD JUMPDEST DUP5 DUP2 LT ISZERO PUSH2 0x1F2A JUMPI DUP1 CALLDATALOAD DUP4 MSTORE SWAP2 DUP4 ADD SWAP2 DUP4 ADD PUSH2 0x1F13 JUMP JUMPDEST POP SWAP7 SWAP6 POP POP POP POP POP POP JUMP JUMPDEST PUSH1 0x0 DUP3 PUSH1 0x1F DUP4 ADD SLT PUSH2 0x1F46 JUMPI PUSH1 0x0 DUP1 REVERT JUMPDEST PUSH2 0x1CDF DUP4 DUP4 CALLDATALOAD PUSH1 0x20 DUP6 ADD PUSH2 0x1DDB JUMP JUMPDEST PUSH1 0x0 DUP1 PUSH1 0x0 DUP1 PUSH1 0x0 PUSH1 0xA0 DUP7 DUP9 SUB SLT ISZERO PUSH2 0x1F6D JUMPI PUSH1 0x0 DUP1 REVERT JUMPDEST PUSH2 0x1F76 DUP7 PUSH2 0x1C66 JUMP JUMPDEST SWAP5 POP PUSH2 0x1F84 PUSH1 0x20 DUP8 ADD PUSH2 0x1C66 JUMP JUMPDEST SWAP4 POP PUSH1 0x40 DUP7 ADD CALLDATALOAD PUSH1 0x1 PUSH1 0x1 PUSH1 0x40 SHL SUB DUP1 DUP3 GT ISZERO PUSH2 0x1FA0 JUMPI PUSH1 0x0 DUP1 REVERT JUMPDEST PUSH2 0x1FAC DUP10 DUP4 DUP11 ADD PUSH2 0x1ECA JUMP JUMPDEST SWAP5 POP PUSH1 0x60 DUP9 ADD CALLDATALOAD SWAP2 POP DUP1 DUP3 GT ISZERO PUSH2 0x1FC2 JUMPI PUSH1 0x0 DUP1 REVERT JUMPDEST PUSH2 0x1FCE DUP10 DUP4 DUP11 ADD PUSH2 0x1ECA JUMP JUMPDEST SWAP4 POP PUSH1 0x80 DUP9 ADD CALLDATALOAD SWAP2 POP DUP1 DUP3 GT ISZERO PUSH2 0x1FE4 JUMPI PUSH1 0x0 DUP1 REVERT JUMPDEST POP PUSH2 0x1FF1 DUP9 DUP3 DUP10 ADD PUSH2 0x1F35 JUMP JUMPDEST SWAP2 POP POP SWAP3 SWAP6 POP SWAP3 SWAP6 SWAP1 SWAP4 POP JUMP JUMPDEST PUSH1 0x0 DUP1 PUSH1 0x40 DUP4 DUP6 SUB SLT ISZERO PUSH2 0x2011 JUMPI PUSH1 0x0 DUP1 REVERT JUMPDEST DUP3 CALLDATALOAD PUSH1 0x1 PUSH1 0x1 PUSH1 0x40 SHL SUB DUP1 DUP3 GT ISZERO PUSH2 0x2028 JUMPI PUSH1 0x0 DUP1 REVERT JUMPDEST DUP2 DUP6 ADD SWAP2 POP DUP6 PUSH1 0x1F DUP4 ADD SLT PUSH2 0x203C JUMPI PUSH1 0x0 DUP1 REVERT JUMPDEST DUP2 CALLDATALOAD PUSH1 0x20 PUSH2 0x204C PUSH2 0x1EEB DUP4 PUSH2 0x1EA7 JUMP JUMPDEST DUP3 DUP2 MSTORE PUSH1 0x5 SWAP3 SWAP1 SWAP3 SHL DUP5 ADD DUP2 ADD SWAP2 DUP2 DUP2 ADD SWAP1 DUP10 DUP5 GT ISZERO PUSH2 0x206B JUMPI PUSH1 0x0 DUP1 REVERT JUMPDEST SWAP5 DUP3 ADD SWAP5 JUMPDEST DUP4 DUP7 LT ISZERO PUSH2 0x2090 JUMPI PUSH2 0x2081 DUP7 PUSH2 0x1C66 JUMP JUMPDEST DUP3 MSTORE SWAP5 DUP3 ADD SWAP5 SWAP1 DUP3 ADD SWAP1 PUSH2 0x2070 JUMP JUMPDEST SWAP7 POP POP DUP7 ADD CALLDATALOAD SWAP3 POP POP DUP1 DUP3 GT ISZERO PUSH2 0x20A6 JUMPI PUSH1 0x0 DUP1 REVERT JUMPDEST POP PUSH2 0x20B3 DUP6 DUP3 DUP7 ADD PUSH2 0x1ECA JUMP JUMPDEST SWAP2 POP POP SWAP3 POP SWAP3 SWAP1 POP JUMP JUMPDEST PUSH1 0x0 DUP2 MLOAD DUP1 DUP5 MSTORE PUSH1 0x20 DUP1 DUP6 ADD SWAP5 POP DUP1 DUP5 ADD PUSH1 0x0 JUMPDEST DUP4 DUP2 LT ISZERO PUSH2 0x20ED JUMPI DUP2 MLOAD DUP8 MSTORE SWAP6 DUP3 ADD SWAP6 SWAP1 DUP3 ADD SWAP1 PUSH1 0x1 ADD PUSH2 0x20D1 JUMP JUMPDEST POP SWAP5 SWAP6 SWAP5 POP POP POP POP POP JUMP JUMPDEST PUSH1 0x20 DUP2 MSTORE PUSH1 0x0 PUSH2 0x1CDF PUSH1 0x20 DUP4 ADD DUP5 PUSH2 0x20BD JUMP JUMPDEST DUP6 DUP2 MSTORE PUSH1 0xA0 PUSH1 0x20 DUP3 ADD MSTORE PUSH1 0x0 PUSH2 0x2124 PUSH1 0xA0 DUP4 ADD DUP8 PUSH2 0x1CFF JUMP JUMPDEST PUSH1 0x40 DUP4 ADD SWAP6 SWAP1 SWAP6 MSTORE POP PUSH1 0x60 DUP2 ADD SWAP3 SWAP1 SWAP3 MSTORE ISZERO ISZERO PUSH1 0x80 SWAP1 SWAP2 ADD MSTORE SWAP3 SWAP2 POP POP JUMP JUMPDEST PUSH1 0x0 DUP1 PUSH1 0x0 PUSH1 0x60 DUP5 DUP7 SUB SLT ISZERO PUSH2 0x2158 JUMPI PUSH1 0x0 DUP1 REVERT JUMPDEST POP POP DUP2 CALLDATALOAD SWAP4 PUSH1 0x20 DUP4 ADD CALLDATALOAD SWAP4 POP PUSH1 0x40 SWAP1 SWAP3 ADD CALLDATALOAD SWAP2 SWAP1 POP JUMP JUMPDEST DUP1 ISZERO ISZERO DUP2 EQ PUSH2 0x157C JUMPI PUSH1 0x0 DUP1 REVERT JUMPDEST PUSH1 0x0 DUP1 PUSH1 0x40 DUP4 DUP6 SUB SLT ISZERO PUSH2 0x2190 JUMPI PUSH1 0x0 DUP1 REVERT JUMPDEST PUSH2 0x2199 DUP4 PUSH2 0x1C66 JUMP JUMPDEST SWAP2 POP PUSH1 0x20 DUP4 ADD CALLDATALOAD PUSH2 0x21A9 DUP2 PUSH2 0x216F JUMP JUMPDEST DUP1 SWAP2 POP POP SWAP3 POP SWAP3 SWAP1 POP JUMP JUMPDEST PUSH1 0x0 DUP1 DUP4 PUSH1 0x1F DUP5 ADD SLT PUSH2 0x21C6 JUMPI PUSH1 0x0 DUP1 REVERT JUMPDEST POP DUP2 CALLDATALOAD PUSH1 0x1 PUSH1 0x1 PUSH1 0x40 SHL SUB DUP2 GT ISZERO PUSH2 0x21DD JUMPI PUSH1 0x0 DUP1 REVERT JUMPDEST PUSH1 0x20 DUP4 ADD SWAP2 POP DUP4 PUSH1 0x20 DUP3 PUSH1 0x5 SHL DUP6 ADD ADD GT ISZERO PUSH2 0x21F8 JUMPI PUSH1 0x0 DUP1 REVERT JUMPDEST SWAP3 POP SWAP3 SWAP1 POP JUMP JUMPDEST PUSH1 0x0 DUP1 DUP4 PUSH1 0x1F DUP5 ADD SLT PUSH2 0x2211 JUMPI PUSH1 0x0 DUP1 REVERT JUMPDEST POP DUP2 CALLDATALOAD PUSH1 0x1 PUSH1 0x1 PUSH1 0x40 SHL SUB DUP2 GT ISZERO PUSH2 0x2228 JUMPI PUSH1 0x0 DUP1 REVERT JUMPDEST PUSH1 0x20 DUP4 ADD SWAP2 POP DUP4 PUSH1 0x20 DUP3 DUP6 ADD ADD GT ISZERO PUSH2 0x21F8 JUMPI PUSH1 0x0 DUP1 REVERT JUMPDEST PUSH1 0x0 DUP1 PUSH1 0x0 DUP1 PUSH1 0x0 DUP1 PUSH1 0x0 DUP1 PUSH1 0xA0 DUP10 DUP12 SUB SLT ISZERO PUSH2 0x225C JUMPI PUSH1 0x0 DUP1 REVERT JUMPDEST PUSH2 0x2265 DUP10 PUSH2 0x1C66 JUMP JUMPDEST SWAP8 POP PUSH2 0x2273 PUSH1 0x20 DUP11 ADD PUSH2 0x1C66 JUMP JUMPDEST SWAP7 POP PUSH1 0x40 DUP10 ADD CALLDATALOAD PUSH1 0x1 PUSH1 0x1 PUSH1 0x40 SHL SUB DUP1 DUP3 GT ISZERO PUSH2 0x228F JUMPI PUSH1 0x0 DUP1 REVERT JUMPDEST PUSH2 0x229B DUP13 DUP4 DUP14 ADD PUSH2 0x21B4 JUMP JUMPDEST SWAP1 SWAP9 POP SWAP7 POP PUSH1 0x60 DUP12 ADD CALLDATALOAD SWAP2 POP DUP1 DUP3 GT ISZERO PUSH2 0x22B4 JUMPI PUSH1 0x0 DUP1 REVERT JUMPDEST PUSH2 0x22C0 DUP13 DUP4 DUP14 ADD PUSH2 0x21B4 JUMP JUMPDEST SWAP1 SWAP7 POP SWAP5 POP PUSH1 0x80 DUP12 ADD CALLDATALOAD SWAP2 POP DUP1 DUP3 GT ISZERO PUSH2 0x22D9 JUMPI PUSH1 0x0 DUP1 REVERT JUMPDEST POP PUSH2 0x22E6 DUP12 DUP3 DUP13 ADD PUSH2 0x21FF JUMP JUMPDEST SWAP10 SWAP13 SWAP9 SWAP12 POP SWAP7 SWAP10 POP SWAP5 SWAP8 SWAP4 SWAP7 SWAP3 SWAP6 SWAP5 POP POP POP JUMP JUMPDEST PUSH1 0x0 DUP1 PUSH1 0x40 DUP4 DUP6 SUB SLT ISZERO PUSH2 0x230D JUMPI PUSH1 0x0 DUP1 REVERT JUMPDEST PUSH2 0x2316 DUP4 PUSH2 0x1C66 JUMP JUMPDEST SWAP2 POP PUSH2 0x2324 PUSH1 0x20 DUP5 ADD PUSH2 0x1C66 JUMP JUMPDEST SWAP1 POP SWAP3 POP SWAP3 SWAP1 POP JUMP JUMPDEST PUSH1 0x0 DUP1 PUSH1 0x0 DUP1 PUSH1 0x0 DUP1 PUSH1 0xA0 DUP8 DUP10 SUB SLT ISZERO PUSH2 0x2346 JUMPI PUSH1 0x0 DUP1 REVERT JUMPDEST PUSH2 0x234F DUP8 PUSH2 0x1C66 JUMP JUMPDEST SWAP6 POP PUSH2 0x235D PUSH1 0x20 DUP9 ADD PUSH2 0x1C66 JUMP JUMPDEST SWAP5 POP PUSH1 0x40 DUP8 ADD CALLDATALOAD SWAP4 POP PUSH1 0x60 DUP8 ADD CALLDATALOAD SWAP3 POP PUSH1 0x80 DUP8 ADD CALLDATALOAD PUSH1 0x1 PUSH1 0x1 PUSH1 0x40 SHL SUB DUP2 GT ISZERO PUSH2 0x2386 JUMPI PUSH1 0x0 DUP1 REVERT JUMPDEST PUSH2 0x2392 DUP10 DUP3 DUP11 ADD PUSH2 0x21FF JUMP JUMPDEST SWAP8 SWAP11 SWAP7 SWAP10 POP SWAP5 SWAP8 POP SWAP3 SWAP6 SWAP4 SWAP5 SWAP3 POP POP POP JUMP JUMPDEST PUSH1 0x0 DUP1 PUSH1 0x0 DUP1 PUSH1 0x0 PUSH1 0xA0 DUP7 DUP9 SUB SLT ISZERO PUSH2 0x23BC JUMPI PUSH1 0x0 DUP1 REVERT JUMPDEST PUSH2 0x23C5 DUP7 PUSH2 0x1C66 JUMP JUMPDEST SWAP5 POP PUSH2 0x23D3 PUSH1 0x20 DUP8 ADD PUSH2 0x1C66 JUMP JUMPDEST SWAP4 POP PUSH1 0x40 DUP7 ADD CALLDATALOAD SWAP3 POP PUSH1 0x60 DUP7 ADD CALLDATALOAD SWAP2 POP PUSH1 0x80 DUP7 ADD CALLDATALOAD PUSH1 0x1 PUSH1 0x1 PUSH1 0x40 SHL SUB DUP2 GT ISZERO PUSH2 0x23FC JUMPI PUSH1 0x0 DUP1 REVERT JUMPDEST PUSH2 0x1FF1 DUP9 DUP3 DUP10 ADD PUSH2 0x1F35 JUMP JUMPDEST PUSH1 0x1 DUP2 DUP2 SHR SWAP1 DUP3 AND DUP1 PUSH2 0x241C JUMPI PUSH1 0x7F DUP3 AND SWAP2 POP JUMPDEST PUSH1 0x20 DUP3 LT DUP2 SUB PUSH2 0x243C JUMPI PUSH4 0x4E487B71 PUSH1 0xE0 SHL PUSH1 0x0 MSTORE PUSH1 0x22 PUSH1 0x4 MSTORE PUSH1 0x24 PUSH1 0x0 REVERT JUMPDEST POP SWAP2 SWAP1 POP JUMP JUMPDEST PUSH4 0x4E487B71 PUSH1 0xE0 SHL PUSH1 0x0 MSTORE PUSH1 0x11 PUSH1 0x4 MSTORE PUSH1 0x24 PUSH1 0x0 REVERT JUMPDEST DUP1 DUP3 MUL DUP2 ISZERO DUP3 DUP3 DIV DUP5 EQ OR PUSH2 0x53D JUMPI PUSH2 0x53D PUSH2 0x2442 JUMP JUMPDEST PUSH1 0x0 DUP3 PUSH2 0x248C JUMPI PUSH4 0x4E487B71 PUSH1 0xE0 SHL PUSH1 0x0 MSTORE PUSH1 0x12 PUSH1 0x4 MSTORE PUSH1 0x24 PUSH1 0x0 REVERT JUMPDEST POP DIV SWAP1 JUMP JUMPDEST DUP2 DUP2 SUB DUP2 DUP2 GT ISZERO PUSH2 0x53D JUMPI PUSH2 0x53D PUSH2 0x2442 JUMP JUMPDEST PUSH1 0x0 PUSH1 0x20 DUP3 DUP5 SUB SLT ISZERO PUSH2 0x24B6 JUMPI PUSH1 0x0 DUP1 REVERT JUMPDEST DUP2 MLOAD PUSH2 0x1CDF DUP2 PUSH2 0x216F JUMP JUMPDEST PUSH1 0x20 DUP1 DUP3 MSTORE PUSH1 0x14 SWAP1 DUP3 ADD MSTORE PUSH20 0x1554D110C81D1C985B9CD9995C8819985A5B1959 PUSH1 0x62 SHL PUSH1 0x40 DUP3 ADD MSTORE PUSH1 0x60 ADD SWAP1 JUMP JUMPDEST DUP1 DUP3 ADD DUP1 DUP3 GT ISZERO PUSH2 0x53D JUMPI PUSH2 0x53D PUSH2 0x2442 JUMP JUMPDEST PUSH1 0x1F DUP3 GT ISZERO PUSH2 0x2548 JUMPI PUSH1 0x0 DUP2 DUP2 MSTORE PUSH1 0x20 DUP2 KECCAK256 PUSH1 0x1F DUP6 ADD PUSH1 0x5 SHR DUP2 ADD PUSH1 0x20 DUP7 LT ISZERO PUSH2 0x2529 JUMPI POP DUP1 JUMPDEST PUSH1 0x1F DUP6 ADD PUSH1 0x5 SHR DUP3 ADD SWAP2 POP JUMPDEST DUP2 DUP2 LT ISZERO PUSH2 0xD7F JUMPI DUP3 DUP2 SSTORE PUSH1 0x1 ADD PUSH2 0x2535 JUMP JUMPDEST POP POP POP JUMP JUMPDEST DUP2 MLOAD PUSH1 0x1 PUSH1 0x1 PUSH1 0x40 SHL SUB DUP2 GT ISZERO PUSH2 0x2566 JUMPI PUSH2 0x2566 PUSH2 0x1D95 JUMP JUMPDEST PUSH2 0x257A DUP2 PUSH2 0x2574 DUP5 SLOAD PUSH2 0x2408 JUMP JUMPDEST DUP5 PUSH2 0x2502 JUMP JUMPDEST PUSH1 0x20 DUP1 PUSH1 0x1F DUP4 GT PUSH1 0x1 DUP2 EQ PUSH2 0x25AF JUMPI PUSH1 0x0 DUP5 ISZERO PUSH2 0x2597 JUMPI POP DUP6 DUP4 ADD MLOAD JUMPDEST PUSH1 0x0 NOT PUSH1 0x3 DUP7 SWAP1 SHL SHR NOT AND PUSH1 0x1 DUP6 SWAP1 SHL OR DUP6 SSTORE PUSH2 0xD7F JUMP JUMPDEST PUSH1 0x0 DUP6 DUP2 MSTORE PUSH1 0x20 DUP2 KECCAK256 PUSH1 0x1F NOT DUP7 AND SWAP2 JUMPDEST DUP3 DUP2 LT ISZERO PUSH2 0x25DE JUMPI DUP9 DUP7 ADD MLOAD DUP3 SSTORE SWAP5 DUP5 ADD SWAP5 PUSH1 0x1 SWAP1 SWAP2 ADD SWAP1 DUP5 ADD PUSH2 0x25BF JUMP JUMPDEST POP DUP6 DUP3 LT ISZERO PUSH2 0x25FC JUMPI DUP8 DUP6 ADD MLOAD PUSH1 0x0 NOT PUSH1 0x3 DUP9 SWAP1 SHL PUSH1 0xF8 AND SHR NOT AND DUP2 SSTORE JUMPDEST POP POP POP POP POP PUSH1 0x1 SWAP1 DUP2 SHL ADD SWAP1 SSTORE POP JUMP JUMPDEST DUP5 DUP2 MSTORE PUSH1 0x80 PUSH1 0x20 DUP3 ADD MSTORE PUSH1 0x0 PUSH2 0x2625 PUSH1 0x80 DUP4 ADD DUP7 PUSH2 0x1CFF JUMP JUMPDEST PUSH1 0x40 DUP4 ADD SWAP5 SWAP1 SWAP5 MSTORE POP PUSH1 0x60 ADD MSTORE SWAP3 SWAP2 POP POP JUMP JUMPDEST PUSH1 0x0 PUSH1 0x20 DUP3 DUP5 SUB SLT ISZERO PUSH2 0x264A JUMPI PUSH1 0x0 DUP1 REVERT JUMPDEST POP MLOAD SWAP2 SWAP1 POP JUMP JUMPDEST PUSH4 0x4E487B71 PUSH1 0xE0 SHL PUSH1 0x0 MSTORE PUSH1 0x32 PUSH1 0x4 MSTORE PUSH1 0x24 PUSH1 0x0 REVERT JUMPDEST PUSH1 0x0 PUSH1 0x1 DUP3 ADD PUSH2 0x2679 JUMPI PUSH2 0x2679 PUSH2 0x2442 JUMP JUMPDEST POP PUSH1 0x1 ADD SWAP1 JUMP JUMPDEST PUSH1 0x40 DUP2 MSTORE PUSH1 0x0 PUSH2 0x2693 PUSH1 0x40 DUP4 ADD DUP6 PUSH2 0x20BD JUMP JUMPDEST DUP3 DUP2 SUB PUSH1 0x20 DUP5 ADD MSTORE PUSH2 0x26A5 DUP2 DUP6 PUSH2 0x20BD JUMP JUMPDEST SWAP6 SWAP5 POP POP POP POP POP JUMP JUMPDEST PUSH1 0x1 PUSH1 0x1 PUSH1 0xA0 SHL SUB DUP7 DUP2 AND DUP3 MSTORE DUP6 AND PUSH1 0x20 DUP3 ADD MSTORE PUSH1 0x40 DUP2 ADD DUP5 SWAP1 MSTORE PUSH1 0x60 DUP2 ADD DUP4 SWAP1 MSTORE PUSH1 0xA0 PUSH1 0x80 DUP3 ADD DUP2 SWAP1 MSTORE PUSH1 0x0 SWAP1 PUSH2 0x26E8 SWAP1 DUP4 ADD DUP5 PUSH2 0x1CFF JUMP JUMPDEST SWAP8 SWAP7 POP POP POP POP POP POP POP JUMP JUMPDEST PUSH1 0x0 PUSH1 0x20 DUP3 DUP5 SUB SLT ISZERO PUSH2 0x2705 JUMPI PUSH1 0x0 DUP1 REVERT JUMPDEST DUP2 MLOAD PUSH2 0x1CDF DUP2 PUSH2 0x1CAC JUMP JUMPDEST PUSH1 0x1 PUSH1 0x1 PUSH1 0xA0 SHL SUB DUP7 DUP2 AND DUP3 MSTORE DUP6 AND PUSH1 0x20 DUP3 ADD MSTORE PUSH1 0xA0 PUSH1 0x40 DUP3 ADD DUP2 SWAP1 MSTORE PUSH1 0x0 SWAP1 PUSH2 0x273C SWAP1 DUP4 ADD DUP7 PUSH2 0x20BD JUMP JUMPDEST DUP3 DUP2 SUB PUSH1 0x60 DUP5 ADD MSTORE PUSH2 0x274E DUP2 DUP7 PUSH2 0x20BD JUMP JUMPDEST SWAP1 POP DUP3 DUP2 SUB PUSH1 0x80 DUP5 ADD MSTORE PUSH2 0x2762 DUP2 DUP6 PUSH2 0x1CFF JUMP JUMPDEST SWAP9 SWAP8 POP POP POP POP POP POP POP POP JUMP INVALID LOG2 PUSH5 0x6970667358 0x22 SLT KECCAK256 KECCAK256 0x5C 0xBD CHAINID PUSH7 0xC379D11DCB6F64 PUSH8 0x7720E80F6E563700 0x26 CREATE2 0x2B MSTORE8 PUSH25 0x5BA827E2958764736F6C634300081400330000000000000000 "},"gasEstimates":{"creation":{"codeDepositCost":"2029600","executionCost":"infinite","totalCost":"infinite"},"external":{"FEE_DENOMINATOR()":"295","NFT_PRICE()":"274","addScoreNFT(uint256,uint256,string,uint256,uint256)":"infinite","balanceOf(address,uint256)":"2683","balanceOfBatch(address[],uint256[])":"infinite","buyOrder(uint256,uint256)":"infinite","cancelOrder(uint256)":"infinite","closeMint(uint256)":"26758","createOrder(uint256,uint256,uint256)":"infinite","feeBalance()":"2330","feeRate()":"2351","isApprovedForAll(address,address)":"infinite","isMintable(uint256)":"2561","mint(uint256,uint256)":"infinite","nextOrderId()":"2396","onERC1155BatchReceived(address,address,uint256[],uint256[],bytes)":"infinite","onERC1155Received(address,address,uint256,uint256,bytes)":"infinite","orders(uint256)":"13208","owner()":"2376","renounceOwnership()":"infinite","safeBatchTransferFrom(address,address,uint256[],uint256[],bytes)":"infinite","safeTransferFrom(address,address,uint256,uint256,bytes)":"infinite","scoreInfos(uint256)":"infinite","setApprovalForAll(address,bool)":"infinite","setFeeRate(uint256)":"25624","supportsInterface(bytes4)":"601","transferOwnership(address)":"28446","uri(uint256)":"infinite","usdc()":"2427","withdrawFee(address)":"infinite","withdrawUSDC(address,uint256)":"infinite"}},"methodIdentifiers":{"FEE_DENOMINATOR()":"d73792a9","NFT_PRICE()":"676dd563","addScoreNFT(uint256,uint256,string,uint256,uint256)":"2c9751fb","balanceOf(address,uint256)":"00fdd58e","balanceOfBatch(address[],uint256[])":"4e1273f4","buyOrder(uint256,uint256)":"142ee8d8","cancelOrder(uint256)":"514fcac7","closeMint(uint256)":"c68ac6b0","createOrder(uint256,uint256,uint256)":"a1ba444d","feeBalance()":"60b71d4e","feeRate()":"978bbdb9","isApprovedForAll(address,address)":"e985e9c5","isMintable(uint256)":"5b31cb36","mint(uint256,uint256)":"1b2ef1ca","nextOrderId()":"2a58b330","onERC1155BatchReceived(address,address,uint256[],uint256[],bytes)":"bc197c81","onERC1155Received(address,address,uint256,uint256,bytes)":"f23a6e61","orders(uint256)":"a85c38ef","owner()":"8da5cb5b","renounceOwnership()":"715018a6","safeBatchTransferFrom(address,address,uint256[],uint256[],bytes)":"2eb2c2d6","safeTransferFrom(address,address,uint256,uint256,bytes)":"f242432a","scoreInfos(uint256)":"6646300e","setApprovalForAll(address,bool)":"a22cb465","setFeeRate(uint256)":"45596e2e","supportsInterface(bytes4)":"01ffc9a7","transferOwnership(address)":"f2fde38b","uri(uint256)":"0e89341c","usdc()":"3e413bee","withdrawFee(address)":"1ac3ddeb","withdrawUSDC(address,uint256)":"44471fd9"}},"storageLayout":{"storage":[{"astId":326,"contract":"contracts/FootballBetting1155.sol:FootballBetting1155","label":"_balances","offset":0,"slot":"0","type":"t_mapping(t_uint256,t_mapping(t_address,t_uint256))"},{"astId":332,"contract":"contracts/FootballBetting1155.sol:FootballBetting1155","label":"_operatorApprovals","offset":0,"slot":"1","type":"t_mapping(t_address,t_mapping(t_address,t_bool))"},{"astId":334,"contract":"contracts/FootballBetting1155.sol:FootballBetting1155","label":"_uri","offset":0,"slot":"2","type":"t_string_storage"},{"astId":8,"contract":"contracts/FootballBetting1155.sol:FootballBetting1155","label":"_owner","offset":0,"slot":"3","type":"t_address"},{"astId":6394,"contract":"contracts/FootballBetting1155.sol:FootballBetting1155","label":"usdc","offset":0,"slot":"4","type":"t_contract(IERC20)1614"},{"astId":6400,"contract":"contracts/FootballBetting1155.sol:FootballBetting1155","label":"feeRate","offset":0,"slot":"5","type":"t_uint256"},{"astId":6405,"contract":"contracts/FootballBetting1155.sol:FootballBetting1155","label":"feeBalance","offset":0,"slot":"6","type":"t_uint256"},{"astId":6421,"contract":"contracts/FootballBetting1155.sol:FootballBetting1155","label":"scoreInfos","offset":0,"slot":"7","type":"t_mapping(t_uint256,t_struct(ScoreInfo)6416_storage)"},{"astId":6425,"contract":"contracts/FootballBetting1155.sol:FootballBetting1155","label":"isMintable","offset":0,"slot":"8","type":"t_mapping(t_uint256,t_bool)"},{"astId":6443,"contract":"contracts/FootballBetting1155.sol:FootballBetting1155","label":"orders","offset":0,"slot":"9","type":"t_mapping(t_uint256,t_struct(Order)6438_storage)"},{"astId":6445,"contract":"contracts/FootballBetting1155.sol:FootballBetting1155","label":"nextOrderId","offset":0,"slot":"10","type":"t_uint256"}],"types":{"t_address":{"encoding":"inplace","label":"address","numberOfBytes":"20"},"t_bool":{"encoding":"inplace","label":"bool","numberOfBytes":"1"},"t_contract(IERC20)1614":{"encoding":"inplace","label":"contract IERC20","numberOfBytes":"20"},"t_mapping(t_address,t_bool)":{"encoding":"mapping","key":"t_address","label":"mapping(address => bool)","numberOfBytes":"32","value":"t_bool"},"t_mapping(t_address,t_mapping(t_address,t_bool))":{"encoding":"mapping","key":"t_address","label":"mapping(address => mapping(address => bool))","numberOfBytes":"32","value":"t_mapping(t_address,t_bool)"},"t_mapping(t_address,t_uint256)":{"encoding":"mapping","key":"t_address","label":"mapping(address => uint256)","numberOfBytes":"32","value":"t_uint256"},"t_mapping(t_uint256,t_bool)":{"encoding":"mapping","key":"t_uint256","label":"mapping(uint256 => bool)","numberOfBytes":"32","value":"t_bool"},"t_mapping(t_uint256,t_mapping(t_address,t_uint256))":{"encoding":"mapping","key":"t_uint256","label":"mapping(uint256 => mapping(address => uint256))","numberOfBytes":"32","value":"t_mapping(t_address,t_uint256)"},"t_mapping(t_uint256,t_struct(Order)6438_storage)":{"encoding":"mapping","key":"t_uint256","label":"mapping(uint256 => struct FootballBetting1155.Order)","numberOfBytes":"32","value":"t_struct(Order)6438_storage"},"t_mapping(t_uint256,t_struct(ScoreInfo)6416_storage)":{"encoding":"mapping","key":"t_uint256","label":"mapping(uint256 => struct FootballBetting1155.ScoreInfo)","numberOfBytes":"32","value":"t_struct(ScoreInfo)6416_storage"},"t_string_storage":{"encoding":"bytes","label":"string","numberOfBytes":"32"},"t_struct(Order)6438_storage":{"encoding":"inplace","label":"struct FootballBetting1155.Order","members":[{"astId":6427,"contract":"contracts/FootballBetting1155.sol:FootballBetting1155","label":"seller","offset":0,"slot":"0","type":"t_address"},{"astId":6429,"contract":"contracts/FootballBetting1155.sol:FootballBetting1155","label":"tokenId","offset":0,"slot":"1","type":"t_uint256"},{"astId":6431,"contract":"contracts/FootballBetting1155.sol:FootballBetting1155","label":"amount","offset":0,"slot":"2","type":"t_uint256"},{"astId":6433,"contract":"contracts/FootballBetting1155.sol:FootballBetting1155","label":"pricePerNFT","offset":0,"slot":"3","type":"t_uint256"},{"astId":6435,"contract":"contracts/FootballBetting1155.sol:FootballBetting1155","label":"remaining","offset":0,"slot":"4","type":"t_uint256"},{"astId":6437,"contract":"contracts/FootballBetting1155.sol:FootballBetting1155","label":"active","offset":0,"slot":"5","type":"t_bool"}],"numberOfBytes":"192"},"t_struct(ScoreInfo)6416_storage":{"encoding":"inplace","label":"struct FootballBetting1155.ScoreInfo","members":[{"astId":6407,"contract":"contracts/FootballBetting1155.sol:FootballBetting1155","label":"matchId","offset":0,"slot":"0","type":"t_uint256"},{"astId":6409,"contract":"contracts/FootballBetting1155.sol:FootballBetting1155","label":"score","offset":0,"slot":"1","type":"t_string_storage"},{"astId":6411,"contract":"contracts/FootballBetting1155.sol:FootballBetting1155","label":"odds","offset":0,"slot":"2","type":"t_uint256"},{"astId":6413,"contract":"contracts/FootballBetting1155.sol:FootballBetting1155","label":"saleEndTime","offset":0,"slot":"3","type":"t_uint256"},{"astId":6415,"contract":"contracts/FootballBetting1155.sol:FootballBetting1155","label":"exists","offset":0,"slot":"4","type":"t_bool"}],"numberOfBytes":"160"},"t_uint256":{"encoding":"inplace","label":"uint256","numberOfBytes":"32"}}},"userdoc":{"kind":"user","methods":{},"version":1}}}}