{
  "address": "0x04bF90d5bd2C8D210a557378FA26cdEbDEB2dD8a",
  "abi": [
    {
      "inputs": [
        {
          "internalType": "string",
          "name": "uri",
          "type": "string"
        },
        {
          "internalType": "address",
          "name": "usdcAddress",
          "type": "address"
        }
      ],
      "stateMutability": "nonpayable",
      "type": "constructor"
    },
    {
      "inputs": [
        {
          "internalType": "address",
          "name": "sender",
          "type": "address"
        },
        {
          "internalType": "uint256",
          "name": "balance",
          "type": "uint256"
        },
        {
          "internalType": "uint256",
          "name": "needed",
          "type": "uint256"
        },
        {
          "internalType": "uint256",
          "name": "tokenId",
          "type": "uint256"
        }
      ],
      "name": "ERC1155InsufficientBalance",
      "type": "error"
    },
    {
      "inputs": [
        {
          "internalType": "address",
          "name": "approver",
          "type": "address"
        }
      ],
      "name": "ERC1155InvalidApprover",
      "type": "error"
    },
    {
      "inputs": [
        {
          "internalType": "uint256",
          "name": "idsLength",
          "type": "uint256"
        },
        {
          "internalType": "uint256",
          "name": "valuesLength",
          "type": "uint256"
        }
      ],
      "name": "ERC1155InvalidArrayLength",
      "type": "error"
    },
    {
      "inputs": [
        {
          "internalType": "address",
          "name": "operator",
          "type": "address"
        }
      ],
      "name": "ERC1155InvalidOperator",
      "type": "error"
    },
    {
      "inputs": [
        {
          "internalType": "address",
          "name": "receiver",
          "type": "address"
        }
      ],
      "name": "ERC1155InvalidReceiver",
      "type": "error"
    },
    {
      "inputs": [
        {
          "internalType": "address",
          "name": "sender",
          "type": "address"
        }
      ],
      "name": "ERC1155InvalidSender",
      "type": "error"
    },
    {
      "inputs": [
        {
          "internalType": "address",
          "name": "operator",
          "type": "address"
        },
        {
          "internalType": "address",
          "name": "owner",
          "type": "address"
        }
      ],
      "name": "ERC1155MissingApprovalForAll",
      "type": "error"
    },
    {
      "inputs": [
        {
          "internalType": "address",
          "name": "owner",
          "type": "address"
        }
      ],
      "name": "OwnableInvalidOwner",
      "type": "error"
    },
    {
      "inputs": [
        {
          "internalType": "address",
          "name": "account",
          "type": "address"
        }
      ],
      "name": "OwnableUnauthorizedAccount",
      "type": "error"
    },
    {
      "anonymous": false,
      "inputs": [
        {
          "indexed": true,
          "internalType": "address",
          "name": "account",
          "type": "address"
        },
        {
          "indexed": true,
          "internalType": "address",
          "name": "operator",
          "type": "address"
        },
        {
          "indexed": false,
          "internalType": "bool",
          "name": "approved",
          "type": "bool"
        }
      ],
      "name": "ApprovalForAll",
      "type": "event"
    },
    {
      "anonymous": false,
      "inputs": [
        {
          "indexed": false,
          "internalType": "uint256",
          "name": "newFeeRate",
          "type": "uint256"
        }
      ],
      "name": "FeeRateChanged",
      "type": "event"
    },
    {
      "anonymous": false,
      "inputs": [
        {
          "indexed": true,
          "internalType": "address",
          "name": "to",
          "type": "address"
        },
        {
          "indexed": false,
          "internalType": "uint256",
          "name": "amount",
          "type": "uint256"
        }
      ],
      "name": "FeeWithdrawn",
      "type": "event"
    },
    {
      "anonymous": false,
      "inputs": [
        {
          "indexed": true,
          "internalType": "address",
          "name": "user",
          "type": "address"
        },
        {
          "indexed": true,
          "internalType": "uint256",
          "name": "tokenId",
          "type": "uint256"
        },
        {
          "indexed": false,
          "internalType": "uint256",
          "name": "amount",
          "type": "uint256"
        }
      ],
      "name": "Mint",
      "type": "event"
    },
    {
      "anonymous": false,
      "inputs": [
        {
          "indexed": true,
          "internalType": "uint256",
          "name": "orderId",
          "type": "uint256"
        }
      ],
      "name": "OrderCancelled",
      "type": "event"
    },
    {
      "anonymous": false,
      "inputs": [
        {
          "indexed": true,
          "internalType": "uint256",
          "name": "orderId",
          "type": "uint256"
        },
        {
          "indexed": true,
          "internalType": "address",
          "name": "seller",
          "type": "address"
        },
        {
          "indexed": false,
          "internalType": "uint256",
          "name": "tokenId",
          "type": "uint256"
        },
        {
          "indexed": false,
          "internalType": "uint256",
          "name": "amount",
          "type": "uint256"
        },
        {
          "indexed": false,
          "internalType": "uint256",
          "name": "pricePerNFT",
          "type": "uint256"
        }
      ],
      "name": "OrderCreated",
      "type": "event"
    },
    {
      "anonymous": false,
      "inputs": [
        {
          "indexed": true,
          "internalType": "uint256",
          "name": "orderId",
          "type": "uint256"
        },
        {
          "indexed": true,
          "internalType": "address",
          "name": "buyer",
          "type": "address"
        },
        {
          "indexed": false,
          "internalType": "uint256",
          "name": "amount",
          "type": "uint256"
        },
        {
          "indexed": false,
          "internalType": "uint256",
          "name": "totalPrice",
          "type": "uint256"
        },
        {
          "indexed": false,
          "internalType": "uint256",
          "name": "fee",
          "type": "uint256"
        }
      ],
      "name": "OrderFilled",
      "type": "event"
    },
    {
      "anonymous": false,
      "inputs": [
        {
          "indexed": true,
          "internalType": "address",
          "name": "previousOwner",
          "type": "address"
        },
        {
          "indexed": true,
          "internalType": "address",
          "name": "newOwner",
          "type": "address"
        }
      ],
      "name": "OwnershipTransferred",
      "type": "event"
    },
    {
      "anonymous": false,
      "inputs": [
        {
          "indexed": true,
          "internalType": "uint256",
          "name": "tokenId",
          "type": "uint256"
        },
        {
          "indexed": false,
          "internalType": "uint256",
          "name": "matchId",
          "type": "uint256"
        },
        {
          "indexed": false,
          "internalType": "string",
          "name": "score",
          "type": "string"
        },
        {
          "indexed": false,
          "internalType": "uint256",
          "name": "odds",
          "type": "uint256"
        },
        {
          "indexed": false,
          "internalType": "uint256",
          "name": "saleEndTime",
          "type": "uint256"
        }
      ],
      "name": "ScoreNFTAdded",
      "type": "event"
    },
    {
      "anonymous": false,
      "inputs": [
        {
          "indexed": true,
          "internalType": "address",
          "name": "operator",
          "type": "address"
        },
        {
          "indexed": true,
          "internalType": "address",
          "name": "from",
          "type": "address"
        },
        {
          "indexed": true,
          "internalType": "address",
          "name": "to",
          "type": "address"
        },
        {
          "indexed": false,
          "internalType": "uint256[]",
          "name": "ids",
          "type": "uint256[]"
        },
        {
          "indexed": false,
          "internalType": "uint256[]",
          "name": "values",
          "type": "uint256[]"
        }
      ],
      "name": "TransferBatch",
      "type": "event"
    },
    {
      "anonymous": false,
      "inputs": [
        {
          "indexed": true,
          "internalType": "address",
          "name": "operator",
          "type": "address"
        },
        {
          "indexed": true,
          "internalType": "address",
          "name": "from",
          "type": "address"
        },
        {
          "indexed": true,
          "internalType": "address",
          "name": "to",
          "type": "address"
        },
        {
          "indexed": false,
          "internalType": "uint256",
          "name": "id",
          "type": "uint256"
        },
        {
          "indexed": false,
          "internalType": "uint256",
          "name": "value",
          "type": "uint256"
        }
      ],
      "name": "TransferSingle",
      "type": "event"
    },
    {
      "anonymous": false,
      "inputs": [
        {
          "indexed": false,
          "internalType": "string",
          "name": "value",
          "type": "string"
        },
        {
          "indexed": true,
          "internalType": "uint256",
          "name": "id",
          "type": "uint256"
        }
      ],
      "name": "URI",
      "type": "event"
    },
    {
      "anonymous": false,
      "inputs": [
        {
          "indexed": true,
          "internalType": "address",
          "name": "to",
          "type": "address"
        },
        {
          "indexed": false,
          "internalType": "uint256",
          "name": "amount",
          "type": "uint256"
        }
      ],
      "name": "USDCWithdrawn",
      "type": "event"
    },
    {
      "inputs": [],
      "name": "FEE_DENOMINATOR",
      "outputs": [
        {
          "internalType": "uint256",
          "name": "",
          "type": "uint256"
        }
      ],
      "stateMutability": "view",
      "type": "function"
    },
    {
      "inputs": [],
      "name": "NFT_PRICE",
      "outputs": [
        {
          "internalType": "uint256",
          "name": "",
          "type": "uint256"
        }
      ],
      "stateMutability": "view",
      "type": "function"
    },
    {
      "inputs": [
        {
          "internalType": "uint256",
          "name": "tokenId",
          "type": "uint256"
        },
        {
          "internalType": "uint256",
          "name": "matchId",
          "type": "uint256"
        },
        {
          "internalType": "string",
          "name": "score",
          "type": "string"
        },
        {
          "internalType": "uint256",
          "name": "odds",
          "type": "uint256"
        },
        {
          "internalType": "uint256",
          "name": "saleEndTime",
          "type": "uint256"
        }
      ],
      "name": "addScoreNFT",
      "outputs": [],
      "stateMutability": "nonpayable",
      "type": "function"
    },
    {
      "inputs": [
        {
          "internalType": "address",
          "name": "account",
          "type": "address"
        },
        {
          "internalType": "uint256",
          "name": "id",
          "type": "uint256"
        }
      ],
      "name": "balanceOf",
      "outputs": [
        {
          "internalType": "uint256",
          "name": "",
          "type": "uint256"
        }
      ],
      "stateMutability": "view",
      "type": "function"
    },
    {
      "inputs": [
        {
          "internalType": "address[]",
          "name": "accounts",
          "type": "address[]"
        },
        {
          "internalType": "uint256[]",
          "name": "ids",
          "type": "uint256[]"
        }
      ],
      "name": "balanceOfBatch",
      "outputs": [
        {
          "internalType": "uint256[]",
          "name": "",
          "type": "uint256[]"
        }
      ],
      "stateMutability": "view",
      "type": "function"
    },
    {
      "inputs": [
        {
          "internalType": "uint256",
          "name": "orderId",
          "type": "uint256"
        },
        {
          "internalType": "uint256",
          "name": "amount",
          "type": "uint256"
        }
      ],
      "name": "buyOrder",
      "outputs": [],
      "stateMutability": "nonpayable",
      "type": "function"
    },
    {
      "inputs": [
        {
          "internalType": "uint256",
          "name": "orderId",
          "type": "uint256"
        }
      ],
      "name": "cancelOrder",
      "outputs": [],
      "stateMutability": "nonpayable",
      "type": "function"
    },
    {
      "inputs": [
        {
          "internalType": "uint256",
          "name": "tokenId",
          "type": "uint256"
        }
      ],
      "name": "closeMint",
      "outputs": [],
      "stateMutability": "nonpayable",
      "type": "function"
    },
    {
      "inputs": [
        {
          "internalType": "uint256",
          "name": "tokenId",
          "type": "uint256"
        },
        {
          "internalType": "uint256",
          "name": "amount",
          "type": "uint256"
        },
        {
          "internalType": "uint256",
          "name": "pricePerNFT",
          "type": "uint256"
        }
      ],
      "name": "createOrder",
      "outputs": [],
      "stateMutability": "nonpayable",
      "type": "function"
    },
    {
      "inputs": [],
      "name": "feeBalance",
      "outputs": [
        {
          "internalType": "uint256",
          "name": "",
          "type": "uint256"
        }
      ],
      "stateMutability": "view",
      "type": "function"
    },
    {
      "inputs": [],
      "name": "feeRate",
      "outputs": [
        {
          "internalType": "uint256",
          "name": "",
          "type": "uint256"
        }
      ],
      "stateMutability": "view",
      "type": "function"
    },
    {
      "inputs": [
        {
          "internalType": "address",
          "name": "account",
          "type": "address"
        },
        {
          "internalType": "address",
          "name": "operator",
          "type": "address"
        }
      ],
      "name": "isApprovedForAll",
      "outputs": [
        {
          "internalType": "bool",
          "name": "",
          "type": "bool"
        }
      ],
      "stateMutability": "view",
      "type": "function"
    },
    {
      "inputs": [
        {
          "internalType": "uint256",
          "name": "",
          "type": "uint256"
        }
      ],
      "name": "isMintable",
      "outputs": [
        {
          "internalType": "bool",
          "name": "",
          "type": "bool"
        }
      ],
      "stateMutability": "view",
      "type": "function"
    },
    {
      "inputs": [
        {
          "internalType": "uint256",
          "name": "tokenId",
          "type": "uint256"
        },
        {
          "internalType": "uint256",
          "name": "amount",
          "type": "uint256"
        }
      ],
      "name": "mint",
      "outputs": [],
      "stateMutability": "nonpayable",
      "type": "function"
    },
    {
      "inputs": [],
      "name": "nextOrderId",
      "outputs": [
        {
          "internalType": "uint256",
          "name": "",
          "type": "uint256"
        }
      ],
      "stateMutability": "view",
      "type": "function"
    },
    {
      "inputs": [
        {
          "internalType": "address",
          "name": "",
          "type": "address"
        },
        {
          "internalType": "address",
          "name": "",
          "type": "address"
        },
        {
          "internalType": "uint256[]",
          "name": "",
          "type": "uint256[]"
        },
        {
          "internalType": "uint256[]",
          "name": "",
          "type": "uint256[]"
        },
        {
          "internalType": "bytes",
          "name": "",
          "type": "bytes"
        }
      ],
      "name": "onERC1155BatchReceived",
      "outputs": [
        {
          "internalType": "bytes4",
          "name": "",
          "type": "bytes4"
        }
      ],
      "stateMutability": "pure",
      "type": "function"
    },
    {
      "inputs": [
        {
          "internalType": "address",
          "name": "",
          "type": "address"
        },
        {
          "internalType": "address",
          "name": "",
          "type": "address"
        },
        {
          "internalType": "uint256",
          "name": "",
          "type": "uint256"
        },
        {
          "internalType": "uint256",
          "name": "",
          "type": "uint256"
        },
        {
          "internalType": "bytes",
          "name": "",
          "type": "bytes"
        }
      ],
      "name": "onERC1155Received",
      "outputs": [
        {
          "internalType": "bytes4",
          "name": "",
          "type": "bytes4"
        }
      ],
      "stateMutability": "pure",
      "type": "function"
    },
    {
      "inputs": [
        {
          "internalType": "uint256",
          "name": "",
          "type": "uint256"
        }
      ],
      "name": "orders",
      "outputs": [
        {
          "internalType": "address",
          "name": "seller",
          "type": "address"
        },
        {
          "internalType": "uint256",
          "name": "tokenId",
          "type": "uint256"
        },
        {
          "internalType": "uint256",
          "name": "amount",
          "type": "uint256"
        },
        {
          "internalType": "uint256",
          "name": "pricePerNFT",
          "type": "uint256"
        },
        {
          "internalType": "uint256",
          "name": "remaining",
          "type": "uint256"
        },
        {
          "internalType": "bool",
          "name": "active",
          "type": "bool"
        }
      ],
      "stateMutability": "view",
      "type": "function"
    },
    {
      "inputs": [],
      "name": "owner",
      "outputs": [
        {
          "internalType": "address",
          "name": "",
          "type": "address"
        }
      ],
      "stateMutability": "view",
      "type": "function"
    },
    {
      "inputs": [],
      "name": "renounceOwnership",
      "outputs": [],
      "stateMutability": "nonpayable",
      "type": "function"
    },
    {
      "inputs": [
        {
          "internalType": "address",
          "name": "from",
          "type": "address"
        },
        {
          "internalType": "address",
          "name": "to",
          "type": "address"
        },
        {
          "internalType": "uint256[]",
          "name": "ids",
          "type": "uint256[]"
        },
        {
          "internalType": "uint256[]",
          "name": "values",
          "type": "uint256[]"
        },
        {
          "internalType": "bytes",
          "name": "data",
          "type": "bytes"
        }
      ],
      "name": "safeBatchTransferFrom",
      "outputs": [],
      "stateMutability": "nonpayable",
      "type": "function"
    },
    {
      "inputs": [
        {
          "internalType": "address",
          "name": "from",
          "type": "address"
        },
        {
          "internalType": "address",
          "name": "to",
          "type": "address"
        },
        {
          "internalType": "uint256",
          "name": "id",
          "type": "uint256"
        },
        {
          "internalType": "uint256",
          "name": "value",
          "type": "uint256"
        },
        {
          "internalType": "bytes",
          "name": "data",
          "type": "bytes"
        }
      ],
      "name": "safeTransferFrom",
      "outputs": [],
      "stateMutability": "nonpayable",
      "type": "function"
    },
    {
      "inputs": [
        {
          "internalType": "uint256",
          "name": "",
          "type": "uint256"
        }
      ],
      "name": "scoreInfos",
      "outputs": [
        {
          "internalType": "uint256",
          "name": "matchId",
          "type": "uint256"
        },
        {
          "internalType": "string",
          "name": "score",
          "type": "string"
        },
        {
          "internalType": "uint256",
          "name": "odds",
          "type": "uint256"
        },
        {
          "internalType": "uint256",
          "name": "saleEndTime",
          "type": "uint256"
        },
        {
          "internalType": "bool",
          "name": "exists",
          "type": "bool"
        }
      ],
      "stateMutability": "view",
      "type": "function"
    },
    {
      "inputs": [
        {
          "internalType": "address",
          "name": "operator",
          "type": "address"
        },
        {
          "internalType": "bool",
          "name": "approved",
          "type": "bool"
        }
      ],
      "name": "setApprovalForAll",
      "outputs": [],
      "stateMutability": "nonpayable",
      "type": "function"
    },
    {
      "inputs": [
        {
          "internalType": "uint256",
          "name": "newFeeRate",
          "type": "uint256"
        }
      ],
      "name": "setFeeRate",
      "outputs": [],
      "stateMutability": "nonpayable",
      "type": "function"
    },
    {
      "inputs": [
        {
          "internalType": "bytes4",
          "name": "interfaceId",
          "type": "bytes4"
        }
      ],
      "name": "supportsInterface",
      "outputs": [
        {
          "internalType": "bool",
          "name": "",
          "type": "bool"
        }
      ],
      "stateMutability": "view",
      "type": "function"
    },
    {
      "inputs": [
        {
          "internalType": "address",
          "name": "newOwner",
          "type": "address"
        }
      ],
      "name": "transferOwnership",
      "outputs": [],
      "stateMutability": "nonpayable",
      "type": "function"
    },
    {
      "inputs": [
        {
          "internalType": "uint256",
          "name": "",
          "type": "uint256"
        }
      ],
      "name": "uri",
      "outputs": [
        {
          "internalType": "string",
          "name": "",
          "type": "string"
        }
      ],
      "stateMutability": "view",
      "type": "function"
    },
    {
      "inputs": [],
      "name": "usdc",
      "outputs": [
        {
          "internalType": "contract IERC20",
          "name": "",
          "type": "address"
        }
      ],
      "stateMutability": "view",
      "type": "function"
    },
    {
      "inputs": [
        {
          "internalType": "address",
          "name": "to",
          "type": "address"
        }
      ],
      "name": "withdrawFee",
      "outputs": [],
      "stateMutability": "nonpayable",
      "type": "function"
    },
    {
      "inputs": [
        {
          "internalType": "address",
          "name": "to",
          "type": "address"
        },
        {
          "internalType": "uint256",
          "name": "amount",
          "type": "uint256"
        }
      ],
      "name": "withdrawUSDC",
      "outputs": [],
      "stateMutability": "nonpayable",
      "type": "function"
    }
  ],
  "transactionHash": "0x70b20727fda335304f5cfc698f967d69f0ae186e15bc76aed5ac2dcfbf744a13",
  "args": [
    "https://your-metadata-uri.com/metadata/{id}.json",
    "0x176211869cA2b568f2A7D4EE941E073a821EE1ff"
  ],
  "numDeployments": 1,
  "solcInputHash": "bc83b29ab6ff8b32e46bb285a620d869",
  "bytecode": "0x608060405260646005553480156200001657600080fd5b5060405162002b3738038062002b37833981016040819052620000399162000140565b33826200004681620000a9565b506001600160a01b0381166200007657604051631e4fbdf760e01b81526000600482015260240160405180910390fd5b6200008181620000bb565b50600480546001600160a01b0319166001600160a01b03929092169190911790555062000383565b6002620000b78282620002b7565b5050565b600380546001600160a01b038381166001600160a01b0319831681179093556040519116919082907f8be0079c531659141344cd1fd0a4f28419497f9722a3daafe3b4186f6b6457e090600090a35050565b634e487b7160e01b600052604160045260246000fd5b80516001600160a01b03811681146200013b57600080fd5b919050565b600080604083850312156200015457600080fd5b82516001600160401b03808211156200016c57600080fd5b818501915085601f8301126200018157600080fd5b8151818111156200019657620001966200010d565b604051601f8201601f19908116603f01168101908382118183101715620001c157620001c16200010d565b81604052828152602093508884848701011115620001de57600080fd5b600091505b82821015620002025784820184015181830185015290830190620001e3565b60008484830101528096505050506200021d81860162000123565b925050509250929050565b600181811c908216806200023d57607f821691505b6020821081036200025e57634e487b7160e01b600052602260045260246000fd5b50919050565b601f821115620002b257600081815260208120601f850160051c810160208610156200028d5750805b601f850160051c820191505b81811015620002ae5782815560010162000299565b5050505b505050565b81516001600160401b03811115620002d357620002d36200010d565b620002eb81620002e4845462000228565b8462000264565b602080601f8311600181146200032357600084156200030a5750858301515b600019600386901b1c1916600185901b178555620002ae565b600085815260208120601f198616915b82811015620003545788860151825594840194600190910190840162000333565b5085821015620003735787850151600019600388901b60f8161c191681555b5050505050600190811b01905550565b6127a480620003936000396000f3fe608060405234801561001057600080fd5b50600436106101e45760003560e01c806360b71d4e1161010f578063a85c38ef116100a2578063e985e9c511610071578063e985e9c5146104c2578063f23a6e61146104d5578063f242432a146104f5578063f2fde38b1461050857600080fd5b8063a85c38ef146103e2578063bc197c811461046b578063c68ac6b0146104a6578063d73792a9146104b957600080fd5b80638da5cb5b116100de5780638da5cb5b146103a2578063978bbdb9146103b3578063a1ba444d146103bc578063a22cb465146103cf57600080fd5b806360b71d4e146103635780636646300e1461036c578063676dd56314610390578063715018a61461039a57600080fd5b80632c9751fb1161018757806345596e2e1161015657806345596e2e146102fa5780634e1273f41461030d578063514fcac71461032d5780635b31cb361461034057600080fd5b80632c9751fb146102965780632eb2c2d6146102a95780633e413bee146102bc57806344471fd9146102e757600080fd5b8063142ee8d8116101c3578063142ee8d8146102525780631ac3ddeb146102675780631b2ef1ca1461027a5780632a58b3301461028d57600080fd5b8062fdd58e146101e957806301ffc9a71461020f5780630e89341c14610232575b600080fd5b6101fc6101f7366004611c82565b61051b565b6040519081526020015b60405180910390f35b61022261021d366004611cc2565b610543565b6040519015158152602001610206565b610245610240366004611ce6565b610593565b6040516102069190611d45565b610265610260366004611d58565b610627565b005b610265610275366004611d7a565b610922565b610265610288366004611d58565b610a4b565b6101fc600a5481565b6102656102a4366004611e32565b610be9565b6102656102b7366004611f55565b610d20565b6004546102cf906001600160a01b031681565b6040516001600160a01b039091168152602001610206565b6102656102f5366004611c82565b610d87565b610265610308366004611ce6565b610f2a565b61032061031b366004611ffe565b610fae565b60405161020691906120f8565b61026561033b366004611ce6565b611082565b61022261034e366004611ce6565b60086020526000908152604090205460ff1681565b6101fc60065481565b61037f61037a366004611ce6565b6111ca565b60405161020695949392919061210b565b6101fc620186a081565b610265611286565b6003546001600160a01b03166102cf565b6101fc60055481565b6102656103ca366004612143565b61129a565b6102656103dd36600461217d565b611486565b6104326103f0366004611ce6565b6009602052600090815260409020805460018201546002830154600384015460048501546005909501546001600160a01b039094169492939192909160ff1686565b604080516001600160a01b03909716875260208701959095529385019290925260608401526080830152151560a082015260c001610206565b61048d610479366004612240565b63bc197c8160e01b98975050505050505050565b6040516001600160e01b03199091168152602001610206565b6102656104b4366004611ce6565b611494565b6101fc61271081565b6102226104d03660046122fa565b6114b4565b61048d6104e336600461232d565b63f23a6e6160e01b9695505050505050565b6102656105033660046123a4565b6114e2565b610265610516366004611d7a565b611541565b6000818152602081815260408083206001600160a01b03861684529091529020545b92915050565b60006001600160e01b03198216636cdb3d1360e11b148061057457506001600160e01b031982166303a24d0760e21b145b8061053d57506301ffc9a760e01b6001600160e01b031983161461053d565b6060600280546105a290612408565b80601f01602080910402602001604051908101604052809291908181526020018280546105ce90612408565b801561061b5780601f106105f05761010080835404028352916020019161061b565b820191906000526020600020905b8154815290600101906020018083116105fe57829003601f168201915b50505050509050919050565b6000828152600960205260409020600581015460ff1661067f5760405162461bcd60e51b815260206004820152600e60248201526d4f7264657220696e61637469766560901b60448201526064015b60405180910390fd5b600082118015610693575080600401548211155b6106d05760405162461bcd60e51b815260206004820152600e60248201526d125b9d985b1a5908185b5bdd5b9d60921b6044820152606401610676565b60008282600301546106e29190612458565b90506000612710600554836106f79190612458565b610701919061246f565b9050600061070f8284612491565b600480546040516323b872dd60e01b81523392810192909252306024830152604482018690529192506001600160a01b03909116906323b872dd906064016020604051808303816000875af115801561076c573d6000803e3d6000fd5b505050506040513d601f19601f8201168201806040525081019061079091906124a4565b6107ac5760405162461bcd60e51b8152600401610676906124c1565b60048054855460405163a9059cbb60e01b81526001600160a01b039182169381019390935260248301849052169063a9059cbb906044016020604051808303816000875af1158015610802573d6000803e3d6000fd5b505050506040513d601f19601f8201168201806040525081019061082691906124a4565b61086a5760405162461bcd60e51b81526020600482015260156024820152741554d110c81d1bc81cd95b1b195c8819985a5b1959605a1b6044820152606401610676565b816006600082825461087c91906124ef565b925050819055506108a330338660010154886040518060200160405280600081525061157f565b848460040160008282546108b79190612491565b909155505060048401546000036108d55760058401805460ff191690555b6040805186815260208101859052908101839052339087907fa8f65fd2b9fdbcd24985d57d69c219e28bdb4d78ce4e83a5049ee8237d09310a9060600160405180910390a3505050505050565b61092a61160d565b6000600654116109655760405162461bcd60e51b81526020600482015260066024820152654e6f2066656560d01b6044820152606401610676565b6004805460065460405163a9059cbb60e01b81526001600160a01b0385811694820194909452602481019190915291169063a9059cbb906044016020604051808303816000875af11580156109be573d6000803e3d6000fd5b505050506040513d601f19601f820116820180604052508101906109e291906124a4565b6109fe5760405162461bcd60e51b8152600401610676906124c1565b806001600160a01b03167f78473f3f373f7673597f4f0fa5873cb4d375fea6d4339ad6b56dbd411513cb3f600654604051610a3b91815260200190565b60405180910390a2506000600655565b60008281526008602052604090205460ff16610a985760405162461bcd60e51b815260206004820152600c60248201526b4e6f74206d696e7461626c6560a01b6044820152606401610676565b6000828152600760205260409020600301544210610ae55760405162461bcd60e51b815260206004820152600a60248201526914d85b1948195b99195960b21b6044820152606401610676565b6000610af482620186a0612458565b600480546040516323b872dd60e01b81523392810192909252306024830152604482018390529192506001600160a01b03909116906323b872dd906064016020604051808303816000875af1158015610b51573d6000803e3d6000fd5b505050506040513d601f19601f82011682018060405250810190610b7591906124a4565b610b915760405162461bcd60e51b8152600401610676906124c1565b610bac3384846040518060200160405280600081525061163a565b604051828152839033907f4c209b5fc8ad50758f13e2e1088ba56a560dff690a1c6fef26394f4c03821c4f906020015b60405180910390a3505050565b610bf161160d565b60008581526007602052604090206004015460ff1615610c445760405162461bcd60e51b815260206004820152600e60248201526d546f6b656e49642065786973747360901b6044820152606401610676565b6040805160a08101825285815260208082018681528284018690526060830185905260016080840181905260008a81526007909352939091208251815590519192909190820190610c95908261254d565b506040828101516002830155606083015160038301556080909201516004909101805491151560ff1992831617905560008781526008602052829020805490911660011790555185907fd11f67d1dfcca01e5d22ed70e5b82c1dd51aeb7202dbdea1d476d15efc67981a90610d1190879087908790879061260c565b60405180910390a25050505050565b336001600160a01b0386168114801590610d415750610d3f86826114b4565b155b15610d725760405163711bec9160e11b81526001600160a01b03808316600483015287166024820152604401610676565b610d7f8686868686611697565b505050505050565b610d8f61160d565b600654610d9c90826124ef565b600480546040516370a0823160e01b815230928101929092526001600160a01b0316906370a0823190602401602060405180830381865afa158015610de5573d6000803e3d6000fd5b505050506040513d601f19601f82011682018060405250810190610e099190612638565b1015610e4e5760405162461bcd60e51b8152602060048201526014602482015273496e73756666696369656e742062616c616e636560601b6044820152606401610676565b6004805460405163a9059cbb60e01b81526001600160a01b03858116938201939093526024810184905291169063a9059cbb906044016020604051808303816000875af1158015610ea3573d6000803e3d6000fd5b505050506040513d601f19601f82011682018060405250810190610ec791906124a4565b610ee35760405162461bcd60e51b8152600401610676906124c1565b816001600160a01b03167f2aa7fb97600ea702b454359fc3d02ae9fa48367e7155505d38cee896e5b5aae782604051610f1e91815260200190565b60405180910390a25050565b610f3261160d565b6103e8811115610f735760405162461bcd60e51b815260206004820152600c60248201526b08ccaca40e8dede40d0d2ced60a31b6044820152606401610676565b60058190556040518181527fdd72d2879718489eb363ba6099239f89d49542612862c71545503d35cfddda469060200160405180910390a150565b60608151835114610fdf5781518351604051635b05999160e01b815260048101929092526024820152604401610676565b600083516001600160401b03811115610ffa57610ffa611d95565b604051908082528060200260200182016040528015611023578160200160208202803683370190505b50905060005b845181101561107a5760208082028601015161104d9060208084028701015161051b565b82828151811061105f5761105f612651565b602090810291909101015261107381612667565b9050611029565b509392505050565b6000818152600960205260409020600581015460ff166110d55760405162461bcd60e51b815260206004820152600e60248201526d4f7264657220696e61637469766560901b6044820152606401610676565b80546001600160a01b0316331461111b5760405162461bcd60e51b815260206004820152600a6024820152692737ba1039b2b63632b960b11b6044820152606401610676565b600081600401541161115d5760405162461bcd60e51b815260206004820152600b60248201526a4f7264657220656d70747960a81b6044820152606401610676565b60048101805460058301805460ff1916905560009182905560018301546040805160208101909152928352909161119a913091339190859061157f565b60405183907f61b9399f2f0f32ca39ce8d7be32caed5ec22fe07a6daba3a467ed479ec60658290600090a2505050565b600760205260009081526040902080546001820180549192916111ec90612408565b80601f016020809104026020016040519081016040528092919081815260200182805461121890612408565b80156112655780601f1061123a57610100808354040283529160200191611265565b820191906000526020600020905b81548152906001019060200180831161124857829003601f168201915b50505050600283015460038401546004909401549293909290915060ff1685565b61128e61160d565b61129860006116fe565b565b816112a5338561051b565b10156112f35760405162461bcd60e51b815260206004820152601860248201527f496e73756666696369656e74204e46542062616c616e636500000000000000006044820152606401610676565b600082116113385760405162461bcd60e51b81526020600482015260126024820152710416d6f756e74206d757374206265203e20360741b6044820152606401610676565b6000811161137c5760405162461bcd60e51b815260206004820152601160248201527005072696365206d757374206265203e203607c1b6044820152606401610676565b61139833308585604051806020016040528060008152506114e2565b6040805160c0810182523380825260208083018781528385018781526060808601888152608087018a8152600160a08901818152600a8054600090815260098a528c90209a518b546001600160a01b0319166001600160a01b03909116178b559651918a0191909155935160028901559051600388015551600487015590516005909501805460ff1916951515959095179094555484518881529182018790529381018590529092917f92669f7499828c9972b3a5b6c0b107ca011f143600fd7b32517024d4a3d7ab28910160405180910390a3600a805490600061147c83612667565b9190505550505050565b6114908282611750565b5050565b61149c61160d565b6000908152600860205260409020805460ff19169055565b6001600160a01b03918216600090815260016020908152604080832093909416825291909152205460ff1690565b336001600160a01b0386168114801590611503575061150186826114b4565b155b156115345760405163711bec9160e11b81526001600160a01b03808316600483015287166024820152604401610676565b610d7f868686868661157f565b61154961160d565b6001600160a01b03811661157357604051631e4fbdf760e01b815260006004820152602401610676565b61157c816116fe565b50565b6001600160a01b0384166115a957604051632bfa23e760e11b815260006004820152602401610676565b6001600160a01b0385166115d257604051626a0d4560e21b815260006004820152602401610676565b60408051600180825260208201869052818301908152606082018590526080820190925290611604878784848761175b565b50505050505050565b6003546001600160a01b031633146112985760405163118cdaa760e01b8152336004820152602401610676565b6001600160a01b03841661166457604051632bfa23e760e11b815260006004820152602401610676565b60408051600180825260208201869052818301908152606082018590526080820190925290610d7f60008784848761175b565b6001600160a01b0384166116c157604051632bfa23e760e11b815260006004820152602401610676565b6001600160a01b0385166116ea57604051626a0d4560e21b815260006004820152602401610676565b6116f7858585858561175b565b5050505050565b600380546001600160a01b038381166001600160a01b0319831681179093556040519116919082907f8be0079c531659141344cd1fd0a4f28419497f9722a3daafe3b4186f6b6457e090600090a35050565b6114903383836117ae565b6117678585858561183c565b6001600160a01b038416156116f757825133906001036117a05760208481015190840151611799838989858589611a59565b5050610d7f565b610d7f818787878787611b7d565b6001600160a01b0382166117d75760405162ced3e160e81b815260006004820152602401610676565b6001600160a01b03838116600081815260016020908152604080832094871680845294825291829020805460ff191686151590811790915591519182527f17307eab39ab6107e8899845ad3d59bd9653f200f220920489ca2b5937696c319101610bdc565b805182511461186b5781518151604051635b05999160e01b815260048101929092526024820152604401610676565b3360005b835181101561197a576020818102858101820151908501909101516001600160a01b03881615611922576000828152602081815260408083206001600160a01b038c168452909152902054818110156118fb576040516303dee4c560e01b81526001600160a01b038a166004820152602481018290526044810183905260648101849052608401610676565b6000838152602081815260408083206001600160a01b038d16845290915290209082900390555b6001600160a01b03871615611967576000828152602081815260408083206001600160a01b038b168452909152812080548392906119619084906124ef565b90915550505b50508061197390612667565b905061186f565b5082516001036119fb5760208301516000906020840151909150856001600160a01b0316876001600160a01b0316846001600160a01b03167fc3d58168c5ae7397731d063d5bbf3d657854427343f4c083240f7aacaa2d0f6285856040516119ec929190918252602082015260400190565b60405180910390a450506116f7565b836001600160a01b0316856001600160a01b0316826001600160a01b03167f4a39dc06d4c0dbc64b70af90fd698a233a518aa5d07e595d983b8c0526c8f7fb8686604051611a4a929190612680565b60405180910390a45050505050565b6001600160a01b0384163b15610d7f5760405163f23a6e6160e01b81526001600160a01b0385169063f23a6e6190611a9d90899089908890889088906004016126ae565b6020604051808303816000875af1925050508015611ad8575060408051601f3d908101601f19168201909252611ad5918101906126f3565b60015b611b41573d808015611b06576040519150601f19603f3d011682016040523d82523d6000602084013e611b0b565b606091505b508051600003611b3957604051632bfa23e760e11b81526001600160a01b0386166004820152602401610676565b805160208201fd5b6001600160e01b0319811663f23a6e6160e01b1461160457604051632bfa23e760e11b81526001600160a01b0386166004820152602401610676565b6001600160a01b0384163b15610d7f5760405163bc197c8160e01b81526001600160a01b0385169063bc197c8190611bc19089908990889088908890600401612710565b6020604051808303816000875af1925050508015611bfc575060408051601f3d908101601f19168201909252611bf9918101906126f3565b60015b611c2a573d808015611b06576040519150601f19603f3d011682016040523d82523d6000602084013e611b0b565b6001600160e01b0319811663bc197c8160e01b1461160457604051632bfa23e760e11b81526001600160a01b0386166004820152602401610676565b80356001600160a01b0381168114611c7d57600080fd5b919050565b60008060408385031215611c9557600080fd5b611c9e83611c66565b946020939093013593505050565b6001600160e01b03198116811461157c57600080fd5b600060208284031215611cd457600080fd5b8135611cdf81611cac565b9392505050565b600060208284031215611cf857600080fd5b5035919050565b6000815180845260005b81811015611d2557602081850181015186830182015201611d09565b506000602082860101526020601f19601f83011685010191505092915050565b602081526000611cdf6020830184611cff565b60008060408385031215611d6b57600080fd5b50508035926020909101359150565b600060208284031215611d8c57600080fd5b611cdf82611c66565b634e487b7160e01b600052604160045260246000fd5b604051601f8201601f191681016001600160401b0381118282101715611dd357611dd3611d95565b604052919050565b60006001600160401b03831115611df457611df4611d95565b611e07601f8401601f1916602001611dab565b9050828152838383011115611e1b57600080fd5b828260208301376000602084830101529392505050565b600080600080600060a08688031215611e4a57600080fd5b853594506020860135935060408601356001600160401b03811115611e6e57600080fd5b8601601f81018813611e7f57600080fd5b611e8e88823560208401611ddb565b9598949750949560608101359550608001359392505050565b60006001600160401b03821115611ec057611ec0611d95565b5060051b60200190565b600082601f830112611edb57600080fd5b81356020611ef0611eeb83611ea7565b611dab565b82815260059290921b84018101918181019086841115611f0f57600080fd5b8286015b84811015611f2a5780358352918301918301611f13565b509695505050505050565b600082601f830112611f4657600080fd5b611cdf83833560208501611ddb565b600080600080600060a08688031215611f6d57600080fd5b611f7686611c66565b9450611f8460208701611c66565b935060408601356001600160401b0380821115611fa057600080fd5b611fac89838a01611eca565b94506060880135915080821115611fc257600080fd5b611fce89838a01611eca565b93506080880135915080821115611fe457600080fd5b50611ff188828901611f35565b9150509295509295909350565b6000806040838503121561201157600080fd5b82356001600160401b038082111561202857600080fd5b818501915085601f83011261203c57600080fd5b8135602061204c611eeb83611ea7565b82815260059290921b8401810191818101908984111561206b57600080fd5b948201945b838610156120905761208186611c66565b82529482019490820190612070565b965050860135925050808211156120a657600080fd5b506120b385828601611eca565b9150509250929050565b600081518084526020808501945080840160005b838110156120ed578151875295820195908201906001016120d1565b509495945050505050565b602081526000611cdf60208301846120bd565b85815260a06020820152600061212460a0830187611cff565b6040830195909552506060810192909252151560809091015292915050565b60008060006060848603121561215857600080fd5b505081359360208301359350604090920135919050565b801515811461157c57600080fd5b6000806040838503121561219057600080fd5b61219983611c66565b915060208301356121a98161216f565b809150509250929050565b60008083601f8401126121c657600080fd5b5081356001600160401b038111156121dd57600080fd5b6020830191508360208260051b85010111156121f857600080fd5b9250929050565b60008083601f84011261221157600080fd5b5081356001600160401b0381111561222857600080fd5b6020830191508360208285010111156121f857600080fd5b60008060008060008060008060a0898b03121561225c57600080fd5b61226589611c66565b975061227360208a01611c66565b965060408901356001600160401b038082111561228f57600080fd5b61229b8c838d016121b4565b909850965060608b01359150808211156122b457600080fd5b6122c08c838d016121b4565b909650945060808b01359150808211156122d957600080fd5b506122e68b828c016121ff565b999c989b5096995094979396929594505050565b6000806040838503121561230d57600080fd5b61231683611c66565b915061232460208401611c66565b90509250929050565b60008060008060008060a0878903121561234657600080fd5b61234f87611c66565b955061235d60208801611c66565b9450604087013593506060870135925060808701356001600160401b0381111561238657600080fd5b61239289828a016121ff565b979a9699509497509295939492505050565b600080600080600060a086880312156123bc57600080fd5b6123c586611c66565b94506123d360208701611c66565b9350604086013592506060860135915060808601356001600160401b038111156123fc57600080fd5b611ff188828901611f35565b600181811c9082168061241c57607f821691505b60208210810361243c57634e487b7160e01b600052602260045260246000fd5b50919050565b634e487b7160e01b600052601160045260246000fd5b808202811582820484141761053d5761053d612442565b60008261248c57634e487b7160e01b600052601260045260246000fd5b500490565b8181038181111561053d5761053d612442565b6000602082840312156124b657600080fd5b8151611cdf8161216f565b6020808252601490820152731554d110c81d1c985b9cd9995c8819985a5b195960621b604082015260600190565b8082018082111561053d5761053d612442565b601f82111561254857600081815260208120601f850160051c810160208610156125295750805b601f850160051c820191505b81811015610d7f57828155600101612535565b505050565b81516001600160401b0381111561256657612566611d95565b61257a816125748454612408565b84612502565b602080601f8311600181146125af57600084156125975750858301515b600019600386901b1c1916600185901b178555610d7f565b600085815260208120601f198616915b828110156125de578886015182559484019460019091019084016125bf565b50858210156125fc5787850151600019600388901b60f8161c191681555b5050505050600190811b01905550565b8481526080602082015260006126256080830186611cff565b6040830194909452506060015292915050565b60006020828403121561264a57600080fd5b5051919050565b634e487b7160e01b600052603260045260246000fd5b60006001820161267957612679612442565b5060010190565b60408152600061269360408301856120bd565b82810360208401526126a581856120bd565b95945050505050565b6001600160a01b03868116825285166020820152604081018490526060810183905260a0608082018190526000906126e890830184611cff565b979650505050505050565b60006020828403121561270557600080fd5b8151611cdf81611cac565b6001600160a01b0386811682528516602082015260a06040820181905260009061273c908301866120bd565b828103606084015261274e81866120bd565b905082810360808401526127628185611cff565b9897505050505050505056fea2646970667358221220205cbd4666c379d11dcb6f64677720e80f6e56370026f52b53785ba827e2958764736f6c63430008140033",
  "devdoc": {
    "errors": {
      "ERC1155InsufficientBalance(address,uint256,uint256,uint256)": [
        {
          "details": "Indicates an error related to the current `balance` of a `sender`. Used in transfers.",
          "params": {
            "balance": "Current balance for the interacting account.",
            "needed": "Minimum amount required to perform a transfer.",
            "sender": "Address whose tokens are being transferred.",
            "tokenId": "Identifier number of a token."
          }
        }
      ],
      "ERC1155InvalidApprover(address)": [
        {
          "details": "Indicates a failure with the `approver` of a token to be approved. Used in approvals.",
          "params": {
            "approver": "Address initiating an approval operation."
          }
        }
      ],
      "ERC1155InvalidArrayLength(uint256,uint256)": [
        {
          "details": "Indicates an array length mismatch between ids and values in a safeBatchTransferFrom operation. Used in batch transfers.",
          "params": {
            "idsLength": "Length of the array of token identifiers",
            "valuesLength": "Length of the array of token amounts"
          }
        }
      ],
      "ERC1155InvalidOperator(address)": [
        {
          "details": "Indicates a failure with the `operator` to be approved. Used in approvals.",
          "params": {
            "operator": "Address that may be allowed to operate on tokens without being their owner."
          }
        }
      ],
      "ERC1155InvalidReceiver(address)": [
        {
          "details": "Indicates a failure with the token `receiver`. Used in transfers.",
          "params": {
            "receiver": "Address to which tokens are being transferred."
          }
        }
      ],
      "ERC1155InvalidSender(address)": [
        {
          "details": "Indicates a failure with the token `sender`. Used in transfers.",
          "params": {
            "sender": "Address whose tokens are being transferred."
          }
        }
      ],
      "ERC1155MissingApprovalForAll(address,address)": [
        {
          "details": "Indicates a failure with the `operator`s approval. Used in transfers.",
          "params": {
            "operator": "Address that may be allowed to operate on tokens without being their owner.",
            "owner": "Address of the current owner of a token."
          }
        }
      ],
      "OwnableInvalidOwner(address)": [
        {
          "details": "The owner is not a valid owner account. (eg. `address(0)`)"
        }
      ],
      "OwnableUnauthorizedAccount(address)": [
        {
          "details": "The caller account is not authorized to perform an operation."
        }
      ]
    },
    "events": {
      "ApprovalForAll(address,address,bool)": {
        "details": "Emitted when `account` grants or revokes permission to `operator` to transfer their tokens, according to `approved`."
      },
      "TransferBatch(address,address,address,uint256[],uint256[])": {
        "details": "Equivalent to multiple {TransferSingle} events, where `operator`, `from` and `to` are the same for all transfers."
      },
      "TransferSingle(address,address,address,uint256,uint256)": {
        "details": "Emitted when `value` amount of tokens of type `id` are transferred from `from` to `to` by `operator`."
      },
      "URI(string,uint256)": {
        "details": "Emitted when the URI for token type `id` changes to `value`, if it is a non-programmatic URI. If an {URI} event was emitted for `id`, the standard https://eips.ethereum.org/EIPS/eip-1155#metadata-extensions[guarantees] that `value` will equal the value returned by {IERC1155MetadataURI-uri}."
      }
    },
    "kind": "dev",
    "methods": {
      "balanceOf(address,uint256)": {
        "details": "Returns the value of tokens of token type `id` owned by `account`."
      },
      "balanceOfBatch(address[],uint256[])": {
        "details": "See {IERC1155-balanceOfBatch}. Requirements: - `accounts` and `ids` must have the same length."
      },
      "isApprovedForAll(address,address)": {
        "details": "Returns true if `operator` is approved to transfer ``account``'s tokens. See {setApprovalForAll}."
      },
      "owner()": {
        "details": "Returns the address of the current owner."
      },
      "renounceOwnership()": {
        "details": "Leaves the contract without owner. It will not be possible to call `onlyOwner` functions. Can only be called by the current owner. NOTE: Renouncing ownership will leave the contract without an owner, thereby disabling any functionality that is only available to the owner."
      },
      "safeBatchTransferFrom(address,address,uint256[],uint256[],bytes)": {
        "details": "xref:ROOT:erc1155.adoc#batch-operations[Batched] version of {safeTransferFrom}. WARNING: This function can potentially allow a reentrancy attack when transferring tokens to an untrusted contract, when invoking {IERC1155Receiver-onERC1155BatchReceived} on the receiver. Ensure to follow the checks-effects-interactions pattern and consider employing reentrancy guards when interacting with untrusted contracts. Emits either a {TransferSingle} or a {TransferBatch} event, depending on the length of the array arguments. Requirements: - `ids` and `values` must have the same length. - If `to` refers to a smart contract, it must implement {IERC1155Receiver-onERC1155BatchReceived} and return the acceptance magic value."
      },
      "safeTransferFrom(address,address,uint256,uint256,bytes)": {
        "details": "Transfers a `value` amount of tokens of type `id` from `from` to `to`. WARNING: This function can potentially allow a reentrancy attack when transferring tokens to an untrusted contract, when invoking {IERC1155Receiver-onERC1155Received} on the receiver. Ensure to follow the checks-effects-interactions pattern and consider employing reentrancy guards when interacting with untrusted contracts. Emits a {TransferSingle} event. Requirements: - `to` cannot be the zero address. - If the caller is not `from`, it must have been approved to spend ``from``'s tokens via {setApprovalForAll}. - `from` must have a balance of tokens of type `id` of at least `value` amount. - If `to` refers to a smart contract, it must implement {IERC1155Receiver-onERC1155Received} and return the acceptance magic value."
      },
      "setApprovalForAll(address,bool)": {
        "details": "Grants or revokes permission to `operator` to transfer the caller's tokens, according to `approved`, Emits an {ApprovalForAll} event. Requirements: - `operator` cannot be the zero address."
      },
      "supportsInterface(bytes4)": {
        "details": "Returns true if this contract implements the interface defined by `interfaceId`. See the corresponding https://eips.ethereum.org/EIPS/eip-165#how-interfaces-are-identified[ERC section] to learn more about how these ids are created. This function call must use less than 30 000 gas."
      },
      "transferOwnership(address)": {
        "details": "Transfers ownership of the contract to a new account (`newOwner`). Can only be called by the current owner."
      },
      "uri(uint256)": {
        "details": "See {IERC1155MetadataURI-uri}. This implementation returns the same URI for *all* token types. It relies on the token type ID substitution mechanism https://eips.ethereum.org/EIPS/eip-1155#metadata[defined in the ERC]. Clients calling this function must replace the `\\{id\\}` substring with the actual token type ID."
      }
    },
    "version": 1
  },
  "userdoc": {
    "kind": "user",
    "methods": {},
    "version": 1
  },
  "storageLayout": {
    "storage": [
      {
        "astId": 326,
        "contract": "contracts/FootballBetting1155.sol:FootballBetting1155",
        "label": "_balances",
        "offset": 0,
        "slot": "0",
        "type": "t_mapping(t_uint256,t_mapping(t_address,t_uint256))"
      },
      {
        "astId": 332,
        "contract": "contracts/FootballBetting1155.sol:FootballBetting1155",
        "label": "_operatorApprovals",
        "offset": 0,
        "slot": "1",
        "type": "t_mapping(t_address,t_mapping(t_address,t_bool))"
      },
      {
        "astId": 334,
        "contract": "contracts/FootballBetting1155.sol:FootballBetting1155",
        "label": "_uri",
        "offset": 0,
        "slot": "2",
        "type": "t_string_storage"
      },
      {
        "astId": 8,
        "contract": "contracts/FootballBetting1155.sol:FootballBetting1155",
        "label": "_owner",
        "offset": 0,
        "slot": "3",
        "type": "t_address"
      },
      {
        "astId": 6394,
        "contract": "contracts/FootballBetting1155.sol:FootballBetting1155",
        "label": "usdc",
        "offset": 0,
        "slot": "4",
        "type": "t_contract(IERC20)1614"
      },
      {
        "astId": 6400,
        "contract": "contracts/FootballBetting1155.sol:FootballBetting1155",
        "label": "feeRate",
        "offset": 0,
        "slot": "5",
        "type": "t_uint256"
      },
      {
        "astId": 6405,
        "contract": "contracts/FootballBetting1155.sol:FootballBetting1155",
        "label": "feeBalance",
        "offset": 0,
        "slot": "6",
        "type": "t_uint256"
      },
      {
        "astId": 6421,
        "contract": "contracts/FootballBetting1155.sol:FootballBetting1155",
        "label": "scoreInfos",
        "offset": 0,
        "slot": "7",
        "type": "t_mapping(t_uint256,t_struct(ScoreInfo)6416_storage)"
      },
      {
        "astId": 6425,
        "contract": "contracts/FootballBetting1155.sol:FootballBetting1155",
        "label": "isMintable",
        "offset": 0,
        "slot": "8",
        "type": "t_mapping(t_uint256,t_bool)"
      },
      {
        "astId": 6443,
        "contract": "contracts/FootballBetting1155.sol:FootballBetting1155",
        "label": "orders",
        "offset": 0,
        "slot": "9",
        "type": "t_mapping(t_uint256,t_struct(Order)6438_storage)"
      },
      {
        "astId": 6445,
        "contract": "contracts/FootballBetting1155.sol:FootballBetting1155",
        "label": "nextOrderId",
        "offset": 0,
        "slot": "10",
        "type": "t_uint256"
      }
    ],
    "types": {
      "t_address": {
        "encoding": "inplace",
        "label": "address",
        "numberOfBytes": "20"
      },
      "t_bool": {
        "encoding": "inplace",
        "label": "bool",
        "numberOfBytes": "1"
      },
      "t_contract(IERC20)1614": {
        "encoding": "inplace",
        "label": "contract IERC20",
        "numberOfBytes": "20"
      },
      "t_mapping(t_address,t_bool)": {
        "encoding": "mapping",
        "key": "t_address",
        "label": "mapping(address => bool)",
        "numberOfBytes": "32",
        "value": "t_bool"
      },
      "t_mapping(t_address,t_mapping(t_address,t_bool))": {
        "encoding": "mapping",
        "key": "t_address",
        "label": "mapping(address => mapping(address => bool))",
        "numberOfBytes": "32",
        "value": "t_mapping(t_address,t_bool)"
      },
      "t_mapping(t_address,t_uint256)": {
        "encoding": "mapping",
        "key": "t_address",
        "label": "mapping(address => uint256)",
        "numberOfBytes": "32",
        "value": "t_uint256"
      },
      "t_mapping(t_uint256,t_bool)": {
        "encoding": "mapping",
        "key": "t_uint256",
        "label": "mapping(uint256 => bool)",
        "numberOfBytes": "32",
        "value": "t_bool"
      },
      "t_mapping(t_uint256,t_mapping(t_address,t_uint256))": {
        "encoding": "mapping",
        "key": "t_uint256",
        "label": "mapping(uint256 => mapping(address => uint256))",
        "numberOfBytes": "32",
        "value": "t_mapping(t_address,t_uint256)"
      },
      "t_mapping(t_uint256,t_struct(Order)6438_storage)": {
        "encoding": "mapping",
        "key": "t_uint256",
        "label": "mapping(uint256 => struct FootballBetting1155.Order)",
        "numberOfBytes": "32",
        "value": "t_struct(Order)6438_storage"
      },
      "t_mapping(t_uint256,t_struct(ScoreInfo)6416_storage)": {
        "encoding": "mapping",
        "key": "t_uint256",
        "label": "mapping(uint256 => struct FootballBetting1155.ScoreInfo)",
        "numberOfBytes": "32",
        "value": "t_struct(ScoreInfo)6416_storage"
      },
      "t_string_storage": {
        "encoding": "bytes",
        "label": "string",
        "numberOfBytes": "32"
      },
      "t_struct(Order)6438_storage": {
        "encoding": "inplace",
        "label": "struct FootballBetting1155.Order",
        "members": [
          {
            "astId": 6427,
            "contract": "contracts/FootballBetting1155.sol:FootballBetting1155",
            "label": "seller",
            "offset": 0,
            "slot": "0",
            "type": "t_address"
          },
          {
            "astId": 6429,
            "contract": "contracts/FootballBetting1155.sol:FootballBetting1155",
            "label": "tokenId",
            "offset": 0,
            "slot": "1",
            "type": "t_uint256"
          },
          {
            "astId": 6431,
            "contract": "contracts/FootballBetting1155.sol:FootballBetting1155",
            "label": "amount",
            "offset": 0,
            "slot": "2",
            "type": "t_uint256"
          },
          {
            "astId": 6433,
            "contract": "contracts/FootballBetting1155.sol:FootballBetting1155",
            "label": "pricePerNFT",
            "offset": 0,
            "slot": "3",
            "type": "t_uint256"
          },
          {
            "astId": 6435,
            "contract": "contracts/FootballBetting1155.sol:FootballBetting1155",
            "label": "remaining",
            "offset": 0,
            "slot": "4",
            "type": "t_uint256"
          },
          {
            "astId": 6437,
            "contract": "contracts/FootballBetting1155.sol:FootballBetting1155",
            "label": "active",
            "offset": 0,
            "slot": "5",
            "type": "t_bool"
          }
        ],
        "numberOfBytes": "192"
      },
      "t_struct(ScoreInfo)6416_storage": {
        "encoding": "inplace",
        "label": "struct FootballBetting1155.ScoreInfo",
        "members": [
          {
            "astId": 6407,
            "contract": "contracts/FootballBetting1155.sol:FootballBetting1155",
            "label": "matchId",
            "offset": 0,
            "slot": "0",
            "type": "t_uint256"
          },
          {
            "astId": 6409,
            "contract": "contracts/FootballBetting1155.sol:FootballBetting1155",
            "label": "score",
            "offset": 0,
            "slot": "1",
            "type": "t_string_storage"
          },
          {
            "astId": 6411,
            "contract": "contracts/FootballBetting1155.sol:FootballBetting1155",
            "label": "odds",
            "offset": 0,
            "slot": "2",
            "type": "t_uint256"
          },
          {
            "astId": 6413,
            "contract": "contracts/FootballBetting1155.sol:FootballBetting1155",
            "label": "saleEndTime",
            "offset": 0,
            "slot": "3",
            "type": "t_uint256"
          },
          {
            "astId": 6415,
            "contract": "contracts/FootballBetting1155.sol:FootballBetting1155",
            "label": "exists",
            "offset": 0,
            "slot": "4",
            "type": "t_bool"
          }
        ],
        "numberOfBytes": "160"
      },
      "t_uint256": {
        "encoding": "inplace",
        "label": "uint256",
        "numberOfBytes": "32"
      }
    }
  }
}